:200000000C9454000C947C000C947C000C947C000C947C000C947C000C947C000C947C0028
:200020000C947C000C947C000C947C000C947C000C947C000C947C000C947C000C947C00E0
:200040000C94FB020C947C000C94C9020C94A3020C947C000C947C000C947C000C947C00C7
:200060000C947C000C947C0000000000250028002B0000000000240027002A00040404044B
:200080000404040402020202020203030303030301020408102040800102040810200102F1
:2000A0000408102045035C0611241FBECFEFD8E0DEBFCDBF22E0A0E9B1E001C01D92AD343C
:2000C000B207E1F711E0A0E0B1E0E4E5F5E102C005900D92A039B107D9F710E0C3E5D0E04F
:2000E00004C02197FE010E949C08C235D107C9F70E9479030C949D0A0C940000AF92BF9219
:20010000CF92DF92EF92FF920F931F93CF93DF936C017B018B01040F151FEB015E01AE1806
:20012000BF08C017D10759F06991D601ED91FC910190F081E02DC6010995892B79F7C501C6
:20014000DF91CF911F910F91FF90EF90DF90CF90BF90AF900895FC01538D448D252F30E066
:20016000842F90E0821B930B541710F0CF96089501970895FC01918D828D981761F0A28D26
:20018000AE0FBF2FB11D5D968C91928D9F5F9F73928F90E008958FEF9FEF0895FC01918DB5
:2001A000828D981731F0828DE80FF11D858D90E008958FEF9FEF0895FC01918D228D892F02
:2001C00090E0805C9F4F821B91098F739927089580EA91E00E94DC0021E0892B09F420E044
:2001E000822F0895FC01A48DA80FB92FB11DA35ABF4F2C91848D90E001968F739927848F61
:20020000A689B7892C93A089B1898C91837080648C93938D848D981306C00288F389E02D85
:2002200080818F7D80830895EF92FF920F931F93CF93DF93EC0181E0888F9B8D8C8D981386
:200240001AC0E889F989808185FF15C09FB7F894EE89FF896083E889F989808183708064E8
:2002600080839FBF81E090E0DF91CF911F910F91FF90EF900895F62E0B8D10E00F5F1F4FF9
:200280000F731127E02E8C8D8E110CC00FB607FCFACFE889F989808185FFF5CFCE010E94D4
:2002A000F200F1CFEB8DEC0FFD2FF11DE35AFF4FF0829FB7F8940B8FEA89FB89808180628C
:2002C000CFCFCF93DF93EC01888D8823B9F0AA89BB89E889F9898C9185FD03C0808186FD06
:2002E0000DC00FB607FCF7CF8C9185FFF2CF808185FFEDCFCE010E94F200E9CFDF91CF9115
:2003000008953FB7F8948091910190919201A0919301B091940126B5A89B05C02F3F19F072
:200320000196A11DB11D3FBFBA2FA92F982F8827BC01CD01620F711D811D911D42E0660FF8
:20034000771F881F991F4A95D1F70895FC0101900020E9F73197AF01481B590BBC0180EA70
:2003600091E00C947E008F929F92AF92BF920F931F93CF93DF93CDB7DEB7A1970FB6F89440
:20038000DEBF0FBECDBF19A2423008F44AE08E010F5D1F4F842E912CB12CA12CA501940157
:2003A0000E947A08E62FB901CA01EA30F4F4E05DD801EE938D01232B242B252B79F790E08B
:2003C00080E0109719F0CD010E94A601A1960FB6F894DEBF0FBECDBFDF91CF911F910F9158
:2003E000BF90AF909F908F900895E95CE1CFCF93DF930E94A601EC0188E191E00E94A60162
:200400008C0F9D1FDF91CF9108950F931F93CF93DF93EC0188819981009759F02A813B8199
:200420002617370730F081E0DF91CF911F910F9108958B016F5F7F4F0E94C709009759F089
:20044000998388831B830A832C813D81232B59F7FC011082E8CF80E0E7CFCF93DF93EC0124
:20046000198218821B821A821D821C8270E060E00E9405022881398181110FC02115310568
:2004800019F0C9010E943E09198218821D821C821B821A82DF91CF9108951D821C826AE100
:2004A00071E0C901DF91CF910C94960AEF92FF920F931F93CF93DF9300D0CDB7DEB7EE24DC
:2004C000E39480EA91E00E94DC00892B69F180EA91E00E94BA00F82E89831A820091410265
:2004E000109142020F5F1F4FB8018DE392E00E940502882399F020913D0230913E028091C1
:20050000410290914202BE016F5F7F4F820F931F0E94960A10934202009341028AE0F81222
:20052000D0CFE0929F01CDCF0F900F90DF91CF911F910F91FF90EF9008950E94E800811149
:200540000C94560208951F920F920FB60F9211242F933F934F935F936F937F938F939F9349
:20056000AF93BF93EF93FF9380EA91E00E94F200FF91EF91BF91AF919F918F917F916F9164
:200580005F914F913F912F910F900FBE0F901F9018951F920F920FB60F9211242F938F93C3
:2005A0009F93EF93FF93E091B001F091B1018081E091B601F091B70182FD1BC090818091C2
:2005C000B9018F5F8F732091BA01821741F0E091B901F0E0E056FE4F958F8093B901FF913C
:2005E000EF919F918F912F910F900FBE0F901F9018958081F4CF1F920F920FB60F92112453
:200600002F933F938F939F93AF93BF938091950190919601A0919701B0919801309190010A
:2006200023E0230F2D3758F50196A11DB11D209390018093950190939601A0939701B093FC
:2006400098018091910190919201A0919301B09194010196A11DB11D809391019093920191
:20066000A0939301B0939401BF91AF919F918F913F912F910F900FBE0F901F90189526E8F6
:20068000230F0296A11DB11DD2CFE0EAF1E01382128288EE93E0A0E0B0E084839583A6835E
:2006A000B7838AE091E09183808385EC90E09587848784EC90E09787868780EC90E0918B03
:2006C000808B81EC90E0938B828B82EC90E0958B848B86EC90E0978B868B118E128E138E05
:2006E000148E83E492E00E942D028DE392E00C942D02789484B5826084BD84B5816084BD3A
:2007000085B5826085BD85B5816085BD80916E00816080936E0010928100809181008260A6
:200720008093810080918100816080938100809180008160809380008091B1008460809360
:20074000B1008091B00081608093B00080917A00846080937A0080917A00826080937A008D
:2007600080917A00816080937A0080917A00806880937A001092C100EEE9F0E02491EAE8EF
:20078000F0E084918823C1F090E0880F991FFC01EE58FF4FC591D491FC01E859FF4FA5914B
:2007A000B4919FB7F8948881E22FE0958E2388838C91E823EC939FBFE091B001F091B1016D
:2007C00082E08083E091AC01F091AD011082E091AE01F091AF018FEC80831092B801E0913A
:2007E000B401F091B50186E08083E091B201F091B301808180618083E091B201F091B3010D
:20080000808188608083E091B201F091B301808180688083E091B201F091B30180818F7D41
:2008200080838BE191E00E94F70164E670E08DE392E00E9405022224239490E4392E809130
:200840009F01882309F472C0409141025091420260913D0270913E0280EA91E00E947E0079
:2008600088E191E00E94A601E0903D02F0903E02E114F10441F0C0914102D091420287010A
:20088000209709F039C18091410290914202892BC9F061E271E080913D0290913E020E94A1
:2008A0008D0A892B79F460919E01622560939E0170E090E080E040E10E94B3018EE291E05F
:2008C0000E94F7018091410290914202892B71F065E471E080913D0290913E020E948D0A2C
:2008E000892B21F48BE191E00E94F70170E060E08DE392E00E94050220913D0230913E02AC
:20090000811133C12115310519F0C9010E943E0910923E0210923D0210924202109241029B
:200920001092400210923F0210929F0180919E01811128C08BE191E00E94F7010E948101E9
:200940006B017C0184E6482E512C612C712C0E9481016C197D098E099F09683E73408105DA
:200960009105A8F3F1E04F1A51086108710828EEC20E23E0D21EE11CF11C411451046104DF
:20098000710429F730927C0080917A00806480937A0080917A0086FDFCCF80917800609135
:2009A0007900762F682F072E000C880B990B0E947D062DE038E643E55BE30E94DC062B01A4
:2009C0003C0126E636E646EE5FE30E94760687FF5EC080919D01811164C12FB7F894809191
:2009E000950190919601A0919701B09198012FBF4091990150919A0160919B0170919C0106
:200A0000841B950BA60BB70B85369105A105B10508F43DC080E591E00E94A6012FB7F894ED
:200A2000609195017091960180919701909198012FBF4AE00E94B30181E791E00E94A601A4
:200A4000A3019201C301B2010E947508882309F496C08CE791E00E94A60188E891E00E941B
:200A6000F701F1E0F0939D012FB7F8948091950190919601A0919701B09198012FBF809317
:200A8000990190939A01A0939B01B0939C0126E636E646EE5FE3C301B2010E94700887FD9C
:200AA00022C080919D018823F1F02FB7F8948091950190919601A0919701B09198012FBFB7
:200AC0004091990150919A0160919B0170919C01841B950BA60BB70B85369105A105B105A5
:200AE00010F010929D010E94E800882309F4A7CE0E945602A4CE850158012FEFA21AB20A2E
:200B0000F8018081082E000C990B0E946D06892B91F72197CE0DDF1D8881082E000C990B26
:200B20000E946D06892B29F0C017D10710F02197F3CFAE014F5F5F4F401B510B50934202C1
:200B400040934102E016F10620F4B801C7010E94840AE0913D02F0913E02809141029091E7
:200B60004202E80FF91F10828ECE10924202109241026AE171E0C9010E94960AD5CE7301AA
:200B80006201E894F7F82FEF3FEF4FE75FE7C701B6010E94750881110DC02FEF3FEF4FE740
:200BA0005FE7C701B6010E94760618161CF480E891E051CF2FEF3FEF4FE75FE4C301B201DF
:200BC0000E94700818161CF484E891E044CF2FEF3FEF4FE75FECC301B2010E94760687FDE7
:200BE000F3CF20E030E0A901C301B2010E94760687FF54C06DE280EA91E00E941401C301A5
:200C0000B20190582AE037ED43EA5BE30E94D5076B017C010E9441084B015C010E947B0682
:200C20009B01AC01C701B6010E94D4076B017C014AE0C501B4010E94B3016EE280EA91E060
:200C40000E94140120E030E040E251E4C701B6010E94DC064B015C010E9441086B01F12C56
:200C6000E12C4AE0C701B6010E94B301C701B6010E947B069B01AC01C501B4010E94D40785
:200C800020E030E040E251E40E94DC060E94410890E080E04AE00E94B301DFCEC301B2010A
:200CA000B1CF26E636E646EE5FE3C301B2010E94700887FFFACE17CF80913D0290913E02A0
:200CC000009711F00E943E098091430290914402009711F00C943E09089591110C94490728
:200CE000803219F089508550C8F708950E94B80608F481E00895E89409C097FB3EF49095A7
:200D00008095709561957F4F8F4F9F4F9923A9F0F92F96E9BB279395F69587957795679574
:200D2000B795F111F8CFFAF4BB0F11F460FF1BC06F5F7F4F8F4F9F4F16C0882311F096E93E
:200D400011C0772321F09EE8872F762F05C0662371F096E8862F70E060E02AF09A95660F06
:200D6000771F881FDAF7880F9695879597F90895990F0008550FAA0BE0E8FEEF1616170693
:200D8000E807F907C0F012161306E407F50798F0621B730B840B950B39F40A2661F0232BDE
:200DA000242B252B21F408950A2609F4A140A6958FEF811D811D08950E94EF060C946307A1
:200DC0000E94550738F00E945C0720F0952311F00C944C070C94520711240C9497070E941E
:200DE000740770F3959FC1F3950F50E0551F629FF001729FBB27F00DB11D639FAA27F00D65
:200E0000B11DAA1F649F6627B00DA11D661F829F2227B00DA11D621F739FB00DA11D621F37
:200E2000839FA00D611D221F749F3327A00D611D231F849F600D211D822F762F6A2F112458
:200E40009F5750409AF0F1F088234AF0EE0FFF1FBB1F661F771F881F91505040A9F79E3F17
:200E6000510580F00C944C070C9497075F3FE4F3983ED4F3869577956795B795F795E795F2
:200E80009F5FC1F7FE2B880F911D9695879597F9089599278827089597F99F6780E870E060
:200EA00060E008959FEF80EC089500240A941616170618060906089500240A9412161306E6
:200EC000140605060895092E0394000C11F4882352F0BB0F40F4BF2B11F460FF04C06F5FA6
:200EE0007F4F8F4F9F4F089557FD9058440F551F59F05F3F71F04795880F97FB991F61F062
:200F00009F3F79F087950895121613061406551FF2CF4695F1DF08C0161617061806991FAF
:200F2000F1CF86957105610508940895E894BB2766277727CB0197F908952F923F924F92CC
:200F40005F926F927F928F929F92AF92BF92CF92DF92EF92FF920F931F93CF93DF93CDB71A
:200F6000DEB7CA1BDB0B0FB6F894DEBF0FBECDBF09942A88398848885F846E847D848C8404
:200F80009B84AA84B984C884DF80EE80FD800C811B81AA81B981CE0FD11D0FB6F894DEBFEA
:200FA0000FBECDBFED0108955058BB27AA270E94EC070C9463070E94550738F00E945C0728
:200FC00020F039F49F3F19F426F40C9452070EF4E095E7FB0C944C07E92F0E94740758F30A
:200FE000BA17620773078407950720F079F4A6F50C9496070EF4E0950B2EBA2FA02D0B014F
:20100000B90190010C01CA01A0011124FF27591B99F0593F50F4503E68F11A16F040A22FC0
:20102000232F342F4427585FF3CF469537952795A795F0405395C9F77EF41F16BA0B620BC7
:20104000730B840BBAF09150A1F0FF0FBB1F661F771F881FC2F70EC0BA0F621F731F841FB7
:2010600048F4879577956795B795F7959E3F08F0B0CF9395880F08F09927EE0F9795879528
:2010800008950E947C0788F09F5798F0B92F9927B751B0F0E1F0660F771F881F991F1AF003
:2010A000BA95C9F714C0B13091F00E949607B1E008950C949607672F782F8827B85F39F015
:2010C000B93FCCF3869577956795B395D9F73EF490958095709561957F4F8F4F9F4F089580
:2010E0000E94B80608F48FEF08950E94B806880B990B0895A1E21A2EAA1BBB1BFD010DC014
:20110000AA1FBB1FEE1FFF1FA217B307E407F50720F0A21BB30BE40BF50B661F771F881F6B
:20112000991F1A9469F760957095809590959B01AC01BD01CF010895EE0FFF1F0590F4910C
:20114000E02D09940F931F93CF93DF938230910510F482E090E0E0914B02F0914C0230E002
:2011600020E0B0E0A0E0309799F42115310509F44AC0281B390B24303105D8F58A819B8193
:201180006115710589F1FB0193838283FE0111C0408151810281138148175907E0F048176A
:2011A000590799F4109761F012960C93129713961C933296CF01DF91CF911F910F910895AD
:2011C00000934B0210934C02F4CF2115310551F04217530738F0A901DB019A01BD01DF0134
:2011E000F801C1CFEF01F9CF90934C0280934B02CDCFFE01E20FF31F81939193225031095B
:2012000039832883D7CF2091490230914A02232B41F4209102013091030130934A022093FA
:20122000490220910001309101012115310541F42DB73EB74091040150910501241B350B38
:20124000E0914902F0914A02E217F307A0F42E1B3F0B2817390778F0AC014E5F5F4F2417C1
:20126000350748F04E0F5F1F50934A0240934902819391939FCFF0E0E0E09CCFCF93DF935D
:201280000097E9F0FC01329713821282A0914B02B0914C02ED0130E020E01097A1F4208107
:2012A0003181820F931F2091490230914A022817390709F061C0F0934A02E0934902DF919A
:2012C000CF910895EA01CE17DF07E8F54A815B819E0141155105B1F7E901FB83EA83499135
:2012E0005991C40FD51FEC17FD0761F4808191810296840F951FE9019983888382819381C7
:201300009B838A83F0E0E0E012968D919C9113970097B9F52D913C911197CD010296820F06
:20132000931F2091490230914A022817390739F6309751F510924C0210924B02B0934A02C9
:20134000A0934902BCCFD383C28340815181840F951FC817D90761F44E5F5F4F888199817D
:20136000480F591F518340838A819B81938382832115310509F0B0CFF0934C02E0934B0250
:201380009ECFFD01DC01C0CF13821282D7CFB0E0A0E0EDECF9E00C949F078C01009751F436
:2013A000CB010E94A2088C01C801CDB7DEB7E0E10C94BB07FC01E60FF71F9C012250310932
:2013C000E217F30708F49DC0D901CD91DC911197C617D70798F0C530D10530F3CE010497D9
:2013E0008617970708F3C61BD70B2297C193D1936D937C93CF010E943E09D6CF5B01AC1AF4
:20140000BD0A4C018C0E9D1EA0914B02B0914C02512C412CF12CE12C109731F58091490219
:2014200090914A028815990509F05CC04616570608F058C08091000190910101009741F425
:201440008DB79EB74091040150910501841B950BE817F90708F055C0F0934A02E09349025E
:20146000F90171836083A0CF8D919C91119712966C90129713967C901397A815B90559F5C4
:201480006C0142E0C40ED11CCA14DB0420F1AC014A195B09DA011296159780F06282738244
:2014A00051834083D9016D937C93E114F10471F0D7011396FC93EE93129776CF22968C0F8F
:2014C0009D1FF90191838083F301EFCFF0934C02E0934B0269CF4816590608F42C017D0160
:2014E000D3019ACFCB010E94A2087C01009749F0AE01B8010E94840AC8010E943E09870178
:2015000053CF10E000E050CFFB01DC0102C001900D9241505040D8F70895FB01DC018D916B
:20152000019080190110D9F3990B0895FB01DC0101900D920020E1F7089510E0C3E5D0E07D
:2015400004C0FE010E949C082196C435D107C9F7F894FFCF00004D028000000000001401FC
:201560007E00AB006101DC00BA00CE000D0A00484B3431360049535F434F4E4E45435445ED
:201580004400203A2049535F434F4E4E4543544544207374617475730049445F5245515512
:2015A000455354004261697373652064652074656E73696F6E2064EFBFBD74656374EFBF92
:2015C000BD65203A00206D696C6C6973203A20006E616E00696E66006F76660020766F6C35
:2015E00074730000FFFFFFFFFFFFFFFFFFFFFFFFFFFFFFFFFFFFFFFFFFFFFFFFFFFFFFFF20
:20160000FFFFFFFFFFFFFFFFFFFFFFFFFFFFFFFFFFFFFFFFFFFFFFFFFFFFFFFFFFFFFFFFEA
:20162000FFFFFFFFFFFFFFFFFFFFFFFFFFFFFFFFFFFFFFFFFFFFFFFFFFFFFFFFFFFFFFFFCA
:20164000FFFFFFFFFFFFFFFFFFFFFFFFFFFFFFFFFFFFFFFFFFFFFFFFFFFFFFFFFFFFFFFFAA
:20166000FFFFFFFFFFFFFFFFFFFFFFFFFFFFFFFFFFFFFFFFFFFFFFFFFFFFFFFFFFFFFFFF8A
:207E0000112484B714BE81FFF0D085E08093810082E08093C00088E18093C10086E08093FC
:207E2000C20080E18093C4008EE0C9D0259A86E020E33CEF91E0309385002093840096BBAD
:207E4000B09BFECF1D9AA8958150A9F7CC24DD2488248394B5E0AB2EA1E19A2EF3E0BF2E79
:207E6000A2D0813461F49FD0082FAFD0023811F0013811F484E001C083E08DD089C0823404
:207E800011F484E103C0853419F485E0A6D080C0853579F488D0E82EFF2485D0082F10E0A0
:207EA000102F00270E291F29000F111F8ED068016FC0863521F484E090D080E0DECF84364D
:207EC00009F040C070D06FD0082F6DD080E0C81680E7D80618F4F601B7BEE895C0E0D1E0ED
:207EE00062D089930C17E1F7F0E0CF16F0E7DF0618F0F601B7BEE89568D007B600FCFDCF1A
:207F0000A601A0E0B1E02C9130E011968C91119790E0982F8827822B932B1296FA010C016F
:207F200087BEE89511244E5F5F4FF1E0A038BF0751F7F601A7BEE89507B600FCFDCF97BE85
:207F4000E89526C08437B1F42ED02DD0F82E2BD03CD0F601EF2C8F010F5F1F4F84911BD0B8
:207F6000EA94F801C1F70894C11CD11CFA94CF0CD11C0EC0853739F428D08EE10CD085E9AE
:207F80000AD08FE07ACF813511F488E018D01DD080E101D065CF982F8091C00085FFFCCF0A
:207FA0009093C60008958091C00087FFFCCF8091C00084FD01C0A8958091C6000895E0E68F
:207FC000F0E098E1908380830895EDDF803219F088E0F5DFFFCF84E1DECF1F93182FE3DF47
:207FE0001150E9F7F2DF1F91089580E0E8DFEE27FF270994FFFFFFFFFFFFFFFFFFFF040425
:00000001FF
