:200000000C9463000C948B000C948B000C948B000C948B000C948B000C948B000C94F9043E
:200020000C948B000C948B000C948B000C948B000C948B000C948B000C948B000C948B0068
:200040000C94AF040C948B000C94A1050C947B050C948B000C948B000C948B000C948B0010
:200060000C948B000C948B0000000000240027002A0000000000230026002900000000083B
:2000800000020100000304070000000000000000010204081020408001020408102001020E
:2000A0000408102000000000250028002B0004040404040404040202020202020303030354
:2000C00003030200510811241FBECFEFD8E0DEBFCDBF11E0A0E0B1E0E0E9F6E102C0059015
:2000E0000D92A03AB107D9F722E0A0EAB1E001C01D92A336B207E1F710E0C3E6D0E004C0FB
:200100002197FE010E944509C236D107C9F70E94D3050C94460B0C94000080E480937C00AA
:2001200080917A00806480937A0080917A0086FDFCCF80917800909179000895833081F006
:2001400028F4813099F08230A9F008958730A9F08830C9F08430B1F4809180008F7D03C0E7
:20016000809180008F7780938000089584B58F7784BD089584B58F7DFBCF8091B0008F77C5
:200180008093B00008958091B0008F7DF9CFCF93DF93EEE7F0E08491E2E9F0E0D491E0EB11
:2001A000F0E0C491CC23A1F081110E949E00EC2FF0E0EE0FFF1FEE58FF4FA591B491EC9136
:2001C000ED2381E090E009F480E0DF91CF91089580E090E0FACF1F93CF93DF93282F30E0EE
:2001E000F901E458FF4F8491F901E057FF4FD491F901E255FF4FC491CC23A9F0162F81114F
:200200000E949E00EC2FF0E0EE0FFF1FEC55FF4FA591B4918FB7F894EC91111108C0D095F0
:20022000DE23DC938FBFDF91CF911F910895DE2BF8CFCF93DF9390E0FC01E057FF4F249198
:2002400082559F4FFC0184918823D1F090E0880F991FFC01E859FF4FA591B491FC01EC5557
:20026000FF4FC591D491623071F49FB7F8943C91822F809583238C93E8812E2B28839FBF79
:20028000DF91CF9108958FB7F894EC912E2B2C938FBFF6CFCF9380910001893021F08F3F6B
:2002A00059F1CF910895E2ECF0E0C491C7FDF9CF61E089E00E941901CC2309F48BC0C230E9
:2002C00009F0A0C08091B10087608093B10087E08093B30086E990E0A0E0B0E08093B60172
:2002E0009093B701A093B801B093B90180917000826080937000D5CF89E080930001E2EC65
:20030000F0E0C491CF3F69F2C13021F150F0C23009F43EC0C7FDC5CF61E089E00E94190161
:20032000CECF14BC15BC84B5826084BD85B5816085BDE7EBF0E0E491F0E0EE0FFF1FEC5583
:20034000FF4F85919491E9E9F0E0E491E093B501C0E0AECF109280001092810080918100E0
:2003600088608093810080918100816080938100E7EBF0E0E491F0E0EE0FFF1FEC55FF4F69
:2003800085919491E9E9F0E0E491E093B40190CF1092B0001092B1008091B0008260809329
:2003A000B0008091B10081608093B100E7EBF0E0E491F0E0EE0FFF1FEC55FF4F859194915A
:2003C0009093B3018093B201E9E9F0E0E491E093B1016ECF85B5887F856085BD87E087BDF4
:2003E00086E990E0A0E0B0E08093BE019093BF01A093C001B093C10180916E0082608093EC
:200400006E004FCFC130F1F480918100887F8360809381008CE890E290938900809388003D
:2004200086E990E0A0E0B0E08093BA019093BB01A093BC01B093BD0180916F0082608093BA
:200440006F002FCFC23021F0C1112BCF8CE8C7CF8CE83ECF3FB7F8948091A9019091AA01CC
:20046000A091AB01B091AC0126B5A89B05C02F3F19F00196A11DB11D3FBFBA2FA92F982FAE
:200480008827BC01CD01620F711D811D911D42E0660F771F881F991F4A95D1F708958F92E6
:2004A0009F92AF92BF92CF92DF92EF92FF924B015C010E942A026B017C010E942A026C19E2
:2004C0007D098E099F09683E734081059105A8F321E0821A9108A108B10888EEC80E83E000
:2004E000D81EE11CF11C81149104A104B10429F7FF90EF90DF90CF90BF90AF909F908F90A0
:2005000008950895AF92BF92CF92DF92EF92FF920F931F93CF93DF936C017B018B01040F7B
:20052000151FEB015E01AE18BF08C017D10759F06991D601ED91FC910190F081E02DC60105
:200540000995892B79F7C501DF91CF911F910F91FF90EF90DF90CF90BF90AF900895FC01EF
:20056000538D448D252F30E0842F90E0821B930B541710F0CF96089501970895FC01918D4B
:20058000828D981761F0A28DAE0FBF2FB11D5D968C91928D9F5F9F73928F90E008958FEFB9
:2005A0009FEF08952FB7F8948091AD019091AE01A091AF01B091B0012FBF8093CA0190934D
:2005C000CB01A093CC01B093CD0182EC91E00E94BE0297FF26C02FB7F8948091AD0190912F
:2005E000AE01A091AF01B091B0012FBF4091CA015091CB016091CC017091CD01841B950B76
:20060000A60BB70B4091C6015091C7016091C8017091C90184179507A607B707B0F28FEFDF
:200620009FEF0895FC01918D828D981731F0828DE80FF11D858D90E008958FEF9FEF0895B9
:20064000FC01918D228D892F90E0805C9F4F821B91098F739927089582EC91E00E942003A4
:2006600021E0892B09F420E0822F089580E090E0892B29F00E942C0381110C94000008953D
:20068000FC01A48DA80FB92FB11DA35ABF4F2C91848D90E001968F739927848FA689B7899B
:2006A0002C93A089B1898C91837080648C93938D848D981306C00288F389E02D80818F7D43
:2006C00080830895EF92FF920F931F93CF93DF93EC0181E0888F9B8D8C8D98131AC0E889A4
:2006E000F989808185FF15C09FB7F894EE89FF896083E889F98980818370806480839FBF2E
:2007000081E090E0DF91CF911F910F91FF90EF900895F62E0B8D10E00F5F1F4F0F731127FB
:20072000E02E8C8D8E110CC00FB607FCFACFE889F989808185FFF5CFCE010E944003F1CFE6
:20074000EB8DEC0FFD2FF11DE35AFF4FF0829FB7F8940B8FEA89FB8980818062CFCFCF9399
:20076000DF93EC01888D8823B9F0AA89BB89E889F9898C9185FD03C0808186FD0DC00FB6CF
:2007800007FCF7CF8C9185FFF2CF808185FFEDCFCE010E944003E9CFDF91CF9108950E9472
:2007A000C7000197E1F36AE070E080E090E00E944F020E94C700892BE1F30C944A01FC01D0
:2007C00001900020E9F73197AF01481B590BBC0182EC91E00C948202CF93DF930E94DF0331
:2007E000EC0189E191E00E94DF038C0F9D1FDF91CF9108958F929F92AF92BF92CF92DF9233
:20080000EF92FF920F931F93CF93DF93CDB7DEB7A1970FB6F894DEBF0FBECDBF6C01990FF1
:20082000EE08FF08F7FE47C06DE282EC91E00E9462038C0122273327A9012C193D094E09CE
:200840005F0919A2CE0181967C019AE0892E912CA12CB12CCA01B901A50194010E941409FB
:20086000605DF70162937F01211531054105510589F790E080E0309719F0CF010E94DF03D2
:20088000080F191F89E191E00E94DF03800F911FA1960FB6F894DEBF0FBECDBFDF91CF911D
:2008A0001F910F91FF90EF90DF90CF90BF90AF909F908F900895A701960119A28E010F5D9E
:2008C0001F4F8AE0C82ED12CE12CF12CCA01B901A70196010E941409605DF80162938F0165
:2008E000211531054105510589F7309729F0CF010E94DF038C01C6CF10E000E0C3CFFC01BB
:2009000080819181009711F00C94E70908950F931F93CF93DF93EC0188819981009759F0E7
:200920002A813B812617370730F081E0DF91CF911F910F9108958B016F5F7F4F0E94700A53
:20094000009759F0998388831B830A832C813D81232B59F7FC011082E8CF80E0E7CF1F924F
:200960000F920FB60F9211242F933F938F939F93AF93BF938091AD019091AE01A091AF014F
:20098000B091B0013091A80123E0230F2D3758F50196A11DB11D2093A8018093AD019093B2
:2009A000AE01A093AF01B093B0018091A9019091AA01A091AB01B091AC010196A11DB11D3C
:2009C0008093A9019093AA01A093AB01B093AC01BF91AF919F918F913F912F910F900FBEE1
:2009E0000F901F90189526E8230F0296A11DB11DD2CF1F920F920FB60F9211242F933F9376
:200A00004F935F936F937F938F939F93AF93BF93EF93FF938091B6019091B701A091B80167
:200A2000B091B901892B8A2B8B2BD1F19091B101E091B201F091B3018081892780838091E9
:200A4000B6019091B701A091B801B091B901181619061A061B069CF48091B6019091B70162
:200A6000A091B801B091B9010197A109B1098093B6019093B701A093B801B093B901FF9177
:200A8000EF91BF91AF919F918F917F916F915F914F913F912F910F900FBE0F901F9018951F
:200AA00080910001E2ECF0E0E4919FEF90930001E13051F030F0E23069F060E00E94EB00B5
:200AC000DECF10926E00F9CF90916F009D7F90936F00F3CF909170009D7F9093700091E0E0
:200AE0009093B0009091B100987F94609093B1001092B300E2CF1F920F920FB60F9211247F
:200B00002F933F934F935F936F937F938F939F93AF93BF93EF93FF9382EC91E00E94400399
:200B2000FF91EF91BF91AF919F918F917F916F915F914F913F912F910F900FBE0F901F909B
:200B400018951F920F920FB60F9211242F938F939F93EF93FF93E091D201F091D301808137
:200B6000E091D801F091D90182FD1BC090818091DB018F5F8F732091DC01821741F0E091BF
:200B8000DB01F0E0EE53FE4F958F8093DB01FF91EF919F918F912F910F900FBE0F901F902E
:200BA00018958081F4CFCF93DF93CDB7DEB76A970FB6F894DEBF0FBECDBF789484B5826068
:200BC00084BD84B5816084BD85B5826085BD85B5816085BD80916E00816080936E0010923B
:200BE000810080918100826080938100809181008160809381008091800081608093800060
:200C00008091B10084608093B1008091B00081608093B00080917A00846080937A008091F8
:200C20007A00826080937A0080917A00816080937A0080917A00806880937A001092C1006F
:200C400062E082E00E94190161E08DE00E94190160E08DE00E94EB00E091D201F091D301F7
:200C600082E08083E091CE01F091CF011082E091D001F091D1018FEC80831092DA01E091EB
:200C8000D601F091D70186E08083E091D401F091D501808180618083E091D401F091D5019C
:200CA000808188608083E091D401F091D501808180688083E091D401F091D50180818F7D15
:200CC00080838FB7F8944091AD015091AE016091AF017091B0018FBF80E291E00E94EC032B
:200CE0008CE191E00E94EC0388EE93E0A0E0B0E08093C6019093C701A093C801B093C901BE
:200D000081E08093A7018E010F5F1F4F80E0C82E80E0D82E8091A701882309F4A7C01C8A22
:200D20001B8A1E8A1D8A188E1F8A70E060E0CE0143960E9487042B893C89811152C02115B8
:200D4000310519F0C9010E94E7091C8A1B8A188E1F8A1E8A1D8A82EC91E00E94200318163D
:200D600019060CF07FC061E08DE00E94EB001A8219821C821B821E821D8270E060E0C801D4
:200D80000E94870429813A81811133C02115310519F0C9010E94E7091A8219821E821D82F5
:200DA0001C821B820E94D20297FD2BC0898F1A8EED80FE808FEFE81AF80AB701C8010E94B3
:200DC0008704882379F329813A818D819E81BE01675E7F4F820F931F0E943F0BFE82ED826F
:200DE000E1CF188E1F8A6BE171E0C9010E943F0BB2CF1E821D826BE171E0C9010E943F0B8E
:200E0000D1CF8B899C89009709F4AEC069817A816115710509F4A6C04D895E892D813E8199
:200E20004217530708F49EC00E943F0B8D819E81988F8F8B1E821D82C8010E947F048F8906
:200E4000988D892B79F0EB88FC886AE271E0C7010E94360B892B09F098C00E944A0181E0BE
:200E60008093A601CE0143960E947F048091A601882309F46BC0E090A401F090A5010E9483
:200E8000CF030E948D008090A0019090A101092C000CAA08BB089C01990F440B550B2819F3
:200EA00039094A095B09A4EBB0E00E94D2082091A2013091A301032E000C440B550B2819B8
:200EC00039094A095B090E94B308DA01C9018A559109A109B1098E199F091C8A1B8A1E8AF8
:200EE0001D8A188E1F8A4AE0B8010E947E08F80101900020E9F731977F01E01AF10AB70172
:200F0000CE0143960E9487042B893C898111C2C02115310519F0C9010E94E7091C8A1B8A53
:200F2000188E1F8A1E8A1D8A4F89588D6B897C8982EC91E00E94820289E191E00E94DF03F9
:200F40001092A601CE0143960E947F04C114D10409F4E0CE0E942C03882309F4DBCE0E9462
:200F60000000D8CE0E94E70989819A819C8B8B8B8B819C819E8B8D8B8D819E81988F8F8BFF
:200F80001A8219821C821B8255CF6DE271E0C7010E94360B892B09F065CF84E991E00E940F
:200FA000EC030E944A0168EE73E080E090E00E944F020E94CF030E948D009093A10180936E
:200FC000A00180E391E00E94DF038091A0019091A1010E94FA030E94CF030E948D0090933E
:200FE000A3018093A20184E491E00E94DF038091A2019091A3010E94FA030E94CF030E940C
:201000008D007C0188E591E00E94DF03C7010E94FA038090A0019090A101092C000CAA0897
:20102000BB089701FF0C440B550B281939094A095B09A4EBB0E00E94D2082091A2013091B1
:20104000A301032E000C440B550B281939094A095B090E94B30849015A018AE5881A91081A
:20106000A108B1088CE691E00E94DF03C4010E94FA030E944A0168EE73E080E090E00E943B
:201080004F0280E991E00E94EC039092A5018092A401E8CEF88EEF8AB801C9010E943F0BF1
:2010A00043CFE2ECF1E01382128288EE93E0A0E0B0E084839583A683B7838BE091E09183EB
:2010C000808385EC90E09587848784EC90E09787868780EC90E0918B808B81EC90E0938BFC
:2010E000828B82EC90E0958B848B86EC90E0978B868B118E128E138E148E0895BB274A3046
:2011000031F4992322F4BDE2909581959F4F0C948A08BB27FB015527AA27880F991FAA1F9B
:20112000A41710F0A41B83955051B9F7A05DAA3308F0A95DA193009779F7B111B193119210
:20114000CB010C94A308DC01FC01672F71917723E1F7329704C07C916D9370836291AE174F
:20116000BF07C8F30895052E97FB1EF400940E94CA0857FD07D00E94140907FC03D04EF470
:201180000C94CA0850954095309521953F4F4F4F5F4F089590958095709561957F4F8F4F50
:2011A0009F4F08950E943609A59F900DB49F900DA49F800D911D112408952F923F924F922F
:2011C0005F926F927F928F929F92AF92BF92CF92DF92EF92FF920F931F93CF93DF93CDB798
:2011E000DEB7CA1BDB0B0FB6F894DEBF0FBECDBF09942A88398848885F846E847D848C8482
:201200009B84AA84B984C884DF80EE80FD800C811B81AA81B981CE0FD11D0FB6F894DEBF67
:201220000FBECDBFED010895A1E21A2EAA1BBB1BFD010DC0AA1FBB1FEE1FFF1FA217B30758
:20124000E407F50720F0A21BB30BE40BF50B661F771F881F991F1A9469F760957095809596
:2012600090959B01AC01BD01CF010895A29FB001B39FC001A39F700D811D1124911DB29F3F
:20128000700D811D1124911D0895EE0FFF1F0590F491E02D09940F931F93CF93DF938230FA
:2012A000910510F482E090E0E0916102F091620230E020E0B0E0A0E0309799F42115310529
:2012C00009F44AC0281B390B24303105D8F58A819B816115710589F1FB0193838283FE0186
:2012E00011C0408151810281138148175907E0F04817590799F4109761F012960C931297B0
:2013000013961C933296CF01DF91CF911F910F9108950093610210936202F4CF21153105F4
:2013200051F04217530738F0A901DB019A01BD01DF01F801C1CFEF01F9CF909362028093F7
:201340006102CDCFFE01E20FF31F819391932250310939832883D7CF20915F023091600266
:20136000232B41F420910301309104013093600220935F0220910101309102012115310553
:2013800041F42DB73EB74091050150910601241B350BE0915F02F0916002E217F307A0F4C5
:2013A0002E1B3F0B2817390778F0AC014E5F5F4F2417350748F04E0F5F1F50936002409309
:2013C0005F02819391939FCFF0E0E0E09CCFCF93DF930097E9F0FC01329713821282A091A7
:2013E0006102B0916202ED0130E020E01097A1F420813181820F931F20915F0230916002E0
:201400002817390709F061C0F0936002E0935F02DF91CF910895EA01CE17DF07E8F54A81AF
:201420005B819E0141155105B1F7E901FB83EA8349915991C40FD51FEC17FD0761F4808120
:2014400091810296840F951FE90199838883828193819B838A83F0E0E0E012968D919C91C5
:2014600013970097B9F52D913C911197CD010296820F931F20915F023091600228173907ED
:2014800039F6309751F51092620210926102B0936002A0935F02BCCFD383C2834081518113
:2014A000840F951FC817D90761F44E5F5F4F88819981480F591F518340838A819B819383B0
:2014C00082832115310509F0B0CFF0936202E09361029ECFFD01DC01C0CF13821282D7CFC0
:2014E000B0E0A0E0E6E7FAE00C94DF088C01009751F4CB010E944B098C01C801CDB7DEB714
:20150000E0E10C94FB08FC01E60FF71F9C0122503109E217F30708F49DC0D901CD91DC9125
:201520001197C617D70798F0C530D10530F3CE0104978617970708F3C61BD70B2297C19362
:20154000D1936D937C93CF010E94E709D6CF5B01AC1ABD0A4C018C0E9D1EA0916102B091B1
:201560006202512C412CF12CE12C109731F580915F02909160028815990509F05CC0461685
:20158000570608F058C08091010190910201009741F48DB79EB74091050150910601841BE4
:2015A000950BE817F90708F055C0F0936002E0935F02F90171836083A0CF8D919C91119793
:2015C00012966C90129713967C901397A815B90559F56C0142E0C40ED11CCA14DB0420F17A
:2015E000AC014A195B09DA011296159780F06282738251834083D9016D937C93E114F10495
:2016000071F0D7011396FC93EE93129776CF22968C0F9D1FF90191838083F301EFCFF09395
:201620006202E093610269CF4816590608F42C017D01D3019ACFCB010E944B097C010097C1
:2016400049F0AE01B8010E942D0BC8010E94E709870153CF10E000E050CFFB01DC0102C080
:2016600001900D9241505040D8F70895FB01DC018D91019080190110D9F3990B0895FB0172
:20168000DC0101900D920020E1F70895F894FFCFFF0000630280000000000062038202AFD2
:2016A00002AF032003BE0212030D0A0046696E20436F6E6E6578696F6E004D0A00430A00D5
:2016C00056616C6575722065787472656D652041203A200056616C657572206578747265EF
:2016E0006D652042203A200056616C65757220766572746963616C65203A200056616C65EC
:201700007572206465206C6120766572746963616C6520656E20646567726573203A200026
:2017200046696E2043616C6962726174696F6E00FFFFFFFFFFFFFFFFFFFFFFFFFFFFFFFF14
:20174000FFFFFFFFFFFFFFFFFFFFFFFFFFFFFFFFFFFFFFFFFFFFFFFFFFFFFFFFFFFFFFFFA9
:20176000FFFFFFFFFFFFFFFFFFFFFFFFFFFFFFFFFFFFFFFFFFFFFFFFFFFFFFFFFFFFFFFF89
:201780004D0A00430A00FFFFFFFFFFFFFFFFFFFFFFFFFFFFFFFFFFFFFFFFFFFFFFFFFFFFBF
:2017A000FFFFFFFFFFFFFFFFFFFFFFFFFFFFFFFFFFFFFFFFFFFFFFFFFFFFFFFFFFFFFFFF49
:2017C000FFFFFFFFFFFFFFFFFFFFFFFFFFFFFFFFFFFFFFFFFFFFFFFFFFFFFFFFFFFFFFFF29
:2017E000FFFFFFFFFFFFFFFFFFFFFFFFFFFFFFFFFFFFFFFFFFFFFFFFFFFFFFFFFFFFFFFF09
:201800005091B4024F3F8FEF580749F50E94DB0D880F991F9093B8028093B70263E172E070
:20182000CE0101960E942612BE016F5F7F4FCE0107960E941D126BE974E0CE0107960E941A
:201840008B11BC0185E994E00E94C811CE0107960E941812CE0101960E94181294C0809103
:201860009F049091A0049093B6028093B50260E070E0CE0101960E94990DBE016F5F7F4FC2
:201880008FE894E00E94DF11CE0101960E9418124091B5025091B6026091B3027091B4021B
:2018A0006F5F7F4FCE0101960E94990DBE016F5F7F4F89E894E00E94DF11CE0101960E9404
:2018C00018128FE894E00E9412116B017C017093B8026093B70289E894E00E94121170932F
:2018E00003016093020189E6C81681E0D80648F163E172E0CE0101960E942612BE016F5FC6
:201900007F4FCE0107960E941D126BE974E0CE0107960E948B11BC0185E994E00E94C81150
:20192000CE0107960E941812CE0101960E9418120E94DB0D880F991F9093B8028093B702BB
:2019400022C066E172E0CE0101960E942612BE016F5F7F4FCE0107960E941D126BE974E08C
:20196000CE0107960E948B11BC0185E994E00E94C811CE0107960E941812CE0101960E9463
:2019800018121093BB028091B7029091B80297FD0196959587959093BA028093B902109357
:2019A000A202F6CE2C960FB6F894DEBF0FBECDBFDF91CF911F910F91FF90EF90DF90CF90BA
:2019C0000895EF92FF920F931F93CF93DF9300D000D000D0CDB7DEB77C018B0169E172E002
:2019E0000E941D11811177C06DE172E0C7010E941D11882339F16AE0C8010E949E11F801E4
:201A0000E480F580E114F10419F41092BD0213C0F3E6EF16F10418F093E6E92EF12CF80141
:201A200060817181A7018DEB92E00E946A1EF701E354FD4F10826DEB72E089E594E00E94DC
:201A4000A20B49C061E272E0C7010E941D11882309F444C0409174045091750480EF91E074
:201A60009A8389838091700490917104A0917204B09173048B839C83AD83BE83BE016F5F98
:201A80007F4F8FE594E00E941005F801E480F580E114F10419F41092BD0213C0F3E6EF16FE
:201AA000F10418F083E6E82EF12CF80160817181A7018DEB92E00E946A1EF701E354FD4F8A
:201AC00010826DEB72E08FE594E00E94A20B8FE594E00E94E704C8010E94EB1426960FB633
:201AE000F894DEBF0FBECDBFDF91CF911F910F91FF90EF9008950E944C1ECF93DF93209108
:201B00009F043091A004232B79F0FC01C0919B04D0919C0460817181CE010E94791E0097A6
:201B200019F08C1B9D0B02C08FEF9FEFDF91CF910895DF92EF92FF920F931F93CF93DF9367
:201B40007C018B01EA014617570720F4812F8A01C62FD82F62E172E0C7010E942612809143
:201B60009F049091A00408171907E0F48C179D0708F4EC01E0919B04F0919C04EC0FFD1F72
:201B8000D080108260919B0470919C04600F711FC7010E94B111E0919B04F0919C04EC0FDB
:201BA000FD1FD082C701DF91CF911F910F91FF90EF90DF9008958F929F92AF92BF92CF9270
:201BC000DF92EF92FF928091880428E532E06901C81AD10887FDD394CC0CDD1CCC0CDD1C14
:201BE0000D2C000CEE08FF088091870428E830E04901881A910887FD9394880C991C880CDA
:201C0000991C092C000CAA08BB08809186048F3FC1F090E0FC01EE0FFF1F8E0F9F1FFC015F
:201C2000EC5CFB4F2181328143E0220F331F4A95E1F754E0369527955A95E1F72E5F3F4FC3
:201C400002C020E030E02F5F3F4FC901330FAA0BBB0B9C01AD01281939094A095B09A4EBFB
:201C6000B0E00E94C81BA7019601281939094A095B090E94A91BC901FF90EF90DF90CF90CA
:201C8000BF90AF909F908F900895FF920F931F93CF93DF93F82EC0E0D0E08F2D0E94AA0391
:201CA0008C01892B21F08F2D0E94AA03EC01C017D10799F7CE01DF91CF911F910F91FF901D
:201CC0000895CF93C82F462F61E070E00E94550461E070E08C2F0E9427078111F9CFCF9137
:201CE0000895AF92BF92CF92DF92EF92FF920F931F93CF93DF93F82E5B016A01E22E68E262
:201D000070E00E942707D82F69E270E08F2D0E942707ED2FF0E0FE2FEE27EF01C80FD11D92
:201D200080912304909124040E94E4030E94A5038D2F0E94DD038C2F0E94DD038F2D829501
:201D4000880F807E885E0E94DD038501AC0CBD1C0A151B0539F080E00E94DD03F801819318
:201D60008F01F6CF0E94A0030E94DC03E1100EC0CC0DDD1D4D2F68E270E08F2D0E945504E9
:201D80004C2F69E270E08F2D0E945504DF91CF911F910F91FF90EF90DF90CF90BF90AF90EC
:201DA0000895CF93DF93BC0186E893E00E94A20BEC0160E172E086E893E00E94A20B8C0F7A
:201DC0009D1FDF91CF91089590E0FC01E057FF4F2491FC01E458FF4F8491882399F090E0F3
:201DE000880F991FFC01EE58FF4FA591B491FC01E859FF4F859194918FB7F894EC91E22B65
:201E0000EC938FBF0895CF92DF92EF92FF92DC01A03282E0B8070CF03EC0B7FD06C0A53B50
:201E2000B1052CF0A4EBB0E002C0A0E0B0E08091870428E830E06901C81AD10887FDD39413
:201E4000CC0CDD1CCC0CDD1C0D2C000CEE08FF088091880428E532E0281B310987FD339519
:201E6000220F331F220F331FA901330F660B770B9A01AB012C193D094E095F090E94D31B5C
:201E800024EB30E040E050E00E94A91BC20ED31EE41EF51ED601909186049C3098F58091AB
:201EA000870448E850E0481B510987FD5395440F551F440F551FA417B5078CF080918804F0
:201EC00028E532E0281B310987FD3395220F331F220F331FAD012A173B070CF4A9014250A7
:201EE0005109440F551F2FB7F894892F90E0FC01EE0FFF1F8E0F9F1FFC01EC5CFB4F528350
:201F000041832FBFFF90EF90DF90CF9008950895CF92DF92EF92FF920F931F93CF93DF93ED
:201F20006C017A018B01C0E0D0E0CE15DF0589F0D8016D918D01D601ED91FC910190F08154
:201F4000E02DC6010995892B11F47E0102C02196ECCFC701DF91CF911F910F91FF90EF90AD
:201F6000DF90CF900895FC01538D448D252F30E0842F90E0821B930B541710F0CF96089519
:201F800001970895FC01918D828D981761F0828DDF01A80FB11D5D968C91928D9F5F9F732F
:201FA000928F90E008958FEF9FEF0895FC01918D828D981731F0828DE80FF11D858D90E0BA
:201FC00008958FEF9FEF0895FC01918D228D892F90E0805C9F4F821B91098F739927089569
:201FE00086E893E00E94E40F21E0892B09F420E0822F0895FC01848DDF01A80FB11DA35AFB
:20200000BF4F2C91848D90E001968F739927848FA689B7892C93A089B1898C9180648C9357
:20202000938D848D981306C00288F389E02D80818F7D80830895EF92FF920F931F93CF9376
:20204000DF93EC0181E0888F9B8D8C8D981305C0E889F989808185FD24C0F62E0B8D10E0F2
:202060000F5F1F4F0F731127E02E8C8DE8120CC00FB607FCFACFE889F989808185FFF5CF10
:20208000CE010E94FA0FF1CF8B8DFE01E80FF11DE35AFF4FF0820B8FEA89FB898081806279
:2020A00007C0EE89FF896083E889F98980818064808381E090E0DF91CF911F910F91FF901C
:2020C000EF900895CF93DF93EC01888D8823C9F0EA89FB89808185FD05C0A889B9898C91DB
:2020E00086FD0FC00FB607FCF5CF808185FFF2CFA889B9898C9185FFEDCFCE010E94FA0F72
:20210000E7CFDF91CF9108950E94F00F81110C94B70B0895CF93DF93EC01888199810097EF
:2021200011F00E94EA1C198218821D821C821B821A82DF91CF9108950F931F93CF93DF93B6
:20214000EC0188819981009729F02A813B812617370788F48B016F5F7F4F0E94821D009761
:2021600061F0998388831B830A832C813D81232B11F4FC01108281E001C080E0DF91CF911D
:202180001F910F910895EF92FF920F931F93CF93DF93FC01248135816115710511F480E06F
:2021A00019C041155105A9F07B01EC018A01020F131FB8010E949C10882389F32881398139
:2021C0008C819D81B701820F931F0E94631E1D830C8381E0DF91CF911F910F91FF90EF90F8
:2021E0000895EF92FF920F931F93CF93DF93EC017B018A01BA010E949C10811104C0CE01E6
:202200000E948A1007C01D830C83B701888199810E94631ECE01DF91CF911F910F91FF9010
:20222000EF900895FC0180819181009711F00C94381B60E070E0CB010895FC012481358196
:20224000232B31F421E061157105A1F0FB0108C0FC01808191816115710531F421E0FC01AA
:202260008081882339F005C00E945A1E21E0892B09F020E0822F0895EF92FF920F931F9348
:20228000CF93DF93CDB7DEB728970FB6F894DEBF0FBECDBF7C01CB014AE08E010F5F1F4F6D
:2022A000B8010E945F1BF80101900020E9F73197AF01401B510BB801C7010E94C310811108
:2022C00003C0C7010E948A10C70128960FB6F894DEBF0FBECDBFDF91CF911F910F91FF90BB
:2022E000EF900895CF93DF93EC016115710561F0FB0101900020E9F73197AF01461B570BFC
:202300000E94C310811103C0CE010E948A10CE01DF91CF910895CF93DF93EC01FB0144812A
:202320005581608171810E94C310811103C0CE010E948A10CE01DF91CF910895CF93DF930F
:2023400000D0CDB7DEB769831A8241E050E0BE016F5F7F4F0E94C3100F900F90DF91CF91DD
:202360000895CF93DF93EC016115710559F0FB0101900020E9F73197AF01461B570B0E9460
:20238000F11002C00E948A10CE01DF91CF910895CF93DF93EC01FB018617970761F06081D8
:2023A00071816115710529F0448155810E94F11002C00E948A10CE01DF91CF9108950F930C
:2023C0001F93CF93DF938C01EB01FC01808191810097B1F0688179816115710579F04281BB
:2023E00053812C813D814217530740F00E94631E8C819D81F8019583848313C00E94EA1CDA
:2024000088819981F801918380838A819B81938382838C819D8195838483198218821B822B
:202420001A821D821C82DF91CF911F910F910895FC01808191810C94EA1CFC01118210822E
:2024400013821282158214820C94C811FC011182108213821282158214826115710551F008
:20246000FB0101900020E9F73197AF01461B570B0C94F11008954F925F926F927F92EF92F1
:20248000FF920F931F93CF93DF93CDB7DEB7A1970FB6F894DEBF0FBECDBF7C01FA01CB01A7
:2024A00019A2223008F42AE08E010F5D1F4F422E512C612C712CBF01A30192010E94121CC2
:2024C000F901CA01015011096A3014F4605D01C0695CD8016C93232B242B252B61F7B80111
:2024E000C7010E94A20BA1960FB6F894DEBF0FBECDBFDF91CF911F910F91FF90EF907F900A
:202500006F905F904F900895DC01ED91FC910190F081E02D09948F929F92AF92BF92CF9278
:20252000DF92EF92FF920F931F93CF93DF937C018B016C0182E0C80ED11C4701E5E08E0EAC
:20254000911CC0E0D0E0F60141916F0150E060E070E02AE0C8010E943B125C016EE2C8014D
:202560000E9484128A0D9B1DC80FD91FC814D90451F7F701458150E060E070E02AE0C801B3
:202580000E943B128C0F9D1FDF91CF911F910F91FF90EF90DF90CF90BF90AF909F908F901D
:2025A00008951F920F920FB60F9211242F933F934F935F936F937F938F939F93AF93BF932D
:2025C000EF93FF9386E893E00E94FA0FFF91EF91BF91AF919F918F917F916F915F914F918B
:2025E0003F912F910F900FBE0F901F9018951F920F920FB60F9211242F938F939F93EF935F
:20260000FF93E0919603F09197038081E0919C03F0919D0382FD12C0908180919F038F5FCE
:202620008F732091A003821751F0E0919F03F0E0EA57FC4F958F80939F0301C08081FF91D0
:20264000EF919F918F912F910F900FBE0F901F90189590E0FC01EC55FF4F3491FC01E0578E
:20266000FF4F2491FC01E458FF4FE491EE2309F43BC0332339F1333091F038F43130A9F0C8
:20268000323001F584B58F7D12C0373091F03830A1F03430B9F4809180008F7D03C0809168
:2026A00080008F77809380000DC084B58F7784BD09C08091B0008F7703C08091B0008F7D94
:2026C0008093B000F0E0EE0FFF1FE859FF4FA591B4918FB7F894EC91611103C020952E23B8
:2026E00001C02E2B2C938FBF08958F929F92AF92BF92CF92DF92EF92FF926B017C010E94C3
:2027000025034B015C01C114D104E104F104F1F00E942503DC01CB0188199909AA09BB0956
:20272000883E9340A105B10570F321E0C21AD108E108F10888EE880E83E0981EA11CB11CFA
:20274000C114D104E104F10419F7DDCFFF90EF90DF90CF90BF90AF909F908F900895FF9253
:202760000F931F93CF93DF931F92CDB7DEB7F82E8A0169830E945E046981462F60E070E0D7
:202780008F2D0E9455040115110551F40091D9041091DA040F5F1F4F1093DA040093D90457
:2027A000412F64E070E08F2D0E945504402F65E070E08F2D0E94550461E070E08F2D0E94B4
:2027C000610E81E00F90DF91CF911F910F91FF900895CF92DF92EF92FF920F931F93CF93A4
:2027E000DF93CDB7DEB7C254D1090FB6F894DEBF0FBECDBFFC0182819381A481B5812396EF
:202800008CAF9DAFAEAFBFAF239721E023962FAF239723964CAD5DAD6EAD7FAD23974BABA7
:202820005CAB6DAB7EAB89AF9AAFABAFBCAF8DA79EA7AFA7B8AB28AB4DA55EA56FA578A9DB
:202840004FA358A769A77AA72EAB4BA95CA96DA97EA949A35AA36BA37CA38B8F9C8FAD8FB0
:20286000BE8F40EF51E05C8B4B8B3FEF3D8B3E8B3F8B188E5E874D872AA7CFA0D8A4E9A4BD
:20288000FAA4CF86D88AE98AFA8A2CA309A11AA12BA13CA109871A872B873C875A834983C0
:2028A0008B839C83AD83BE8310912D041093D70468EE73E080E090E00E947513812F0E9435
:2028C000E40E1FB7F8948091D804811124C0E6E8F0E08491EAE9F0E09491E82FF0E0EE0FE2
:2028E000FF1FEE58FF4FA591B491EC91E92321F461E08AE00E9429138AE00E94E40E8CB545
:2029000080618CBD8CB580648CBD8DE00E94E40E8BE00E94E40E8091D8048F5F8093D80455
:202920001FBF10E0012F0295000F007E045F42E0602F8EE190E00E942A0442E0602F8FE191
:2029400090E00E942A041F5F183061F726E030E044E051E064E089E090E00E94E70324E001
:2029600030E0AE014D5F5F4F64E08FE090E00E94E70324E030E0AE01415F5F4F64E081E0D9
:2029800090E00E94E70324E030E0AE014B5E5F4F64E085E090E00E94E70381E08C878985FA
:2029A0009A85AB85BC858093270490932804A0932904B0932A04CE5BDF4F0FB6F894DEBFE4
:2029C0000FBECDBFDF91CF911F910F91FF90EF90DF90CF900895CF93DF93FC014481558199
:2029E0006081718186E893E00E94880FEC0160E172E086E893E00E94A20B8C0F9D1FDF9173
:202A0000CF910895CF92DF92EF92FF920F931F93CF93DF9300D0CDB7DEB7182F6B01790197
:202A200064E270E049835A830E942707082F65E270E0812F0E942707C80ED11CE02FF0E097
:202A4000FE2FEE27CE0EDF1E612F6295660F607E6C5E970149815A81C6010E94E703EC0C2F
:202A6000FD1C4F2D64E270E0812F0E9455044E2D65E270E0812F0F900F90DF91CF911F9100
:202A80000F91FF90EF90DF90CF900C945504FF920F931F93CF93DF93F82EC0E0D0E08F2DD6
:202AA0000E94C3038C01892B21F08F2D0E94C303EC01C017D10799F7CE01DF91CF911F91BD
:202AC0000F91FF90089589E894E00E9418128FE894E00E94181285E994E00E9418128BE9A0
:202AE00094E00E94181281EA94E00C941812CF93DF93CDB7DEB7A0970FB6F894DEBF0FBE0E
:202B0000CDBF789484B5826084BD84B5816084BD85B5826085BD85B5816085BD80916E002C
:202B2000816080936E001092810080918100826080938100809181008160809381008091F0
:202B400080008160809380008091B10084608093B1008091B00081608093B00080917A0027
:202B6000846080937A0080917A00826080937A0080917A00816080937A0080917A0080687E
:202B800080937A001092C100E0919603F091970382E08083E0919203F09193031082E0919B
:202BA0009403F09195038FEC808310929E03E0919A03F0919B0386E08083E0919803F09181
:202BC0009903808180618083E0919803F0919903808188608083E0919803F0919903808135
:202BE00080688083E0919803F091990380818F7D808385E292E00E94D10E84E392E00E94DC
:202C0000D10E69E172E081EA94E00E941D1181112FC080EF91E09A83898380918204909148
:202C20008304A0918404B09185048B839C83AD83BE83CE0101960E94E9136DE172E081EADD
:202C400094E00E941D11882329F089E594E00E9458050EC061E272E081EA94E00E941D1179
:202C6000882331F068EB72E28FE594E00E94F702809186048C3008F052C089E00E94E40E00
:202C800080918604E82FF0E09F01220F331FE20FF31FEC5CFB4F9081907C996090839EE84B
:202CA000909387049BE5909388046CE00E94431C9CE0899FB001112440E050E09A01260F40
:202CC000371FF901EE0FFF1F2E0F3F1FF901EC5CFB4F908196FD16C04F5F5F4F4C305105BA
:202CE00069F781110FC01092800082E0809381001092850010928400B19A80916F00826001
:202D000080936F00E0918604F0E0CF01880F991FE80FF91FEC5CFB4F80818064808387E84F
:202D200090E00E94030F88E00E94E40E61E088E00E94291387E592E00E94D10EFF24F394E3
:202D400048EE442E43E0542E612C712C52E3C52E51E0D52EE1E2F3E0ADEBB2E011921D928E
:202D600083E0E538F807D1F769E172E081EA94E00E941D11B82E882371F08091A20288236F
:202D800009F437C262E172E08BE994E00E94B1111092A2022EC26DE172E081EA94E00E9405
:202DA0001D11882309F40EC162E172E085E994E00E94B11162E172E08BE994E00E94B111B2
:202DC00089E594E00E94260603EA12E01C821B824D825E826F827886DA82C982BD86F801A8
:202DE000219131918F0180915D0490915E042817390771F4CE0101960E944E05873109F4E6
:202E0000C1C2CE0101960E944E058C3109F4BAC2B394F8E0BF12DACF198A188A4A8A5B8A07
:202E20006C8A7D8ADF86CE86BA8E8A8D883009F4E0C1F092BC02CE010E960E94BE05882364
:202E400009F4D7C1CE010E960E94F701892B51F0CE010E960E94DD01682F8BE994E00E94C7
:202E60009E11F0CFA0909F04B090A004B092B602A092B50264E172E0CE0101960E94261273
:202E8000CE0101960E947D0D8C019093B4028093B302CE0101960E9418120F3F8FEF180755
:202EA000D9F463E172E0CE0101960E942612BE016F5F7F4FCE014B960E941D126BE974E0EB
:202EC000CE014B960E948B11BC0185E994E00E94C811CE014B96F0C0A80160E070E0CE0182
:202EE00001960E94990DBE016F5F7F4F8FE894E00E94DF11CE0101960E941812B8016F5F62
:202F00007F4FA501CE0101960E94990DBE016F5F7F4F89E894E00E94DF11CE0101960E94B5
:202F200018128FE894E00E9412114B015C017093B8026093B70289E894E00E9412119B015F
:202F4000709303016093020199E6891691E0990618F412161306DCF063E172E0CE01019631
:202F60000E942612BE016F5F7F4FCE014B960E941D126BE974E0CE014B960E948B11BC0148
:202F800085E994E00E94C811CE014B96F5C066E172E0CE0101960E942612BE016F5F7F4F3B
:202FA000CE014B960E941D126BE974E0CE014B960E948B11BC0185E994E00E94C811CE0111
:202FC0004B9603C161E272E081EA94E00E941D11882309F40EC162E172E085E994E00E9478
:202FE000B11162E172E08BE994E00E94B1118FE594E00E940002892B09F4FBC0F092BC02F6
:2030000044E650E061E273E08FE594E00E9420076EE672E086E893E00E94A20B81E293E063
:203020000E94D10E61E273E0CE0101960E942612BE016F5F7F4F8BE994E00E94DF11CE0195
:2030400001960E941812A0909F04B090A004B092B602A092B50264E172E0CE0101960E94D4
:203060002612CE0101960E947D0D8C019093B4028093B302CE0101960E9418120F3FEFEFFA
:203080001E0709F563E172E0CE0101960E942612BE016F5F7F4FCE010E960E941D1261E255
:2030A00073E0CE010E960E947211BC0185E994E00E94C811CE010E960E941812CE01019666
:2030C0000E94181296C0A80160E070E0CE0101960E94990DBE016F5F7F4F8FE894E00E94FF
:2030E000DF11CE0101960E941812B8016F5F7F4FA501CE0101960E94990DBE016F5F7F4FAA
:2031000089E894E00E94DF11CE0101960E9418128FE894E00E9412114B015C017093B802F0
:203120006093B70289E894E00E9412117093030160930201F9E68F16F1E09F0618F416160A
:2031400017064CF163E172E0CE0101960E942612BE016F5F7F4FCE010E960E941D126BE94C
:2031600074E0CE010E960E948B11BC0185E994E00E94C811CE010E960E941812CE0101968B
:203180000E9418120E94DB0D880F991F9093B8028093B70222C066E172E0CE0101960E945E
:2031A0002612BE016F5F7F4FCE010E960E941D126BE974E0CE010E960E948B11BC0185E9B4
:2031C00094E00E94C811CE010E960E941812CE0101960E941812F092BB028091B702909165
:2031E000B80297FD0196959587959093BA028093B9028091BC028823D1F167E772E0CE014C
:2032000001960E94261261EA74E0CE0101960E948B116AE872E00E947211FC014481558199
:203220006081718186E893E00E94880FCE0101960E94181265E974E0CE0101960E941D1296
:2032400061EA74E0CE010E960E941D12BE016F5F7F4FCE010E960E94E10CCE010E960E9419
:203260001812CE0101960E9418121092BC028091BB02882309F483C06EE872E086E893E050
:203280000E94A20B8090B9029090BA02092C000CAA08BB08B7FE0EC06DE286E893E00E942D
:2032A000841244275527BA01481959096A097B092AE003C02AE0B501A40186E893E00E9467
:2032C0003B1260E172E086E893E00E94A20B8091B9029091BA020E94030F0091020110914C
:2032E0000301B801012E000C880B990B0E9475131092BB02A090B702B090B80264E972E094
:20330000CE010E960E942612BE01625F7F4FCE0101960E941D12B501CE0101960E943C11D0
:2033200064E172E00E947211B8010E943C11BC0185E994E00E94C811CE0101960E941812DD
:20334000CE010E960E94181265E974E0CE0101960E941D1261EA74E0CE010E960E941D1272
:20336000BE016F5F7F4FCE010E960E94E10CCE010E960E941812CE0101960E9418120E94DD
:203380008410E8CCCE0101960E94F701892B09F43FCD8B819C81998B888B8D819E81AF816B
:2033A000B8858A8B9B8BAC8BBD8B89859A85AB85BC858E8B9F8BA88FB98FDF86CE868D85EB
:2033C0008A8F33CD80EF91E09093AE048093AD041092AF041092B0041092B1041092B20401
:2033E000109289031092880348EE53E060E070E040938A0350938B0360938C0370938D0393
:2034000024E531E0309387032093860325EC30E0309393032093920324EC30E030939503CC
:203420002093940320EC30E0309397032093960321EC30E0309399032093980322EC30E095
:2034400030939B0320939A0326EC30E030939D0320939C0310929F031092A0031092A10315
:203460001092A20320E52093230421E0209324049093B4048093B3041092B5041092B604EE
:203480001092B7041092B8049093BA048093B9041092BB041092BC041092BD041092BE0436
:2034A0009093C0048093BF041092C1041092C2041092C3041092C4049093C6048093C504E4
:2034C0001092C7041092C8041092C9041092CA049093CC048093CB041092CD041092CE0476
:2034E0001092CF041092D004909326048093250410922704109228041092290410922A041E
:2035000010922C0410922B042AE020932D0490932F0480932E041092300410923104109230
:203520003204109233049093D2048093D1041092D3041092D4041092D5041092D60490938E
:20354000A8048093A7041092A9041092AA041092AB041092AC0461E272E081EA94E00E94A9
:20356000261262E172E08BE994E00E94261262E172E085E994E00E94261262E172E08FE85F
:2035800094E00E94261262E172E089E894E00E942612809158048C30A0F491E0980F909391
:2035A00058048093860490E0FC01EE0FFF1F8E0F9F1FFC01EC5CFB4F88EB9BE09283818399
:2035C00003C08FEF8093860420EF31E0309381042093800489ED809382048093830491E054
:2035E000909384044FE04093850430937B0420937A0480937C0480937D0490937E048FEFD8
:2036000080937F04109262041092610488EE93E0A0E0B0E08093630490936404A09365046B
:20362000B093660488EC91E09093600480935F0488E080936B0430936F0420936E04109214
:20364000700410927104109272041092730410925C0410925B0486E691E090935A0480933A
:20366000590487E190E090935E0480935D0408951F93FC0199278827BC01E8941191103244
:20368000E9F3193010F01E30C8F31B3251F01D3249F4689406C00E946A1B610F711D811D5D
:2036A000911D119110531A30B0F33EF490958095709561957F4F8F4F9F4F1F910895BB273A
:2036C0004A3031F4992322F4BDE2909581959F4F0C94801B592F482F372F262F660F771FB1
:2036E000881F991F660F771F881F991F620F731F841F951F660F771F881F991F0895BB27BE
:20370000FB015527AA27880F991FAA1FA41710F0A41B83955051B9F7A05DAA3308F0A95D8D
:20372000A193009779F7B111B1931192CB010C94991BDC01FC01672F71917723E1F73297D8
:2037400004C07C916D9370836291AE17BF07C8F30895052E97FB1EF400940E94C01B57FD93
:2037600007D00E94121C07FC03D04EF40C94C01B50954095309521953F4F4F4F5F4F089563
:2037800090958095709561957F4F8F4F9F4F08950E94341CA59F900DB49F900DA49F800D2A
:2037A000911D11240895B7FF0C94C81B0E94C81B821B930B08952F923F924F925F926F928E
:2037C0007F928F929F92AF92BF92CF92DF92EF92FF920F931F93CF93DF93CDB7DEB7CA1BEA
:2037E000DB0B0FB6F894DEBF0FBECDBF09942A88398848885F846E847D848C849B84AA8489
:20380000B984C884DF80EE80FD800C811B81AA81B981CE0FD11D0FB6F894DEBF0FBECDBF35
:20382000ED010895A1E21A2EAA1BBB1BFD010DC0AA1FBB1FEE1FFF1FA217B307E407F507A4
:2038400020F0A21BB30BE40BF50B661F771F881F991F1A9469F760957095809590959B0196
:20386000AC01BD01CF010895A29FB001B39FC001A39F700D811D1124911DB29F700D811DBF
:203880001124911D0895991B79E004C0991F961708F0961B881F7A95C9F780950895EE0FA4
:2038A000FF1F0590F491E02D0994CF93DF938230910510F482E090E0E091DD04F091DE047F
:2038C00020E030E0C0E0D0E0309711F14081518148175907C0F04817590761F48281938192
:2038E000209719F09B838A832BC09093DE048093DD0426C02115310519F04217530718F4DF
:203900009A01BE01DF01EF010280F381E02DDCCF2115310509F1281B390B2430310590F4D4
:2039200012968D919C9113976115710521F0FB019383828304C09093DE048093DD04FD011B
:20394000329644C0FD01E20FF31F81939193225031092D933C933AC02091DB043091DC04FC
:20396000232B41F420910C0130910D013093DC042093DB0420910A0130910B01211531050D
:2039800041F42DB73EB740910E0150910F01241B350BE091DB04F091DC04E217F307A0F491
:2039A0002E1B3F0B2817390778F0AC014E5F5F4F2417350748F04E0F5F1F5093DC04409365
:2039C000DB048193919302C0E0E0F0E0CF01DF91CF9108950F931F93CF93DF93009709F485
:2039E0008CC0FC013297138212820091DD041091DE040115110581F420813181820F931F60
:203A00002091DB043091DC042817390779F5F093DC04E093DB0471C0D80140E050E0AE17B4
:203A2000BF0750F412962D913C911397AD012115310509F1D901F3CF9D01DA01338322831B
:203A400060817181860F971F8217930769F4EC0128813981260F371F2E5F3F4F318320836B
:203A60008A819B8193838283452B29F4F093DE04E093DD0442C01396FC93EE931297ED016C
:203A8000499159919E01240F351FE217F30771F480819181840F951F029611969C938E93FB
:203AA0008281938113969C938E931297E0E0F0E0D80112968D919C911397009719F0F801AE
:203AC0008C01F6CF8D919C9198012E5F3F4F820F931F2091DB043091DC042817390769F445
:203AE000309729F41092DE041092DD0402C0138212821093DC040093DB04DF91CF911F917B
:203B00000F910895A0E0B0E0E8E8FDE10C94DF1BEC01009721F4CB010E94551CB8C0FC0123
:203B2000E60FF71F9C0122503109E217F30708F4ACC0D9010D911C91119706171707B0F02E
:203B40000530110508F49FC0C80104978617970708F499C002501109061B170B01931193E4
:203B60006D937C93CF010E94EA1C8DC05B01A01AB10A4C01800E911EA091DD04B091DE04E1
:203B800040E050E0E12CF12C109709F44AC0A815B905D1F56D907C901197630182E0C80E6F
:203BA000D11CCA14DB0480F1A3014A195B096A0182E0C80ED11C1296BC9012971396AC916C
:203BC000B5E0CB16D10440F0B282A38351834083D9016D937C930AC00E5F1F4FC301800F98
:203BE000911FF90191838083EB2DFA2FE114F10431F0D7011396FC93EE93129744C0F093F7
:203C0000DE04E093DD043FC08D919C9111974817590708F4AC017D0112960D90BC91A02D37
:203C2000B3CF8091DB049091DC0488159905E1F446175707C8F480910A0190910B010097AA
:203C400041F48DB79EB740910E0150910F01841B950BE817F907C8F4F093DC04E093DB0416
:203C6000F901718360830FC0CB010E94551C7C01009759F0A801BE010E94511ECE010E947E
:203C8000EA1CC70104C0CE0102C080E090E0CDB7DEB7EEE00C94FB1B81E090E0F8940C9497
:203CA000931EFB01DC0102C001900D9241505040D8F70895FB01DC018D91019080190110C9
:203CC000D9F3990B0895FB01DC0101900D920020E1F70895FB01DC014150504048F0019076
:203CE0000D920020C9F701C01D9241505040E0F70895FB0151915523A9F0BF01DC014D91D6
:203D000045174111E1F759F4CD010190002049F04D9140154111C9F3FB014111EFCF81E06A
:203D200090E00197089510E0CDE5D0E004C0FE010E944F1C2196CE35D107C9F7F894FFCF10
:203D40000004DC0590A2DA1090F00000DF048000000000007B0D7B0D1D077B0D7B0D7B0DB3
:203D60007B0D7B0D7B0D7B0D7B0D7B0D7B0D00000000F40080041D07F300F701DD010A011B
:203D800056076E0AD901E205BE05EB00E0001207000000001B10880FB30F6210E40FC20F2C
:203DA000D60F00000000CA00A1061D071C075805000000007B0D880F1D071C077B0D00001B
:203DC00000007B0D7B0D1D077B0D7B0D7B0D7B0D7B0DC8007B0D7B0D7B0D7B0D7B0D7B0D0F
:203DE0007B0D7B0D7B0D000000007B0D880F1D071C077B0D7B0D7B0D000000007B0D880F0E
:203E00001D071C07000000009A0052021D078800B000B0013001F702C8006B041005840264
:203E2000E704000291012007B800B400000000008B12000000007B0D1700456E20636F751A
:203E4000727320646520726563657074696F6E000D0A003020003120005553420054435022
:203E60000055445000496E697469616C69736174696F6E002E2E2E20696E697469616C699B
:203E8000736174696F6E206465206C6120636F6E6E6578696F6E0052656D697365206120C7
:203EA0007A65726F207465726D696E656500436F6E74656E743A00526573706F6E73652045
:203EC00073656E74207669612000203A2000474F544F200032200000FFFFFFFFFFFFFFFF8B
:203EE000FFFFFFFFFFFFFFFFFFFFFFFFFFFFFFFFFFFFFFFFFFFFFFFFFFFFFFFFFFFFFFFFE2
:203F0000FFFFFFFFFFFFFFFFFFFFFFFFFFFFFFFFFFFFFFFFFFFFFFFFFFFFFFFFFFFFFFFFC1
:203F2000FFFFFFFFFFFFFFFFFFFFFFFFFFFFFFFFFFFFFFFFFFFFFFFFFFFFFFFFFFFFFFFFA1
:203F4000FFFFFFFFFFFFFFFFFFFFFFFFFFFFFFFFFFFFFFFFFFFFFFFFFFFFFFFFFFFFFFFF81
:207E0000112484B714BE81FFF0D085E08093810082E08093C00088E18093C10086E08093FC
:207E2000C20080E18093C4008EE0C9D0259A86E020E33CEF91E0309385002093840096BBAD
:207E4000B09BFECF1D9AA8958150A9F7CC24DD2488248394B5E0AB2EA1E19A2EF3E0BF2E79
:207E6000A2D0813461F49FD0082FAFD0023811F0013811F484E001C083E08DD089C0823404
:207E800011F484E103C0853419F485E0A6D080C0853579F488D0E82EFF2485D0082F10E0A0
:207EA000102F00270E291F29000F111F8ED068016FC0863521F484E090D080E0DECF84364D
:207EC00009F040C070D06FD0082F6DD080E0C81680E7D80618F4F601B7BEE895C0E0D1E0ED
:207EE00062D089930C17E1F7F0E0CF16F0E7DF0618F0F601B7BEE89568D007B600FCFDCF1A
:207F0000A601A0E0B1E02C9130E011968C91119790E0982F8827822B932B1296FA010C016F
:207F200087BEE89511244E5F5F4FF1E0A038BF0751F7F601A7BEE89507B600FCFDCF97BE85
:207F4000E89526C08437B1F42ED02DD0F82E2BD03CD0F601EF2C8F010F5F1F4F84911BD0B8
:207F6000EA94F801C1F70894C11CD11CFA94CF0CD11C0EC0853739F428D08EE10CD085E9AE
:207F80000AD08FE07ACF813511F488E018D01DD080E101D065CF982F8091C00085FFFCCF0A
:207FA0009093C60008958091C00087FFFCCF8091C00084FD01C0A8958091C6000895E0E68F
:207FC000F0E098E1908380830895EDDF803219F088E0F5DFFFCF84E1DECF1F93182FE3DF47
:207FE0001150E9F7F2DF1F91089580E0E8DFEE27FF270994FFFFFFFFFFFFFFFFFFFF040425
:00000001FF
