:200000000C9463000C948B000C948B000C948B000C948B000C948B000C948B000C94AF0488
:200020000C948B000C948B000C948B000C948B000C948B000C948B000C948B000C948B0068
:200040000C9489050C948B000C9457050C9431050C948B000C948B000C948B000C948B00C9
:200060000C948B000C948B0000000000240027002A0000000000230026002900000000083B
:2000800000020100000304070000000000000000010204081020408001020408102001020E
:2000A0000408102000000000250028002B0004040404040404040202020202020303030354
:2000C00003030200510811241FBECFEFD8E0DEBFCDBF11E0A0E0B1E0E0E9F6E102C0059015
:2000E0000D92A03AB107D9F722E0A0EAB1E001C01D92A336B207E1F710E0C3E6D0E004C0FB
:200100002197FE010E944509C236D107C9F70E94D3050C94460B0C94000080E480937C00AA
:2001200080917A00806480937A0080917A0086FDFCCF809178009091790008950895AF924C
:20014000BF92CF92DF92EF92FF920F931F93CF93DF936C017B018B01040F151FEB015E013B
:20016000AE18BF08C017D10759F06991D601ED91FC910190F081E02DC6010995892B79F786
:20018000C501DF91CF911F910F91FF90EF90DF90CF90BF90AF900895FC01538D448D252F70
:2001A00030E0842F90E0821B930B541710F0CF96089501970895FC01918D828D981761F005
:2001C000A28DAE0FBF2FB11D5D968C91928D9F5F9F73928F90E008958FEF9FEF08952FB77B
:2001E000F8948091AD019091AE01A091AF01B091B0012FBF8093CA019093CB01A093CC0156
:20020000B093CD0182EC91E00E94DB0097FF26C02FB7F8948091AD019091AE01A091AF0113
:20022000B091B0012FBF4091CA015091CB016091CC017091CD01841B950BA60BB70B409185
:20024000C6015091C7016091C8017091C90184179507A607B707B0F28FEF9FEF0895FC01BF
:20026000918D828D981731F0828DE80FF11D858D90E008958FEF9FEF0895FC01918D228DDB
:20028000892F90E0805C9F4F821B91098F739927089582EC91E00E943D0121E0892B09F465
:2002A00020E0822F089580E090E0892B29F00E94490181110C9400000895FC01A48DA80FB3
:2002C000B92FB11DA35ABF4F2C91848D90E001968F739927848FA689B7892C93A089B18922
:2002E0008C91837080648C93938D848D981306C00288F389E02D80818F7D80830895EF9208
:20030000FF920F931F93CF93DF93EC0181E0888F9B8D8C8D98131AC0E889F989808185FF81
:2003200015C09FB7F894EE89FF896083E889F98980818370806480839FBF81E090E0DF91B7
:20034000CF911F910F91FF90EF900895F62E0B8D10E00F5F1F4F0F731127E02E8C8D8E113A
:200360000CC00FB607FCFACFE889F989808185FFF5CFCE010E945D01F1CFEB8DEC0FFD2FB6
:20038000F11DE35AFF4FF0829FB7F8940B8FEA89FB8980818062CFCFCF93DF93EC01888D88
:2003A0008823B9F0AA89BB89E889F9898C9185FD03C0808186FD0DC00FB607FCF7CF8C9121
:2003C00085FFF2CF808185FFEDCFCE010E945D01E9CFDF91CF910895833081F028F48130B2
:2003E00099F08230A9F008958730A9F08830C9F08430B1F4809180008F7D03C08091800081
:200400008F7780938000089584B58F7784BD089584B58F7DFBCF8091B0008F778093B000F0
:2004200008958091B0008F7DF9CFCF93DF93EEE7F0E08491E2E9F0E0D491E0EBF0E0C4910C
:20044000CC23A1F081110E94EC01EC2FF0E0EE0FFF1FEE58FF4FA591B491EC91ED2381E0F8
:2004600090E009F480E0DF91CF91089580E090E0FACF1F93CF93DF93282F30E0F901E45886
:20048000FF4F8491F901E057FF4FD491F901E255FF4FC491CC23A9F0162F81110E94EC0153
:2004A000EC2FF0E0EE0FFF1FEC55FF4FA591B4918FB7F894EC91111108C0D095DE23DC931E
:2004C0008FBFDF91CF911F910895DE2BF8CFCF93DF9390E0FC01E057FF4F249182559F4FA1
:2004E000FC0184918823D1F090E0880F991FFC01E859FF4FA591B491FC01EC55FF4FC591D6
:20050000D491623071F49FB7F8943C91822F809583238C93E8812E2B28839FBFDF91CF91AA
:2005200008958FB7F894EC912E2B2C938FBFF6CFCF9380910001893021F08F3F59F1CF91EE
:200540000895E2ECF0E0C491C7FDF9CF61E089E00E946702CC2309F48BC0C23009F0A0C048
:200560008091B10087608093B10087E08093B30086E990E0A0E0B0E08093B6019093B7014D
:20058000A093B801B093B90180917000826080937000D5CF89E080930001E2ECF0E0C49178
:2005A000CF3F69F2C13021F150F0C23009F43EC0C7FDC5CF61E089E00E946702CECF14BC28
:2005C00015BC84B5826084BD85B5816085BDE7EBF0E0E491F0E0EE0FFF1FEC55FF4F8591EA
:2005E0009491E9E9F0E0E491E093B501C0E0AECF10928000109281008091810088608093A7
:20060000810080918100816080938100E7EBF0E0E491F0E0EE0FFF1FEC55FF4F8591949186
:20062000E9E9F0E0E491E093B40190CF1092B0001092B1008091B00082608093B000809100
:20064000B10081608093B100E7EBF0E0E491F0E0EE0FFF1FEC55FF4F859194919093B301A1
:200660008093B201E9E9F0E0E491E093B1016ECF85B5887F856085BD87E087BD86E990E049
:20068000A0E0B0E08093BE019093BF01A093C001B093C10180916E00826080936E004FCF9C
:2006A000C130F1F480918100887F8360809381008CE890E2909389008093880086E990E048
:2006C000A0E0B0E08093BA019093BB01A093BC01B093BD0180916F00826080936F002FCF8A
:2006E000C23021F0C1112BCF8CE8C7CF8CE83ECF3FB7F8948091A1019091A201A091A301D2
:20070000B091A40126B5A89B05C02F3F19F00196A11DB11D3FBFBA2FA92F982F8827BC0184
:20072000CD01620F711D811D911D42E0660F771F881F991F4A95D1F708958F929F92AF923D
:20074000BF92CF92DF92EF92FF924B015C010E9478036B017C010E9478036C197D098E09F6
:200760009F09683E734081059105A8F321E0821A9108A108B10888EEC80E83E0D81EE11C87
:20078000F11C81149104A104B10429F7FF90EF90DF90CF90BF90AF909F908F9008950E94B1
:2007A00015020197E1F36AE070E080E090E00E949D030E941502892BE1F30C949802FC0192
:2007C00001900020E9F73197AF01481B590BBC0182EC91E00C949F00CF93DF930E94DF0316
:2007E000EC0189E191E00E94DF038C0F9D1FDF91CF9108958F929F92AF92BF92CF92DF9233
:20080000EF92FF920F931F93CF93DF93CDB7DEB7A1970FB6F894DEBF0FBECDBF6C01990FF1
:20082000EE08FF08F7FE47C06DE282EC91E00E947F018C0122273327A9012C193D094E09B3
:200840005F0919A2CE0181967C019AE0892E912CA12CB12CCA01B901A50194010E941409FB
:20086000605DF70162937F01211531054105510589F790E080E0309719F0CF010E94DF03D2
:20088000080F191F89E191E00E94DF03800F911FA1960FB6F894DEBF0FBECDBFDF91CF911D
:2008A0001F910F91FF90EF90DF90CF90BF90AF909F908F900895A701960119A28E010F5D9E
:2008C0001F4F8AE0C82ED12CE12CF12CCA01B901A70196010E941409605DF80162938F0165
:2008E000211531054105510589F7309729F0CF010E94DF038C01C6CF10E000E0C3CFFC01BB
:2009000080819181009711F00C94E70908950F931F93CF93DF93EC0188819981009759F0E7
:200920002A813B812617370730F081E0DF91CF911F910F9108958B016F5F7F4F0E94700A53
:20094000009759F0998388831B830A832C813D81232B59F7FC011082E8CF80E0E7CF1F924F
:200960000F920FB60F9211242F933F934F935F936F937F938F939F93AF93BF93EF93FF93C3
:200980008091B6019091B701A091B801B091B901892B8A2B8B2BD1F19091B101E091B201F9
:2009A000F091B3018081892780838091B6019091B701A091B801B091B901181619061A065B
:2009C0001B069CF48091B6019091B701A091B801B091B9010197A109B1098093B6019093F7
:2009E000B701A093B801B093B901FF91EF91BF91AF919F918F917F916F915F914F913F91B6
:200A00002F910F900FBE0F901F90189580910001E2ECF0E0E4919FEF90930001E13051F086
:200A200030F0E23069F060E00E943902DECF10926E00F9CF90916F009D7F90936F00F3CF89
:200A4000909170009D7F9093700091E09093B0009091B100987F94609093B1001092B3000C
:200A6000E2CF1F920F920FB60F9211242F933F934F935F936F937F938F939F93AF93BF9374
:200A8000EF93FF9382EC91E00E945D01FF91EF91BF91AF919F918F917F916F915F914F9193
:200AA0003F912F910F900FBE0F901F9018951F920F920FB60F9211242F938F939F93EF93BA
:200AC000FF93E091D201F091D3018081E091D801F091D90182FD1BC090818091DB018F5FFF
:200AE0008F732091DC01821741F0E091DB01F0E0EE53FE4F958F8093DB01FF91EF919F919E
:200B00008F912F910F900FBE0F901F9018958081F4CF1F920F920FB60F9211242F933F9349
:200B20008F939F93AF93BF938091AD019091AE01A091AF01B091B0013091A00123E0230FD4
:200B40002D3758F50196A11DB11D2093A0018093AD019093AE01A093AF01B093B0018091F2
:200B6000A1019091A201A091A301B091A4010196A11DB11D8093A1019093A201A093A301DF
:200B8000B093A401BF91AF919F918F913F912F910F900FBE0F901F90189526E8230F0296BE
:200BA000A11DB11DD2CFCF93DF93CDB7DEB76A970FB6F894DEBF0FBECDBF789484B58260AC
:200BC00084BD84B5816084BD85B5826085BD85B5816085BD80916E00816080936E0010923B
:200BE000810080918100826080938100809181008160809381008091800081608093800060
:200C00008091B10084608093B1008091B00081608093B00080917A00846080937A008091F8
:200C20007A00826080937A0080917A00816080937A0080917A00806880937A001092C1006F
:200C400062E082E00E94670261E08DE00E94670260E08DE00E943902E091D201F091D30109
:200C600082E08083E091CE01F091CF011082E091D001F091D1018FEC80831092DA01E091EB
:200C8000D601F091D70186E08083E091D401F091D501808180618083E091D401F091D5019C
:200CA000808188608083E091D401F091D501808180688083E091D401F091D50180818F7D15
:200CC00080838FB7F8944091AD015091AE016091AF017091B0018FBF80E291E00E94EC032B
:200CE0008CE191E00E94EC0388EE93E0A0E0B0E08093C6019093C701A093C801B093C901BE
:200D000081E08093AC018E010F5F1F4F80E0C82E80E0D82E8091AC01882309F4A7C01C8A18
:200D20001B8A1E8A1D8A188E1F8A70E060E0CE0143960E9487042B893C89811152C02115B8
:200D4000310519F0C9010E94E7091C8A1B8A188E1F8A1E8A1D8A82EC91E00E943D01181622
:200D600019060CF07FC061E08DE00E9439021A8219821C821B821E821D8270E060E0C80184
:200D80000E94870429813A81811133C02115310519F0C9010E94E7091A8219821E821D82F5
:200DA0001C821B820E94EF0097FD2BC0898F1A8EED80FE808FEFE81AF80AB701C8010E9498
:200DC0008704882379F329813A818D819E81BE01675E7F4F820F931F0E943F0BFE82ED826F
:200DE000E1CF188E1F8A6BE171E0C9010E943F0BB2CF1E821D826BE171E0C9010E943F0B8E
:200E0000D1CF8B899C89009709F4AEC069817A816115710509F4A6C04D895E892D813E8199
:200E20004217530708F49EC00E943F0B8D819E81988F8F8B1E821D82C8010E947F048F8906
:200E4000988D892B79F0EB88FC886AE271E0C7010E94360B892B09F098C00E94980281E06F
:200E60008093AB01CE0143960E947F048091AB01882309F46BC0E090A901F090AA010E946F
:200E8000CF030E948D008090A5019090A601092C000CAA08BB089C01990F440B550B2819E9
:200EA00039094A095B09A4EBB0E00E94D2082091A7013091A801032E000C440B550B2819AE
:200EC00039094A095B090E94B308DA01C9018A559109A109B1098E199F091C8A1B8A1E8AF8
:200EE0001D8A188E1F8A4AE0B8010E947E08F80101900020E9F731977F01E01AF10AB70172
:200F0000CE0143960E9487042B893C898111C2C02115310519F0C9010E94E7091C8A1B8A53
:200F2000188E1F8A1E8A1D8A4F89588D6B897C8982EC91E00E949F0089E191E00E94DF03DE
:200F40001092AB01CE0143960E947F04C114D10409F4E0CE0E944901882309F4DBCE0E9442
:200F60000000D8CE0E94E70989819A819C8B8B8B8B819C819E8B8D8B8D819E81988F8F8BFF
:200F80001A8219821C821B8255CF6DE271E0C7010E94360B892B09F065CF84E991E00E940F
:200FA000EC030E94980268EE73E080E090E00E949D030E94CF030E948D009093A6018093CB
:200FC000A50180E391E00E94DF038091A5019091A6010E94FA030E94CF030E948D0090932F
:200FE000A8018093A70184E491E00E94DF038091A7019091A8010E94FA030E94CF030E94F8
:201000008D007C0188E591E00E94DF03C7010E94FA038090A5019090A601092C000CAA088D
:20102000BB089701FF0C440B550B281939094A095B09A4EBB0E00E94D2082091A7013091AC
:20104000A801032E000C440B550B281939094A095B090E94B30849015A018AE5881A910815
:20106000A108B1088CE691E00E94DF03C4010E94FA030E94980268EE73E080E090E00E94EC
:201080009D0380E991E00E94EC039092AA018092A901E8CEF88EEF8AB801C9010E943F0B98
:2010A00043CFE2ECF1E01382128288EE93E0A0E0B0E084839583A683B7838BE091E09183EB
:2010C000808385EC90E09587848784EC90E09787868780EC90E0918B808B81EC90E0938BFC
:2010E000828B82EC90E0958B848B86EC90E0978B868B118E128E138E148E0895BB274A3046
:2011000031F4992322F4BDE2909581959F4F0C948A08BB27FB015527AA27880F991FAA1F9B
:20112000A41710F0A41B83955051B9F7A05DAA3308F0A95DA193009779F7B111B193119210
:20114000CB010C94A308DC01FC01672F71917723E1F7329704C07C916D9370836291AE174F
:20116000BF07C8F30895052E97FB1EF400940E94CA0857FD07D00E94140907FC03D04EF470
:201180000C94CA0850954095309521953F4F4F4F5F4F089590958095709561957F4F8F4F50
:2011A0009F4F08950E943609A59F900DB49F900DA49F800D911D112408952F923F924F922F
:2011C0005F926F927F928F929F92AF92BF92CF92DF92EF92FF920F931F93CF93DF93CDB798
:2011E000DEB7CA1BDB0B0FB6F894DEBF0FBECDBF09942A88398848885F846E847D848C8482
:201200009B84AA84B984C884DF80EE80FD800C811B81AA81B981CE0FD11D0FB6F894DEBF67
:201220000FBECDBFED010895A1E21A2EAA1BBB1BFD010DC0AA1FBB1FEE1FFF1FA217B30758
:20124000E407F50720F0A21BB30BE40BF50B661F771F881F991F1A9469F760957095809596
:2012600090959B01AC01BD01CF010895A29FB001B39FC001A39F700D811D1124911DB29F3F
:20128000700D811D1124911D0895EE0FFF1F0590F491E02D09940F931F93CF93DF938230FA
:2012A000910510F482E090E0E0916102F091620230E020E0B0E0A0E0309799F42115310529
:2012C00009F44AC0281B390B24303105D8F58A819B816115710589F1FB0193838283FE0186
:2012E00011C0408151810281138148175907E0F04817590799F4109761F012960C931297B0
:2013000013961C933296CF01DF91CF911F910F9108950093610210936202F4CF21153105F4
:2013200051F04217530738F0A901DB019A01BD01DF01F801C1CFEF01F9CF909362028093F7
:201340006102CDCFFE01E20FF31F819391932250310939832883D7CF20915F023091600266
:20136000232B41F420910301309104013093600220935F0220910101309102012115310553
:2013800041F42DB73EB74091050150910601241B350BE0915F02F0916002E217F307A0F4C5
:2013A0002E1B3F0B2817390778F0AC014E5F5F4F2417350748F04E0F5F1F50936002409309
:2013C0005F02819391939FCFF0E0E0E09CCFCF93DF930097E9F0FC01329713821282A091A7
:2013E0006102B0916202ED0130E020E01097A1F420813181820F931F20915F0230916002E0
:201400002817390709F061C0F0936002E0935F02DF91CF910895EA01CE17DF07E8F54A81AF
:201420005B819E0141155105B1F7E901FB83EA8349915991C40FD51FEC17FD0761F4808120
:2014400091810296840F951FE90199838883828193819B838A83F0E0E0E012968D919C91C5
:2014600013970097B9F52D913C911197CD010296820F931F20915F023091600228173907ED
:2014800039F6309751F51092620210926102B0936002A0935F02BCCFD383C2834081518113
:2014A000840F951FC817D90761F44E5F5F4F88819981480F591F518340838A819B819383B0
:2014C00082832115310509F0B0CFF0936202E09361029ECFFD01DC01C0CF13821282D7CFC0
:2014E000B0E0A0E0E6E7FAE00C94DF088C01009751F4CB010E944B098C01C801CDB7DEB714
:20150000E0E10C94FB08FC01E60FF71F9C0122503109E217F30708F49DC0D901CD91DC9125
:201520001197C617D70798F0C530D10530F3CE0104978617970708F3C61BD70B2297C19362
:20154000D1936D937C93CF010E94E709D6CF5B01AC1ABD0A4C018C0E9D1EA0916102B091B1
:201560006202512C412CF12CE12C109731F580915F02909160028815990509F05CC0461685
:20158000570608F058C08091010190910201009741F48DB79EB74091050150910601841BE4
:2015A000950BE817F90708F055C0F0936002E0935F02F90171836083A0CF8D919C91119793
:2015C00012966C90129713967C901397A815B90559F56C0142E0C40ED11CCA14DB0420F17A
:2015E000AC014A195B09DA011296159780F06282738251834083D9016D937C93E114F10495
:2016000071F0D7011396FC93EE93129776CF22968C0F9D1FF90191838083F301EFCFF09395
:201620006202E093610269CF4816590608F42C017D01D3019ACFCB010E944B097C010097C1
:2016400049F0AE01B8010E942D0BC8010E94E709870153CF10E000E050CFFB01DC0102C080
:2016600001900D9241505040D8F70895FB01DC018D91019080190110D9F3990B0895FB0172
:20168000DC0101900D920020E1F70895F894FFCFFF000063028000000000007F019F00CC7F
:2016A00000CC013D01DB002F010D0A0046696E20436F6E6E6578696F6E004D0A00430A006B
:2016C00056616C6575722065787472656D652041203A200056616C657572206578747265EF
:2016E0006D652042203A200056616C65757220766572746963616C65203A200056616C65EC
:201700007572206465206C6120766572746963616C6520656E20646567726573203A200026
:2017200046696E2043616C6962726174696F6E00FFFFFFFFFFFFFFFFFFFFFFFFFFFFFFFF14
:20174000FFFFFFFFFFFFFFFFFFFFFFFFFFFFFFFFFFFFFFFFFFFFFFFFFFFFFFFFFFFFFFFFA9
:20176000FFFFFFFFFFFFFFFFFFFFFFFFFFFFFFFFFFFFFFFFFFFFFFFFFFFFFFFFFFFFFFFF89
:2017800088CF4B815C81640F751FAB85BC856A9FC0016B9F900D7A9F900D112469817A8190
:2017A000680F791F0684F785E02DEF80F88409851A859D014F855889898D9A8D0995D8CF1A
:2017C000570CC3948ACF6A960FB6F894DEBF0FBECDBFDF91CF911F910F91FF90EF90DF9012
:2017E000CF90BF90AF909F908F907F906F905F904F903F902F9008958F929F92AF92CF92B3
:20180000EF92FF920F931F93CF93DF93EC01262F898D9A8D009709F051C06A30D1F41D866C
:201820001C868D8948E0849F900111248E859F85820F931F9F878E8781E090E0DF91CF9189
:201840001F910F91FF90EF90CF90AF909F908F9008956D3089F3CC88AD888F898823C1F08B
:201860008C859D8536E0C39E800D911D1124488559854817590764F44E855F851D861C8690
:2018800038E0A39EC0011124840F951F9F878E87EA88FB88088919894E855F856C857D85A5
:2018A000CE010E94D7092C898C859D8546E0249F800D911D11249D878C87BECF6A3069F4DB
:2018C0001D861C86FC013896E4912D898E859F85E29F800D911D1124ADCF6D3009F4ACCF14
:2018E000FC0134963491631708F4A6CF3296E491E61708F4A1CFFC01329685909490462F58
:20190000431B342F47E0349F800C911C1124F401329634913196E4913323A9F1EE2399F155
:20192000CC88F4013596E491AD884F89442301F10E2E000CFF0BE30FF11DCE9EA001CF9EEC
:20194000500D11246C857D85460F571F68857985641775076CF44E855F851D861C86FC01FC
:201960003896E491AE9E400D511D11245F874E87EA88FB88088919894E855F856C857D855B
:20198000CE010E94D709F4013496E4912C898C859D85E29F800D911D11248DCF6F927F927B
:2019A0008F929F92AF92BF92CF92DF92EF92FF920F931F93CF93DF93EC016B015A01390149
:2019C0004801E881F9810284F385E02D0995E881F9810288F389E02D87019301A501B601C3
:2019E000CE010995A501480D591D41505109E881F9810288F389E02D9301B601CE01099570
:201A0000E881F9810088F189E02D9401A501B601CE010995C60CD71CB60161507109E88165
:201A2000F9810088F189E02D9401A501CE010995E881F9810688F789E02DCE01DF91CF91D8
:201A40001F910F91FF90EF90DF90CF90BF90AF909F908F907F906F9009946F927F928F92A0
:201A60009F92AF92BF92CF92DF92EF92FF920F931F93CF93DF935C01EB016A014901380160
:201A80008701DC01ED91FC916217730719F5641675062CF0962D872D3A01C92ED82E96017E
:201AA000261937092F5F3F4F048CF58DE02DA301BE01C5010995DF91CF911F910F91FF90F6
:201AC000EF90DF90CF90BF90AF909F908F907F906F9008954615570591F42617370724F067
:201AE000892D4B01C22FD82F9E01281939092F5F3F4F068CF78DE02DA601B401DACF028400
:201B0000F385E02D0995D501ED91FC910488F589E02D83019401A601BE01C5010995D501F1
:201B2000ED91FC910688F789E02DC501DF91CF911F910F91FF90EF90DF90CF90BF90AF902F
:201B40009F908F907F906F900994EF92FF920F931F93DC011A960D911C911B9718962D9130
:201B60003C911997ED91FC9100A0F1A1E02D7B0150E040E070E060E009951F910F91FF90C5
:201B8000EF9008954F925F926F927F928F929F92AF92BF92CF92DF92EF92FF920F931F9329
:201BA000CF93DF936C012B015A0139014801DC01ED91FC910284F385E02D0995E201640CF6
:201BC000751CD601ED91FC91C615D7055CF40088F189E02D87019401A501BE01C601099595
:201BE0002196EFCF0688F789E02DC601DF91CF911F910F91FF90EF90DF90CF90BF90AF9004
:201C00009F908F907F906F905F904F9009948F929F92AF92BF92CF92DF92EF92FF920F9393
:201C20001F93CF93DF93EC015B014A016901E881F9810284F385E02D099595012C0D3D1D6B
:201C400021503109E881F9810488F589E02D78018401A401B501CE010995E881F9810688A8
:201C6000F789E02DCE01DF91CF911F910F91FF90EF90DF90CF90BF90AF909F908F90099493
:201C80008F929F92AF92BF92CF92DF92EF92FF920F931F93CF93DF93EC015B014A01690156
:201CA0007801E881F9810284F385E02D0995C80CD91C860101501109E881F9810488F58977
:201CC000E02D9501A401B501CE010995E881F9810688F789E02DCE01DF91CF911F910F91AC
:201CE000FF90EF90DF90CF90BF90AF909F908F900994EF92FF920F931F93DC01ED91FC9141
:201D000000A0F1A1E02D09951F910F91FF90EF9008950F931F93DC01ED91FC91068CF78D99
:201D2000E02D09951F910F9108950F931F93DC01ED91FC91048CF58DE02D09951F910F91C2
:201D40000895DC01ED91FC910084F185E02D09943F924F925F926F927F928F929F92AF9212
:201D6000BF92CF92DF92EF92FF920F931F93CF93DF935C017B014A016901390187E0680E61
:201D8000711C93E0759467949A95E1F72B01400E511E10E000E0312CD0E0C0E0CE0187700C
:201DA0009927330C892B59F4FE0183E0F595E7958A95E1F7E00FF11FE80DF91D349037FEC1
:201DC0000AC021E030E0A701B5016C0F7D1F83E393E00E94A10E2196CC16DD06F9F68FEFA0
:201DE000E81AF80A060D171DE414F504A9F6DF91CF911F910F91FF90EF90DF90CF90BF90BD
:201E0000AF909F908F907F906F905F904F903F9008952F923F924F925F926F927F928F9256
:201E20009F92AF92BF92CF92DF92EF92FF920F931F93CF93DF9300D000D000D0CDB7DEB74A
:201E40003C016A013E832D83FC82EB825801A41AB50AB7FE03C0B194A194B1088D809E80D2
:201E6000861A970A97FE03C09194819491088A149B045CF0902F812F0D811E819D838E83A0
:201E80009C2D8D2D6B01692F782F0C151D055CF09D818E817E836D83692F782F902F812FB9
:201EA0008601C92ED82E1601201A310A2B012D813E81421A530A57FE03C051944194510895
:201EC000710137FE03C03FEFE31AF30AF594E7948D819E81861797075CF5A1E0B0E0BA8365
:201EE000A983C016D1064CF1D301ED91FC910484F585E02D2B813C81A8016D817E818A1441
:201F00009B041CF04D815E81B801C3010995E418F508F7FE0AC02D813E8189819A81280FCD
:201F2000391F3E832D83E20CF31C0F5F1F4FD9CF2FEF3FEF3A832983D4CF26960FB6F894F2
:201F4000DEBF0FBECDBFDF91CF911F910F91FF90EF90DF90CF90BF90AF909F908F907F90A4
:201F60006F905F904F903F902F900895089520912C02260F3327331F21323105ECF42091F2
:201F80005002FC0190E080E0243069F082E00895A0912C022191AC01445F5D4FA40FB52FD2
:201FA000B11D2C930196861798F380912C02680F60932C0280E0089581E00895109250020F
:201FC00081E0809352021092510261E082E10E94AA0661E083E10E94AA06E9EBF0E08081B2
:201FE0008E7F808380818D7F808388E48093B80085E48093BC000895CF93DF9391E090934D
:202000000B028823B9F0C091B800D091BA008091BC008A7B8093BC0060E082E10E94AA06A5
:2020200060E083E10E94AA060E94DE0FD093BA00C093B800DF91CF910895E091850280917D
:202040008402E81730F4F0E0EA51FE4F808190E008958FEF9FEF0895909185028091840289
:202060002FEF3FEF981748F4E92FF0E0EA51FE4F208130E09F5F90938502C90108958091E8
:20208000840290918502891B990B0895CF92DF92EF92FF920F931F93CF93DF937C01CB01D8
:2020A0008A0120918902222389F0EB016B01C40ED51ECC15DD0569F06991D701ED91FC9185
:2020C0000190F081E02DC7010995F3CF642F0E94B70FC801DF91CF911F910F91FF90EF90D7
:2020E000DF90CF900895CF93DF931F92CDB7DEB76983209189022223F9F0209186022032F6
:2021000058F021E030E0FC013383228390E080E00F90DF91CF91089580918702E82FF0E0B1
:20212000EA53FE4F998190838F5F809387028093860281E090E0ECCF61E0CE0101960E94EE
:20214000B70FF7CFCF92DF92EF92FF920F931F93CF93DF93D091860281E0D13208F09CC046
:20216000C09188020E9409076B017C018091500281116CC082E08093500281E08093520239
:202180008FEF80934F0210927402D0937302A6ECB1E0E3E5F2E080E0D8138DC010927502FF
:2021A00080917502CC0FC82BC093750280915102813009F084C0109251020E9409076B019A
:2021C0007C01809175028093BB008091070290910802A0910902B0910A02892B8A2B8B2B3F
:2021E000A1F00E94090700910702109108022091090230910A026C197D098E099F09061767
:2022000017072807390708F442C08091BC0083FDD8CF85EC8093BC000E9409076B017C0164
:2022200080915002823009F44CC080914F028F3F09F469C080914F02803209F466C08091E2
:202240004F02803309F463C084E026C08091070290910802A0910902B0910A02892B8A2BD9
:202260008B2B09F483CF0E94090700910702109108022091090230910A026C197D098E0937
:202280009F09061717072807390708F06FCF809106020E94FC0F85E0109287021092860236
:2022A00010928902DF91CF911F910F91FF90EF90DF90CF9008959D9191938F5F6DCF85EE69
:2022C000A9CF8091070290910802A0910902B0910A02892B8A2B8B2B09F4A2CF0E94090779
:2022E00000910702109108022091090230910A026C197D098E099F0906171707280739071C
:2023000008F08ECFC4CF80E0C7CF82E0C5CF83E0C3CFEF92FF920F931F93CF93DF937C013D
:20232000C62F8091500390915103009709F459C02091540331E030938902209388021092DC
:20234000870210928602DC01ED91FC910190F081E02D60E009958701EE24E394F12CD1E016
:20236000C1508091500390915103CF3F91F1B0E2EB16F104D8F00E94A210809150039091BA
:20238000510320915403D0938902209388021092870210928602DC01ED91FC910190F08177
:2023A000E02D60E00995EE24E394F12C8091500390915103F8016491DC01ED91FC9101904C
:2023C000F081E02D0995BFEFEB1AFB0A0F5F1F4FC7CFDF91CF911F910F91FF90EF900C94E9
:2023E000A210E0916003F09161039081809166038095892380838701C15008F438C0F8019D
:20240000849120914E0330914F03232B29F00E94B7090F5F1F4FF0CF28E030E040E8E0917D
:202420005C03F0915D0390916403582F5423D9F05081952B9083E0915E03F0915F039081A3
:2024400050916503952B9083E0915E03F0915F035081909165039095952390834695215015
:202460003109E9F6D6CF508190959523E3CFDF91CF911F910F91FF90EF9008951F93CF935F
:20248000DF93EC018D8D9E8D009721F1162F29A131E0309389022093880210928702109277
:2024A0008602DC01ED91FC910190F081E02D60E009958D8D9E8DDC01ED91FC910190F08190
:2024C000E02D612F09958D8D9E8DDF91CF911F910C94A210ADA5BEA59C918BA980958923D3
:2024E0008C938B8D9C8D892B31F0862FDF91CF911F910C94B70928E030E080E8A9A5BAA5E5
:2025000099A9462F4823C1F04C91942B9C93ABA5BCA59C914AA9942B9C93ABA5BCA54C91D0
:202520009AA9909594239C9386952150310931F7DF91CF911F9108954C9190959423E6CFD4
:20254000DF92EF92FF920F931F93CF93DF938091500390915103892B09F498C020916803D2
:202560003091690340916A0350916B0360E074E284EF90E00E94011B20513109410951091B
:2025800056954795379527952093B80065E084E89AE00E94891160913703615083E393E065
:2025A0000E943E122091390330913A03C901079697FD079633E0959587953A95E1F72091F5
:2025C000370330913803829F8001839F100D929F100D1124C0915203D091530380915003A0
:2025E000909151030C0F1D1F009709F48FC02091540331E03093890220938802109287025D
:2026000010928602DC01ED91FC910190F081E02D60E40995EE24E394F12CDD24D394809198
:202620005003909151030C171D0709F446C0B0E2EB16F104D8F00E94A2108091500390915F
:20264000510320915403D0928902209388021092870210928602DC01ED91FC910190F081B5
:20266000E02D60E40995EE24E394F12C80915003909151036991DC01ED91FC910190F08108
:20268000E02D0995BFEFEB1AFB0AC9CF80914E0390914F03892B31F080917103909172037A
:2026A0000E94BE09E0916203F091630390818091670380958923808369CF0E94A210809107
:2026C000500390915103892B09F461C020916C0330916D0340916E0350916F0360E074E2E4
:2026E00084EF90E00E94011B205131094109510956954795379527952093B800DF91CF9160
:202700001F910F91FF90EF90DF900895E0916003F0916103808190916603892B80830C1731
:202720001D0769F2899120914E0330914F03232B19F00E94B709F3CF28E030E040E8E091BF
:202740005C03F0915D0390916403582F5423D9F05081952B9083E0915E03F0915F03908180
:2027600050916503952B9083E0915E03F0915F0350819091650390959523908346952150F2
:202780003109E9F6CCCF508190959523E3CFE0916203F0916303808190916703892B808325
:2027A000ADCF1F93CF93DF93EC01162F8D8D9E8D892BB1F12DA93EA94FA958AD60E074E2FA
:2027C00084EF90E00E94011B205131094109510956954795379527952093B80066EA1111DD
:2027E00067EACE010E943E128D8D9E8D892B41F129AD3AAD4BAD5CAD60E074E284EF90E065
:202800000E94011B205131094109510956954795379527952093B800DF91CF911F910895D4
:202820008B8D9C8D892B21F08EAD9FAD0E94BE09EFA5F8A990818CA9809589238083CECFC6
:20284000EFA5F8A980819CA9892B8083E5CF90E080E008952091390330913A03C9010796D3
:2028600097FD079623E0959587952A95E1F72091370330913803829FA001839F500D929FEE
:20288000500D112470E060E080915203909153030C94531CCF93DF93FC0101900020E9F7C8
:2028A0003197AF01481B590BBC0183E393E00E947405EC0142E050E066E571E083E393E074
:2028C0000E9474058C0F9D1FDF91CF9108950E944E1C85ED8093BC00809107029091080287
:2028E000A0910902B0910A020796A11DB11D23E0B695A795979587952A95D1F72091BC0060
:2029000024FD03C010925002089540910702509108026091090270910A02452B462B472B21
:2029200069F30097A105B10541F025E32A95F1F700000197A109B109E1CF809106020C9403
:20294000FC0F1F920F920FB60F9211242F933F934F935F936F937F938F939F93AF93BF931B
:20296000EF93FF938AE892E00E94F205FF91EF91BF91AF919F918F917F916F915F914F91F6
:202980003F912F910F900FBE0F901F9018951F920F920FB60F9211242F938F939F93EF93BB
:2029A000FF93E0919A02F0919B028081E091A002F091A10282FD1BC090818091A3028F5F13
:2029C0008F732091A402821741F0E091A302F0E0E657FD4F958F8093A302FF91EF919F9149
:2029E0008F912F910F900FBE0F901F9018958081F4CF1F920F920FB60F9211242F933F934B
:202A00008F939F93AF93BF938091770290917802A0917902B0917A023091760223E0230FD2
:202A20002D3758F50196A11DB11D209376028093770290937802A0937902B0937A028091F0
:202A40007B0290917C02A0917D02B0917E020196A11DB11D80937B0290937C02A0937D02E3
:202A6000B0937E02BF91AF919F918F913F912F910F900FBE0F901F90189526E8230F0296E4
:202A8000A11DB11DD2CF1F920F920FB60F9211242F933F934F935F936F937F938F939F934C
:202AA000AF93BF93EF93FF938091B900887F803609F44AC0F0F5883209F4A7C018F580311F
:202AC00009F49BC0B8F4882309F4F9C0883009F494C0FF91EF91BF91AF919F918F917F9188
:202AE0006F915F914F913F912F910F900FBE0F901F901895883109F488C0803251F7809304
:202B00004F0214C0803409F49DC040F48033B9F38833F9F680934F0285ECB0C0803509F44E
:202B200085C0883509F496C0883499F60E946914D0CF883909F48CC038F5883729F050F4E4
:202B4000883611F0803729F683E08093500210924E0257C0883809F47BC0803919F080389D
:202B600009F0B7CF80914E02803208F071C0E0914E0281E08E0F80934E028091BB00F0E0DC
:202B8000E25DFD4F80833DC0803B39F0E0F4803A09F479C0883A09F09CCF84E08093500213
:202BA00010922D0210922C02E0918202F0918302099580912C0281110FC081E080932C0299
:202BC00010920C0209C0803C09F4A6CF883C09F4A3CF883B09F07DCFE0912D0281E08E0F75
:202BE00080932D02F0E0E45FFD4F80818093BB0090912D0280912C0229C080917502809352
:202C0000BB0085EC8093BC0064CF9091740280917302981758F5E091740281E08E0F809375
:202C20007402F0E0ED5AFD4F8081E9CFE091740281E08E0F809374028091BB00F0E0ED5AB1
:202C4000FD4F808390917402809173029817C8F285E8D8CFE091740281E08E0F809374021D
:202C60008091BB00F0E0ED5AFD4F80838091520281115CCF81E08093510284EA8093BC00FC
:202C80001092500226CF85EC8093BC001092500280914E02803230F4E0914E02F0E0E25D10
:202CA000FD4F108260914E0270E0E0918002F09181028EE292E0099510924E020ACF1092C1
:202CC0004F0234CFEAE8F2E01382128248EE53E060E070E044835583668377838AE091E07D
:202CE0009183808385EC90E09587848784EC90E09787868780EC90E0918B808B81EC90E0CA
:202D0000938B828B82EC90E0958B848B86EC90E0978B868B118E128E138E148EA7E2B3E0C8
:202D200013961C921E92129714964D935D936D937C9317978CE191E011969C938E93E3E311
:202D4000F3E01382128220E830E03583248380E490E0978386833187208793878287168AE7
:202D6000158614861786168681E0858B848B2FEF3FEF338B228B318B208B878B108E128EF7
:202D8000118E8EE291E091838083148E138EB68FA58F10A2178E8FEF84A385A386A387A369
:202DA00080A780E89AE1A6E0B0E085AB96ABA7ABB0AF80EA96E8A1E0B0E081AF92AFA3AF15
:202DC000B4AF80E586AF17AE0895789484B5826084BD84B5816084BD85B5826085BD85B539
:202DE000816085BD80916E00816080936E0010928100809181008260809381008091810012
:202E0000816080938100809180008160809380008091B10084608093B1008091B00081602C
:202E20008093B00080917A00846080937A0080917A00826080937A0080917A00816080935A
:202E40007A0080917A00806880937A001092C10060E082E00E94D80660E084E10E94D8064E
:202E600061E088E00E94D80661E089E00E94D806E0919A02F0919B0282E08083E091960266
:202E8000F09197021082E0919802F091990280E180831092A202E0919E02F0919F0286E01C
:202EA0008083E0919C02F0919D02808180618083E0919C02F0919D02808188608083E0916F
:202EC0009C02F0919D02808180688083E0919C02F0919D0280818F7D808380915203909182
:202EE0005303892B11F10E942A142091390330913A038091370390913803213231050CF0CF
:202F00002EC1B9016052710977FF02C06F5F7F4F759567958357910997FD019600E210E091
:202F200023E730E04EE955E02DC12091390330913A03C901079697FD0796B3E095958795C1
:202F4000BA95E1F72091370330913803AC01429FC001439F900D529F900D11240E94291BEC
:202F60009093530380935203892B09F0BCCF0E942A1481E0809347038093480381E090E06B
:202F80009093460380934503909344038093430383E290E09093400380933F03CAE0D0E0BD
:202FA000D0934203C093410389E591E00E944A1480E290E09093400380933F0384E190E091
:202FC000909342038093410383E691E00E944A14D0934003C0933F0382E390E090934203E0
:202FE000809341038EE691E00E944A140E94A01260ED77E080E090E00E942E070E942A1416
:203000003EE5232E3AE0332E4AE4442E4AE0542E52E3852E912C60E0662E60E0762E79E1BE
:20302000A72EB12C56E450937C0080917A00806480937A0080917A0086FDFCCF80917800E7
:2030400000917900102F082FE2E7FAE08491F101C490F201D490DD2009F477C281110E9434
:203060008106ED2DF0E0EE0FFF1FE25CF54FA591B4918C91C82291E080E009F490E0C92E8B
:20308000D82ED0934003C0933F03909242038092410381E891E00E944A140130F2E01F072F
:2030A0000CF456C2D0934003C0933F03D0934203C093410385E991E00E944A14EE24E39416
:2030C000F12C0EE010E02AE730E045E150E066E070E083E393E00E94CE0CD0934003C0939A
:2030E0003F03B0924203A092410384EA91E00E944A140E94A01260E088E0CA94CD2809F06A
:203100006EC261E088E00E94AA060E942A14D0934003C0933F03D0934203C093410381EBBE
:2031200091E00E944A140E94A01260ED77E080E090E00E942E0764EF71E080E090E00E9469
:203140002E070E942A146114710409F46BCF0E94DE05882309F466CF0E94000063CFB90149
:203160006054710977FF02C06F5F7F4F759567958255910997FD019600E410E022E530E0C0
:203180004EE757E0959587950E94A80E82E0809355038091500390915103892B09F4DFC02F
:2031A0008DE380935403109285021092840210928702109286020E94DE0F82E795E09093FF
:2031C00083028093820283E795E0909381028093800280915B0387FD1EC061E00E94D80627
:2031E00061E080915B030E94AA0661E070E080E090E00E942E0760E080915B030E94AA0694
:203200006AE070E080E090E00E942E0761E080915B030E94AA068091500390915103892BDE
:2032200009F45CC1209168033091690340916A0350916B0360E074E284EF90E00E94011B67
:20324000205131094109510956954795379527952093B80064E080E995E00E948911609116
:203260003903615083E393E00E943E1264E08CE895E00E9489118091550364E1813009F4D1
:2032800060E183E393E00E943E1264E088E895E00E9489118FE88093700380913703909154
:2032A00038038038910509F032C18091390390913A038034910509F03AC180915503813096
:2032C00009F423C18FEC80937003C2E16AED83E393E00E943E126C2F83E393E00E943E12E1
:2032E00061E883E393E00E943E126091700383E393E00E943E1269ED83E393E00E943E126A
:203300008091550361EF813009F462E283E393E00E943E1266E082E895E00E9489118091C5
:20332000500390915103892B09F405C120916C0330916D0340916E0350916F0360E074E2D2
:2033400084EF90E00E94011B205131094109510956954795379527952093B80008CE61E0AC
:20336000809159030E94D80661E080915A030E94D80680915903082E000C990BFC01E85B9E
:20338000F54FE491F0E0EE0FFF1FEC56FA4F259134913093610320936003FC01E45AF54FC7
:2033A000E491E093660380915A03082E000C990BFC01E85BF54FE491F0E0EE0FFF1FEC5642
:2033C000FA4FA591B491B0936303A0936203FC01E45AF54FE491E09367038C91E82BEC9368
:2033E00080914E0390914F03892B09F434C0CFB7F89480917F02811127C0E2E5FAE0849180
:20340000E6E6FAE09491E82FF0E0EE0FFF1FE858FA4FA591B491EC91E92321F461E08AE092
:203420000E94AA0661E08AE00E94D8068CB580618CBD8CB580648CBD61E08DE00E94D80608
:2034400061E08BE00E94D80680917F028F5F80937F02CFBFBECE61E0809157030E94D806E6
:2034600061E0809158030E94D80680915703082E000C990BFC01E85BF54FE491F0E0EE0F08
:20348000FF1FEC56FA4F2591349130935D0320935C03FC01E45AF54FE491E09364038091F4
:2034A0005803082E000C990BFC01E85BF54FE491F0E0EE0FFF1FEC56FA4FA591B491B0939E
:2034C0005F03A0935E03FC01E45AF54FE491E09365038C91E095E823EC937BCE80914E0360
:2034E00090914F03892B31F080917103909172030E94BE09E0916203F09163039081809121
:203500006703809589238083A5CE8FE9DCCE8036910569F48091390390913A03409739F490
:2035200080915503813029F08FEA80937003C2E0CDCE80E1FACFE0916203F0916303808134
:2035400090916703892B808312CDD12CC12C99CD0115124009F4EFCDEE24E394F12C0EE045
:2035600010E02AE730E046E050E066E070E083E393E00E94CE0CD0934003C0933F03D0935B
:203580004203C093410385E991E00E944A14D0934003C0933F03B0924203A092410384EACA
:2035A00091E00E944A140E94A012CA94CD28A9F461E089E00E94AA060E942A14D0934003D4
:2035C000C0933F03D0934203C093410381EB91E00E944A140E94A012AECD60E089E00E9420
:2035E000AA06A9CD8EE291E090933403809333038091520390915303009711F00C94C51B2C
:203600000895A1E21A2EAA1BBB1BFD010DC0AA1FBB1FEE1FFF1FA217B307E407F50720F0A4
:20362000A21BB30BE40BF50B661F771F881F991F1A9469F760957095809590959B01AC011B
:20364000BD01CF010895EE0FFF1F0590F491E02D09940F931F93CF93DF938230910510F4EC
:2036600082E090E0E0917503F091760330E020E0B0E0A0E0309799F42115310509F44AC0AE
:20368000281B390B24303105D8F58A819B816115710589F1FB0193838283FE0111C0408117
:2036A00051810281138148175907E0F04817590799F4109761F012960C93129713961C9306
:2036C0003296CF01DF91CF911F910F9108950093750310937603F4CF2115310551F04217A5
:2036E000530738F0A901DB019A01BD01DF01F801C1CFEF01F9CF9093760380937503CDCF85
:20370000FE01E20FF31F819391932250310939832883D7CF2091730330917403232B41F4D4
:203720002091020130910301309374032093730320910001309101012115310541F42DB7B3
:203740003EB74091040150910501241B350BE0917303F0917403E217F307A0F42E1B3F0B3F
:203760002817390778F0AC014E5F5F4F2417350748F04E0F5F1F5093740340937303819319
:2037800091939FCFF0E0E0E09CCFCF93DF930097E9F0FC01329713821282A0917503B0917F
:2037A0007603ED0130E020E01097A1F420813181820F931F209173033091740328173907E2
:2037C00009F061C0F0937403E0937303DF91CF910895EA01CE17DF07E8F54A815B819E01A6
:2037E00041155105B1F7E901FB83EA8349915991C40FD51FEC17FD0761F48081918102960E
:20380000840F951FE90199838883828193819B838A83F0E0E0E012968D919C91139700974A
:20382000B9F52D913C911197CD010296820F931F20917303309174032817390739F630972A
:2038400051F51092760310927503B0937403A0937303BCCFD383C28340815181840F951F8A
:20386000C817D90761F44E5F5F4F88819981480F591F518340838A819B81938382832115D8
:20388000310509F0B0CFF0937603E09375039ECFFD01DC01C0CF13821282D7CF81E090E01C
:2038A000F8940C945A1CDC0101C06D9341505040E0F7089515E0C6E4D5E004C0FE010E947A
:2038C000231B2196C734D107C9F7F894FFCF0000770380000000000014067405A10561066C
:2038E000D205B005C4050000000073104610271471053F102C101D1000000000FC0B7405B1
:203900002714B60F07097105A10E790E950E890E090F7105C209D1137708C008C20DA50DAC
:203920002D0DCE0C0D0A004C452052454D454445004B4F45545A494E4755450044656D617D
:20394000727261676520656E20636F757273004170707579657A20706F7572207365727663
:203960006972004341505441494E204D4F5247414E004A414745524D4549535445520053B3
:2039800065727669636520656E20636F7572732E2E2E0000FFFFFFFFFFFFFFFFFFFFFFFFEC
:2039A000FFFFFFFFFFFFFFFFFFFFFFFFFFFFFFFFFFFFFFFFFFFFFFFFFFFFFFFFFFFFFFFF27
:2039C000FFFFFFFFFFFFFFFFFFFFFFFFFFFFFFFFFFFFFFFFFFFFFFFFFFFFFFFFFFFFFFFF07
:2039E000FFFFFFFFFFFFFFFFFFFFFFFFFFFFFFFFFFFFFFFFFFFFFFFFFFFFFFFFFFFFFFFFE7
:203A00004287168A158614861786168691E0958B948B2FEF3FEF338B228B318B208B978BDF
:203A2000108E128E118E01E311E011830083148E138ED68FC58F10A2178E8FEF84A385A39D
:203A400086A387A310A6A0E5A6AF17AEEAEAF3E0138212827583648357834683718760878D
:203A600053874287168A1586148617861686958B948B338B228B318B208B978B108E128E24
:203A8000118E11830083148E138ED68FC58F10A2178E84A385A386A387A390A7A6AF17AE2A
:203AA000DF91CF911F910F910895789484B5826084BD84B5816084BD85B5826085BD85B5EE
:203AC000816085BD80916E00816080936E0010928100809181008260809381008091810025
:203AE000816080938100809180008160809380008091B10084608093B1008091B000816040
:203B00008093B00080917A00846080937A0080917A00826080937A0080917A00816080936D
:203B20007A0080917A00806880937A001092C10061E085E00E942D0761E082E00E942D07B3
:203B400061E084E00E942D0761E083E00E942D0762E086E00E942D0762E087E00E942D0773
:203B600062E088E00E942D07E0911103F091120382E08083E0910D03F0910E031082E0912F
:203B80000F03F09110038FEC808310921903E0911503F091160386E08083E0911303F091AF
:203BA0001403808180618083E0911303F0911403808188608083E0911303F09114038081DE
:203BC00080688083E0911303F091140380818F7D80836CE38AEE93E00E946A186DE38AEAA9
:203BE00093E00E946A1844244A9423E0522E612C712CC1E0D0E034E1832E912C98EE292E8A
:203C000093E0392E8EE00E948C077C01AAE8B2E0FD0122E0EE3EF20719F0E192F192F9CF9A
:203C20006091880270918902EA17FB0729F08D919D91680F791FF8CF82E390E09093EF0256
:203C40008093EE027093890260938802072E000C880B990B0E949E2120E030E048E452E40B
:203C60000E94F4205B016C01A0928402B0928502C0928602D0928702809182029091830244
:203C80008E159F0524F4F0928302E09282028091800290918102E816F90624F4F092810277
:203CA000E092800264E670E080E090E00E94C607C601B5010E9466219B01AC01ACEDB0E01F
:203CC0000E94B820A30192010E94992069013093020120930101C901C2978B3A910508F07D
:203CE0004EC10A97889790F460E082E00E94D30661E083E00E94D30660E084E00E94D30616
:203D00000E9497143092750220927402C60188974497A0F460E082E00E94D30660E083E0E0
:203D20000E94D30661E084E00E94D3060E94971484EF91E0909375028093740294E6C91A37
:203D4000D10828E7C216D104A0F461E082E00E94D30660E083E00E94D30660E084E00E94B8
:203D6000D3060E9497148CED95E0909375028093740288E00E94AA0690937F0280937E021B
:203D80008FE00E948C0790937D0280937C020E94DC168AEE93E00E944C188AEA93E00E943E
:203DA0004C1881E08093FE038093FF03D093FD03C093FC03D093FB03C093FA038093BE03DB
:203DC0008093BF03D093BD03C093BC03D093BB03C093BA031092F7031092F6031092F903D3
:203DE0001092F8036CE571E08AEE93E00E9483176091010170910201072E000C880B990BEE
:203E000097FFCAC00E94D31769E571E08AEE93E00E9483170E94DC1680912F0490E09093C5
:203E20007B0280937A0280912E0490E0909379028093780280912D0490E090937702809337
:203E4000760211E01093FE031093FF03D093FD03C093FC03D093FB03C093FA031092F703AE
:203E60001092F6038AE090E09093F9038093F80361E671E08AEE93E00E94831780917A0254
:203E800090917B020E94F4176FE571E08AEE93E00E94831780917802909179020E94F41737
:203EA0006FE571E08AEE93E00E94831780917602909177020E94F4178AEE93E00E948F1337
:203EC00082E090E09093F7038093F6039092F9038092F80368E671E08AEE93E00E94FE177B
:203EE00080E590E09093F7038093F6039092F9038092F8036DE671E08AEE93E00E94FE1753
:203F000080917C0290917D02811522E092070CF047C080917E0290917F02892B31F58AEABD
:203F200093E00E944C181092B7031092B6031092B9031092B8031093BE031093BF0364E782
:203F400071E08AEA93E00E94FE1769E871E08AEA93E00E94FE1764E971E08AEA93E00E940B
:203F6000FE178AEA93E00E948F138AEE93E00E948F1364EF71E080E090E00E94C60780E08F
:203F800090E0892B09F43ECE0E94DE05882309F435CE0E94000032CE4AE00E948D1734CFAF
:203FA0008115924011F380917E0290917F02892BE1F6EE24E394F12C0EE110E030E020E042
:203FC00050E040E070E060E08AEA93E00E94240F20E530E04EE150E070E060E08AEA93E05A
:203FE0000E94240F8AE590E09093B7038093B6031092B9031092B8036CE971E08AEA93E01C
:204000000E94FE178AE590E09093B7038093B60389E190E09093B9038093B80362EA71E03D
:204020008AEA93E00E94FE178FE00E948C0790937D0280937C0209E110E025E030E050E0EC
:2040400040E070E060E08AEA93E00E94240F0AE010E02AE030E049E150E065E070E08AEA9D
:2040600093E00E94240F0FE010E02FE030E04AE050E06AE070E08AEA93E00E94240F02E068
:2040800010E024E130E04FE050E06FE070E08AEA93E00E94240F0CE110E029E130E042E048
:2040A00050E064E170E08AEA93E00E94240F0FE010E02EE130E04CE150E069E170E08AEA16
:2040C00093E00E94240F04E110E023E230E04FE050E06EE170E08AEA93E00E94240F05E00F
:2040E00010E028E230E044E150E063E270E08AEA93E00E94240F35CF81E391E09093AB0366
:204100008093AA038091C9039091CA03009711F00E94CC2281E391E09093EB038093EA0306
:204120008091090490910A04009711F00C94CC220895052E97FB1EF400940E94B02057FD3E
:2041400007D00E94C32007FC03D04EF40C94B02050954095309521953F4F4F4F5F4F0895CF
:2041600090958095709561957F4F8F4F9F4F08950E94E520A59F900DB49F900DA49F800D8B
:20418000911D11240895A1E21A2EAA1BBB1BFD010DC0AA1FBB1FEE1FFF1FA217B307E40742
:2041A000F50720F0A21BB30BE40BF50B661F771F881F991F1A9469F76095709580959095CD
:2041C0009B01AC01BD01CF010895A29FB001B39FC001A39F700D811D1124911DB29F700D58
:2041E000811D1124911D08950E9408210C94F0210E94E92158F00E94E22140F029F45F3FA1
:2042000029F00C94D92151110C9424220C94DF210E94012268F39923B1F3552391F3951BD7
:20422000550BBB27AA2762177307840738F09F5F5F4F220F331F441FAA1FA9F335D00E2E8D
:204240003AF0E0E832D091505040E695001CCAF72BD0FE2F29D0660F771F881FBB1F2617B7
:2042600037074807AB07B0E809F0BB0B802DBF01FF2793585F4F3AF09E3F510578F00C9417
:20428000D9210C9424225F3FE4F3983ED4F3869577956795B795F7959F5FC9F7880F911D2E
:2042A0009695879597F90895E1E0660F771F881FBB1F621773078407BA0720F0621B730BF3
:2042C000840BBA0BEE1F88F7E09508950E946D216894B1110C94242208950E94092288F036
:2042E0009F5798F0B92F9927B751B0F0E1F0660F771F881F991F1AF0BA95C9F714C0B130E7
:2043000091F00E942322B1E008950C942322672F782F8827B85F39F0B93FCCF38695779518
:204320006795B395D9F73EF490958095709561957F4F8F4F9F4F0895E89409C097FB3EF4C2
:2043400090958095709561957F4F8F4F9F4F9923A9F0F92F96E9BB279395F69587957795D5
:204360006795B795F111F8CFFAF4BB0F11F460FF1BC06F5F7F4F8F4F9F4F16C0882311F04B
:2043800096E911C0772321F09EE8872F762F05C0662371F096E8862F70E060E02AF09A9586
:2043A000660F771F881FDAF7880F9695879597F9089597F99F6780E870E060E008959FEFB6
:2043C00080EC089500240A941616170618060906089500240A94121613061406050608953A
:2043E000092E0394000C11F4882352F0BB0F40F4BF2B11F460FF04C06F5F7F4F8F4F9F4F79
:20440000089557FD9058440F551F59F05F3F71F04795880F97FB991F61F09F3F79F0879543
:204420000895121613061406551FF2CF4695F1DF08C0161617061806991FF1CF869571056C
:20444000610508940895E894BB2766277727CB0197F90895EE0FFF1F0590F491E02D09945C
:204460000F931F93CF93DF938230910510F482E090E0E0913704F091380430E020E0B0E0ED
:20448000A0E0309799F42115310509F44AC0281B390B24303105D8F58A819B8161157105E4
:2044A00089F1FB0193838283FE0111C0408151810281138148175907E0F04817590799F416
:2044C000109761F012960C93129713961C933296CF01DF91CF911F910F9108950093370479
:2044E00010933804F4CF2115310551F04217530738F0A901DB019A01BD01DF01F801C1CF4A
:20450000EF01F9CF9093380480933704CDCFFE01E20FF31F8193919322503109398328834D
:20452000D7CF2091350430913604232B41F420910501309106013093360420933504209154
:204540000301309104012115310541F42DB73EB74091070150910801241B350BE09135042B
:20456000F0913604E217F307A0F42E1B3F0B2817390778F0AC014E5F5F4F2417350748F0C8
:204580004E0F5F1F5093360440933504819391939FCFF0E0E0E09CCFCF93DF930097E9F032
:2045A000FC01329713821282A0913704B0913804ED0130E020E01097A1F420813181820F05
:2045C000931F20913504309136042817390709F061C0F0933604E0933504DF91CF910895D5
:2045E000EA01CE17DF07E8F54A815B819E0141155105B1F7E901FB83EA8349915991C40F22
:20460000D51FEC17FD0761F4808191810296840F951FE90199838883828193819B838A8305
:20462000F0E0E0E012968D919C9113970097B9F52D913C911197CD010296820F931F20917B
:204640003504309136042817390739F6309751F51092380410923704B0933604A0933504C7
:20466000BCCFD383C28340815181840F951FC817D90761F44E5F5F4F88819981480F591FD9
:20468000518340838A819B81938382832115310509F0B0CFF0933804E09337049ECFFD0185
:2046A000DC01C0CF13821282D7CF81E090E0F8940C946123DC0101C06D9341505040E0F7A8
:2046C000089515E0C6E4D5E004C0FE010E942A222196C734D107C9F7F894FFCFFF3C000059
:2046E00000390480000000000014067405A1056106D205B005C40500000000B40887089429
:2047000014710580086D085E0800000000050C74059414931478117105AA0E820E9E0E924E
:204720000E240F7105CB093913E8103111CB0DAE0D360DD70C0D0A0042504D3A004865755D
:2047400072653A004D656E7500477261706865004166666963686572206C65732076616C7D
:204760006575727300506172616D6574726573004C616E67756573005A6F6F6D3A00740044
:204780004D656E7500477261706865004166666963686572206C65732076616C657572738F
:2047A00000506172616D6574726573004C616E677565730044617465005A6F6F6D3A007445
:2047C0000000FFFFFFFFFFFFFFFFFFFFFFFFFFFFFFFFFFFFFFFFFFFFFFFFFFFFFFFFFFFFF7
:2047E000FFFFFFFFFFFFFFFFFFFFFFFFFFFFFFFFFFFFFFFFFFFFFFFFFFFFFFFFFFFFFFFFD9
:2048000032166AE571E088E492E00E942316F3E08F0E911CA814B90409F0A3CF35E0232E90
:20482000312C412C512C8E010F5F1F4F3801D30111964C91119750E06C9170E0CC24C394C9
:20484000D12C20E1E22EF12C00E110E020E43AE081EF92E00E947C0FB3E06B0E711C8614FC
:20486000970429F70E94611468EC70E080E090E00E941806FE0131965F01D5011196BC9142
:20488000BF8F4B2F50E0F501608170E0D12CC12C80E1E82EF12C00E110E020E43AE081EF1C
:2048A00092E00E947C0FD50112968C91BF8D8B0FF50181832091FB023091FC0282171306BF
:2048C00011F10CF1C090F902D090FA020D2C000CEE08FF08C114D104E104F10439F00E94A1
:2048E0000826A70196010E9460266B01D501CC9211961C920E940826A20191010E94602601
:204900006F5FF5016283F3E0AF0EB11C6A147B0409F0B3CF88CF80910C0390910D03892BBD
:2049200031F080912F03909130030E94B709E0912003F09121039081809125038095892319
:20494000808331CDE0912003F0912103808190912503892B808351CD80910C0390910D03AD
:20496000892B31F080912F03909130030E94B709E0912003F09121039081809125038095D1
:204980008923808359CDE0912003F0912103808190912503892B808379CD80910C03909181
:2049A0000D03892B31F080912F03909130030E94B709E0912003F091210390818091250396
:2049C00080958923808381CDE0912003F0912103808190912503892B8083ACCD80910C03F2
:2049E00090910D03892B31F080912F03909130030E94B709E0912003F0912103908180915D
:204A00002503809589238083ACCDE0912003F0912103808190912503892B8083D7CD102F14
:204A200054CCA4014C195D090F8D18A10A191B091EA30DA3222733272E193F093AA329A3FE
:204A40001CA70BA7B5016150710978AF6FABBAA6A9A690E080E029A43AA41FA618AA19AA4B
:204A60001AAA412C512C320187010F2C000C220B330B0BAB1CAB2DAB3EAB8C01990F220B7B
:204A8000330B09AF1AAF2BAF3CAF6DA17EA1072E000C880B990B21966CAF7DAF8EAF9FAF64
:204AA0002197CA01550FAA0BBB0B25968CAF9DAFAEAFBFAF2597AFA9B8ADA215B3050CF49F
:204AC00061CBC301B20129AD3AAD4BAD5CAD0E9460268601020F131F6FA578A989A99AA9D9
:204AE00021962CAD3DAD4EAD5FAD21970E946026B601620F731F25962CAD3DAD4EAD5FAD16
:204B00002597420E531E641E751E8FA598A9A9A9BAA92BA93CA94DA95EA9820F931FA41F1D
:204B2000B51F8FA798ABA9ABBAAB601771072CF0962F872FB801092F182F061B170B9801D5
:204B40002F5F3F4F01E010E0A10181EF92E00E94820E3FEF231A330AAECF82E391E0909394
:204B6000F2028093F1028091100390911103009711F00C94802708958F929F92AF92BF9282
:204B8000CF92DF92EF92FF92CF93DF93EC01688179818A819B81611571058105910521F449
:204BA00064E279ED8BE597E02DE133EF41E050E00E94602649015A019B01AC01A7EAB1E4A5
:204BC0000E947F266B017C01ACEEB4EFA50194010E948D26C60ED71EE81EF91EF7FE06C037
:204BE00081E0C81AD108E10880E8F80AC882D982EA82FB82C701B6019F77DF91CF91FF90C4
:204C0000EF90DF90CF90BF90AF909F908F9008958F929F92AF92BF92CF92DF92EF92FF9206
:204C200060910001709101018091020190910301611571058105910521F464E279ED8BE50D
:204C400097E02DE133EF41E050E00E94602649015A019B01AC01A7EAB1E40E947F266B016D
:204C60007C01ACEEB4EFA50194010E948D26C60ED71EE81EF91EF7FE06C081E0C81AD1082D
:204C8000E10880E8F80AC0920001D0920101E0920201F0920301C701B6019F77FF90EF906C
:204CA000DF90CF90BF90AF909F908F900895609300017093010180930201909303010895DA
:204CC000052E97FB1EF400940E94772657FD07D00E94922607FC03D04EF40C94772650956B
:204CE0004095309521953F4F4F4F5F4F089590958095709561957F4F8F4F9F4F08950E94DF
:204D0000B426A59F900DB49F900DA49F800D911D11240895B7FF0C947F260E947F26821BB9
:204D2000930B0895A1E21A2EAA1BBB1BFD010DC0AA1FBB1FEE1FFF1FA217B307E407F507DF
:204D400020F0A21BB30BE40BF50B661F771F881F991F1A9469F760957095809590959B0181
:204D6000AC01BD01CF010895A29FB001B39FC001A39F700D811D1124911DB29F700D811DAA
:204D80001124911D0895991B79E004C0991F961708F0961B881F7A95C9F7809508950E94EA
:204DA000B426332312F48A1B9B0B0C94D9260E94B426B7FF0895821B930B0895EE0FFF1F11
:204DC0000590F491E02D09940F931F93CF93DF938230910510F482E090E0E0913303F091A1
:204DE000340330E020E0B0E0A0E0309799F42115310509F44AC0281B390B24303105D8F5B7
:204E00008A819B816115710589F1FB0193838283FE0111C0408151810281138148175907B5
:204E2000E0F04817590799F4109761F012960C93129713961C933296CF01DF91CF911F91FE
:204E40000F9108950093330310933403F4CF2115310551F04217530738F0A901DB019A0106
:204E6000BD01DF01F801C1CFEF01F9CF9093340380933303CDCFFE01E20FF31F81939193DA
:204E80002250310939832883D7CF2091310330913203232B41F420910601309107013093B7
:204EA00032032093310320910401309105012115310541F42DB73EB740910801509109011A
:204EC000241B350BE0913103F0913203E217F307A0F42E1B3F0B2817390778F0AC014E5F9D
:204EE0005F4F2417350748F04E0F5F1F5093320340933103819391939FCFF0E0E0E09CCFBA
:204F0000CF93DF930097E9F0FC01329713821282A0913303B0913403ED0130E020E01097DA
:204F2000A1F420813181820F931F20913103309132032817390709F061C0F0933203E093A7
:204F40003103DF91CF910895EA01CE17DF07E8F54A815B819E0141155105B1F7E901FB831B
:204F6000EA8349915991C40FD51FEC17FD0761F4808191810296840F951FE90199838883DA
:204F8000828193819B838A83F0E0E0E012968D919C9113970097B9F52D913C911197CD015C
:204FA0000296820F931F20913103309132032817390739F6309751F51092340310923303CF
:204FC000B0933203A0933103BCCFD383C28340815181840F951FC817D90761F44E5F5F4F83
:204FE00088819981480F591F518340838A819B81938382832115310509F0B0CFF093340348
:20500000E09333039ECFFD01DC01C0CF13821282D7CF81E090E0F8940C941528DC0101C069
:205020006D9341505040E0F7089515E0CCE5D5E004C0FE010E94DE262196CD35D107C9F7C6
:20504000F894FFCF0100000000003503800000000000EC064C0679063907AA0688069C065A
:205060000000000034120712FE1587050012ED11DE1100000000F50B4C06FE156411000950
:205080008705750F720E8E0E820EB7108705BB09C2157008B908BB0D9E0D260DC70C0D0A9D
:2050A000007363726F6C6C0048656C6C6F2C20776F726C642100307800783A200020793A8B
:2050C00020002064793A2000FFFFFFFFFFFFFFFFFFFFFFFFFFFFFFFFFFFFFFFFFFFFFFFF71
:2050E000FFFFFFFFFFFFFFFFFFFFFFFFFFFFFFFFFFFFFFFFFFFFFFFFFFFFFFFFFFFFFFFFD0
:205100000B0330910C032817390739F6309751F510920E0310920D03B0930C03A0930B03FE
:20512000BCCFD383C28340815181840F951FC817D90761F44E5F5F4F88819981480F591F0E
:20514000518340838A819B81938382832115310509F0B0CFF0930E03E0930D039ECFFD0110
:20516000DC01C0CF13821282D7CF81E090E0F8940C94C128DC0101C06D9341505040E0F778
:20518000089515E0CCE7D5E004C0FE010E948A272196CD37D107C9F7F894FFCF0100000051
:2051A00000000F0380000000000030079006BD067D07EE06CC06E0060000000072124512C2
:2051C0003C16A7053E122B121C1200000000390C90063C16A2114409A705B90FB60ED20ED1
:2051E000C60EF510A705FF090016B408FD08FF0DE20D6A0D0B0D0D0A0000FFFFFFFFFFFFB0
:20520000FFFFFFFFFFFFFFFFFFFFFFFFFFFFFFFFFFFFFFFFFFFFFFFFFFFFFFFFFFFFFFFFAE
:20522000FFFFFFFFFFFFFFFFFFFFFFFFFFFFFFFFFFFFFFFFFFFFFFFFFFFFFFFFFFFFFFFF8E
:20524000FFFFFFFFFFFFFFFFFFFFFFFFFFFFFFFFFFFFFFFFFFFFFFFFFFFFFFFFFFFFFFFF6E
:20526000FFFFFFFFFFFFFFFFFFFFFFFFFFFFFFFFFFFFFFFFFFFFFFFFFFFFFFFFFFFFFFFF4E
:207800000C94343C0C94513C0C94513C0C94513C0C94513C0C94513C0C94513C0C94513C1D
:207820000C94513C0C94513C0C94513C0C94513C0C94513C0C94513C0C94513C0C94513CE0
:207840000C94513C0C94513C0C94513C0C94513C0C94513C0C94513C0C94513C0C94513CC0
:207860000C94513C0C94513C11241FBECFEFD8E0DEBFCDBF11E0A0E0B1E0ECE9FFE702C07E
:2078800005900D92A230B107D9F712E0A2E0B1E001C01D92AD30B107E1F70E942D3D0C94CC
:2078A000CC3F0C94003C982F9595959595959595905D8F708A307CF0282F295A8091C000B5
:2078C00085FFFCCF9093C6008091C00085FFFCCF2093C6000895282F205DF0CF982F8091CF
:2078E000C00085FFFCCF9093C6000895EF92FF920F931F93EE24FF2487018091C00087FD7B
:2079000017C00894E11CF11C011D111D81E4E81682E4F8068FE0080780E0180770F3E09106
:207920000401F091050109958091C00087FFE9CF8091C6001F910F91FF90EF9008950E949A
:20794000763C982F8091C00085FFFCCF9093C60091362CF490330CF09053892F08959755DB
:20796000892F08951F930E949F3C182F0E949F3C1295107F810F1F9108951F93182F882308
:2079800021F00E94763C1150E1F71F9108951F93182F0E94763C803249F0809103018F5FC1
:2079A000809303018530C1F01F9108958091C00085FFFCCF84E18093C6008091C00085FF4A
:2079C000FCCF1093C6008091C00085FFFCCF80E18093C6001F910895E0910401F0910501CF
:2079E00009951F9108950E94763C803241F0809103018F5F80930301853081F00895809177
:207A0000C00085FFFCCF84E18093C6008091C00085FFFCCF80E18093C6000895E0910401AC
:207A2000F09105010995089540E951E08823A1F02D9A28EE33E0FA013197F1F72150304072
:207A4000D1F72D9828EE33E0FA013197F1F721503040D1F7815061F708953F924F925F92B3
:207A60006F927F928F929F92AF92BF92CF92DF92EF92FF920F931F93CF93DF93000080E1A3
:207A80008093C4001092C50088E18093C10086E08093C2005098589A259A81E00E94143D43
:207AA00024E1F22E9EE1E92E85E9D82E0FE0C02E10E1B12EAA24A394B1E49B2EA6E58A2E44
:207AC000F2E57F2EE0E26E2E79E4572E63E5462E50E5352E0E94763C8033B1F18133B9F187
:207AE000803409F46FC0813409F476C0823409F485C0853409F488C0803531F1823521F128
:207B0000813511F1853509F485C0863509F48DC0843609F496C0843709F403C1853709F46A
:207B200072C1863709F466C0809103018F5F80930301853079F6E0910401F0910501099559
:207B40000E94763C803351F60E94F33CC3CF0E94763C803249F78091C00085FFFCCFF0928C
:207B6000C6008091C00085FFFCCF9092C6008091C00085FFFCCF8092C6008091C00085FFEA
:207B8000FCCF7092C6008091C00085FFFCCF6092C6008091C00085FFFCCF5092C6008091A1
:207BA000C00085FFFCCF4092C6008091C00085FFFCCF3092C6008091C00085FFFCCFB09214
:207BC000C60088CF0E94763C863808F4BDCF0E94763C0E94F33C7ECF0E94763C803809F473
:207BE0009CC0813809F40BC1823809F43CC1883909F48FC080E00E94C73C6CCF84E10E949F
:207C0000BD3C0E94F33C66CF85E00E94BD3C0E94F33C60CF0E94763C809306010E94763CA3
:207C2000809307010E94F33C55CF0E94763C803309F41DC183E00E94BD3C80E00E94C73C4F
:207C400049CF0E94763C809309020E94763C8093080280910C028E7F80930C020E94763C88
:207C6000853409F415C18091080290910902892B89F000E010E00E94763CF801E85FFE4F53
:207C800080830F5F1F4F80910802909109020817190788F30E94763C803209F045CF8091E0
:207CA0000C0280FF01C16091060170910701660F771F7093070160930601A0910802B091E8
:207CC00009021097C9F0E8E0F1E09B01AD014E0F5F1FF999FECF32BD21BD819180BDFA9A6C
:207CE000F99A2F5F3F4FE417F50799F76A0F7B1F70930701609306018091C00085FFFCCF16
:207D0000F092C6008091C00085FFFCCFB092C600E1CE83E00E94C73CDDCE82E00E94C73C8A
:207D2000D9CE0E94763C809309020E94763C809308028091060190910701880F991F909306
:207D40000701809306010E94763C853409F4A6C080910C028E7F80930C020E94763C80323E
:207D600009F0B8CE8091C00085FFFCCFF092C600609108027091090261157105B9F140E05F
:207D800050E080910C02A82FA170B82FB27011C0BB2309F45CC0E0910601F0910701319613
:207DA000F0930701E09306014F5F5F4F46175707E8F4AA2369F3F999FECF209106013091CA
:207DC000070132BD21BDF89A90B58091C00085FFFCCF9093C6002F5F3F4F30930701209354
:207DE00006014F5F5F4F4617570718F38091C00085FDE5CE8091C00085FFF8CFE0CE81E029
:207E00000E94C73C67CE0E94763C803209F08CCE8091C00085FFFCCFF092C6008091C000F6
:207E200085FFFCCFE092C6008091C00085FFFCCFD092C6008091C00085FFFCCFC092C6003B
:207E40008091C00085FFFCCFB092C60043CEE0910601F091070194918091C00085FFFCCFA3
:207E60009093C6009CCF80E10E94C73C33CE0E94763C0E94763C182F0E94763C112309F433
:207E800083C0113009F484C08FE00E94C73C22CE80910C02816080930C02E5CE80910C0226
:207EA000816080930C0259CF809107018823880F880B8A2180930B0280910601909107019E
:207EC000880F991F90930701809306018091080280FF09C0809108029091090201969093AA
:207EE000090280930802F894F999FECF1127E0910601F0910701C8E0D1E0809108029091A1
:207F00000902103091F40091570001700130D9F303E000935700E895009157000170013067
:207F2000D9F301E100935700E895099019900091570001700130D9F301E000935700E8954C
:207F40001395103498F011270091570001700130D9F305E000935700E8950091570001707A
:207F60000130D9F301E100935700E8953296029709F0C7CF103011F00296E5CF11248091F8
:1E7F8000C00085FFB9CEBCCE8EE10E94C73CA2CD85E90E94C73C9ECDF894FFCF8000B3
:00000001FF
