:200000000C945D000C9485000C9485000C9485000C9485000C9485000C9485000C948500E0
:200020000C9485000C9485000C9485000C94A7020C9485000C9485000C9485000C94850074
:200040000C945D020C9485000C942B020C9405020C9485000C9485000C9485000C94850074
:200060000C9485000C9485000000000800020100000304070000000000000000000000001D
:20008000250028002B0000000000240027002A000404040404040404020202020202030341
:2000A000030303030102040810204080010204081020010204081020630311241FBECFEF81
:2000C000D8E0DEBFCDBF11E0A0E0B1E0E6E4FBE002C005900D92A631B107D9F721E0A6E1BB
:2000E000B1E001C01D92A53EB207E1F710E0CDE5D0E004C02197FE010E949B05CC35D107A3
:20010000C9F70E94C0030C94A1050C940000AF92BF92CF92DF92EF92FF920F931F93CF93A8
:20012000DF936C017B018B01040F151FEB015E01AE18BF08C017D10759F06991D601ED9172
:20014000FC910190F081E02DC6010995892B79F7C501DF91CF911F910F91FF90EF90DF9017
:20016000CF90BF90AF900895FC01538D448D252F30E0842F90E0821B930B541710F0CF96B5
:20018000089501970895FC01918D828D981761F0A28DAE0FBF2FB11D5D968C91928D9F5F8E
:2001A0009F73928F90E008958FEF9FEF0895FC01918D828D981731F0828DE80FF11D858D36
:2001C00090E008958FEF9FEF0895FC01918D228D892F90E0805C9F4F821B91098F739927B4
:2001E000089580E291E00E94E50021E0892B09F420E0822F089580E090E0892B29F00E94C9
:20020000F10081110C9400000895FC01A48DA80FB92FB11DA35ABF4F2C91848D90E00196A3
:200220008F739927848FA689B7892C93A089B1898C91837080648C93938D848D981306C0A3
:200240000288F389E02D80818F7D80830895EF92FF920F931F93CF93DF93EC0181E0888F3F
:200260009B8D8C8D98131AC0E889F989808185FF15C09FB7F894EE89FF896083E889F989B4
:2002800080818370806480839FBF81E090E0DF91CF911F910F91FF90EF900895F62E0B8DCD
:2002A00010E00F5F1F4F0F731127E02E8C8D8E110CC00FB607FCFACFE889F989808185FF1D
:2002C000F5CFCE010E940501F1CFEB8DEC0FFD2FF11DE35AFF4FF0829FB7F8940B8FEA898A
:2002E000FB8980818062CFCFCF93DF93EC01888D8823B9F0AA89BB89E889F9898C9185FDC6
:2003000003C0808186FD0DC00FB607FCF7CF8C9185FFF2CF808185FFEDCFCE010E94050121
:20032000E9CFDF91CF91089590E0FC01E859FF4F2491FC01EC55FF4F3491FC01E057FF4F14
:20034000E491EE23C9F0222339F0233001F1A8F4213019F1223029F1F0E0EE0FFF1FE45821
:20036000FF4FA591B4918FB7F894EC91611126C030953E233C938FBF08952730A9F02830E5
:20038000C9F0243049F7809180008F7D03C0809180008F7780938000DFCF84B58F7784BD58
:2003A000DBCF84B58F7DFBCF8091B0008F778093B000D2CF8091B0008F7DF9CF3E2BDACFB2
:2003C0003FB7F89480911C0190911D01A0911E01B0911F0126B5A89B05C02F3F19F001968C
:2003E000A11DB11D3FBFBA2FA92F982F8827BC01CD01620F711D811D911D42E0660F771F39
:20040000881F991F4A95D1F708951F920F920FB60F9211242F933F934F935F936F937F93D0
:200420008F939F93AF93BF93EF93FF9380E291E00E940501FF91EF91BF91AF919F918F9155
:200440007F916F915F914F913F912F910F900FBE0F901F9018951F920F920FB60F921124D8
:200460002F938F939F93EF93FF93E0913001F09131018081E0913601F091370182FD1BC041
:200480009081809139018F5F8F7320913A01821741F0E0913901F0E0E05EFE4F958F80931D
:2004A0003901FF91EF919F918F912F910F900FBE0F901F9018958081F4CF1F920F920FB6A0
:2004C0000F9211242F933F938F939F93AF93BF938091180190911901A0911A01B0911B01BC
:2004E0003091170123E0230F2D3758F50196A11DB11D209317018093180190931901A093B3
:200500001A01B0931B0180911C0190911D01A0911E01B0911F010196A11DB11D80931C01F0
:2005200090931D01A0931E01B0931F01BF91AF919F918F913F912F910F900FBE0F901F909B
:20054000189526E8230F0296A11DB11DD2CF1F920F920FB60F9211242F933F934F935F9394
:200560006F937F938F939F93AF93BF93CF93DF93EF93FF9380911601C091E101D0E087FF06
:2005800024C01092850010928400809116018F5F8093160180911601082E000C990B8C1739
:2005A0009D0724F4809116018C30C4F18091840090918500049680349C4908F47AC0809131
:2005C000840090918500049676C080911601082E000C990B8C179D07C4F6E09116018E2FCD
:2005E000EE0F990BFC01EE0FFF1FE80FF91FE354FE4F808186FFC9CFE09116018E2FEE0F4F
:20060000990BFC01EE0FFF1FE80FF91FE354FE4F808160E08F730E949401B7CF2091840056
:2006200030918500E09116018E2FEE0F990BFC01EE0FFF1FE80FF91FE354FE4F81819281CE
:20064000820F931F9093890080938800E09116018E2FEE0F990BFC01EE0FFF1FE80FF91F03
:20066000E354FE4F808186FF11C0E09116018E2FEE0F990BFC01EE0FFF1FE80FF91FE3545B
:20068000FE4F808161E08F730E949401FF91EF91DF91CF91BF91AF919F918F917F916F91C2
:2006A0005F914F913F912F910F900FBE0F901F90189580E49CE990938900809388008FEFC5
:2006C00080931601E3CF109223011092220188EE93E0A0E0B0E08093240190932501A09306
:2006E0002601B093270184E091E0909321018093200185EC90E090932D0180932C0184EC38
:2007000090E090932F0180932E0180EC90E0909331018093300181EC90E090933301809318
:20072000320182EC90E0909335018093340186EC90E0909337018093360110923901109202
:200740003A0110923B0110923C018091E1018C3098F491E0980F9093E1018093E20190E0E3
:20076000FC01EE0FFF1FE80FF91FE354FE4F88EB9BE09283818308958FEF8093E201089519
:20078000CF93DF93CDB7DEB7A1970FB6F894DEBF0FBECDBF789484B5826084BD84B581606B
:2007A00084BD85B5826085BD85B5816085BD80916E00816080936E001092810080918100A7
:2007C00082608093810080918100816080938100809180008160809380008091B1008460F1
:2007E0008093B1008091B00081608093B00080917A00846080937A0080917A008260809354
:200800007A0080917A00816080937A0080917A00806880937A001092C100E0913001F091DF
:20082000310182E08083E0912C01F0912D011082E0912E01F0912F018FEC80831092380198
:20084000E0913401F091350186E08083E0913201F0913301808180618083E0913201F0916F
:200860003301808188608083E0913201F0913301808180688083E0913201F09133018081B9
:200880008F7D80838091E2018C3008F068C0E7EAF0E02491E3E9F0E08491882399F090E0CE
:2008A000880F991FFC01EA57FF4FA591B491FC01E458FF4F859194918FB7F894EC91E22BC4
:2008C000EC938FBF8091E201282F30E0F901EE0FFF1FE20FF31FE354FE4F9081907C936044
:2008E00090831092E3011092E4012CE0622F0E948F05829FB001112430E020E0AB01420FF1
:20090000531FFA01EE0FFF1FE40FF51FE354FE4F908196FD16C02F5F3F4F2C30310571F734
:2009200081110FC01092800082E0809381001092850010928400B19A80916F008260809331
:200940006F00E091E2018E2F90E0FC01EE0FFF1FE80FF91FE354FE4F808180648083E2EB47
:20096000F0E02491EEE9F0E084918823C9F090E0880F991FFC01EA57FF4F45915491FC01CF
:20098000E458FF4FA591B4919FB7F894FA0180812095822380838C91E22FE823EC939FBF01
:2009A00090E4392E2AE0822E912CA12CB12C30927C0080917A00806480937A0080917A0076
:2009C00086FDFCCF90917800809179008927982789272C01092E000C6608770897FF67C06D
:2009E0006DE280E291E00E94270122273327A901241935094609570919A28E010F5D1F4F70
:200A0000CA01B901A50194010E946D05605DF80162938F01211531054105510589F7011529
:200A2000110561F001900020E9F73197AF01401B510BB80180E291E00E94870042E050E088
:200A400062E171E080E291E00E9487000E94E0016B017C0184E1482E512C612C712C0E9476
:200A6000E0016C197D098E099F09683E734081059105A8F3F1E04F1A51086108710828EEB0
:200A8000C20E23E0D21EE11CF11C411451046104710429F780E090E0892B09F488CF0E946B
:200AA000F100882309F483CF0E94000080CFA301920119A28E010F5D1F4FCA01B901A501D4
:200AC00094010E946D05605DF80162938F01211531054105510589F7A2CFA1E21A2EAA1BA9
:200AE000BB1BFD010DC0AA1FBB1FEE1FFF1FA217B307E407F50720F0A21BB30BE40BF50BB3
:200B0000661F771F881F991F1A9469F760957095809590959B01AC01BD01CF010895991BF1
:200B200079E004C0991F961708F0961B881F7A95C9F780950895EE0FFF1F0590F491E02D20
:200B40000994F894FFCF0000000027018700B4007401E500C300D7000D0A0000FFFFFFFF34
:200B6000FFFFFFFFFFFFFFFFFFFFFFFFFFFFFFFFFFFFFFFFFFFFFFFFFFFFFFFFFFFFFFFF95
:200B8000820F931FFC01EF53FE4FD283C1834FBF6091200170912101072E000C880B990B32
:200BA00097FF9DC00E9453026CE284E291E00E9427018091E8016101C81AD10887FDD3945A
:200BC000CC0CDD1CCC0CDD1C0D2C000CEE08FF088091E701E8E84E2E512C481A510887FD30
:200BE0005394440C551C440C551C052C000C660877082091E60190E080E02F3FD1F030E0BB
:200C0000C901880F991F820F931FFC01EF53FE4F8181928153E0880F991F5A95E1F7B0E0FE
:200C2000A0E064E0B595A795979587956A95D1F702969C012F5F3F4F032E000C440B550B1E
:200C40002419350946095709A4EBB0E00E949606A701960124193509460957090E94770685
:200C6000CA01B90197FF3FC00E94530242E050E062E171E084E291E00E9487000E94E001FA
:200C80002B013C0184E1C82ED12CE12CF12C0E94E0016419750986099709683E73408105DD
:200CA0009105A8F381E0C81AD108E108F10898EE490E93E0591E611C711CC114D104E104A5
:200CC000F10429F740E050E0452B09F4D6CE0E94F100882309F4D1CE0E940000CECE4AE05C
:200CE0000E94050261CF4AE00E940502BFCF052E97FB1EF400940E948E0657FD07D00E944C
:200D0000A10607FC03D04EF40C948E0650954095309521953F4F4F4F5F4F089590958095FA
:200D2000709561957F4F8F4F9F4F08950E94C306A59F900DB49F900DA49F800D911D112492
:200D40000895A1E21A2EAA1BBB1BFD010DC0AA1FBB1FEE1FFF1FA217B307E407F50720F08D
:200D6000A21BB30BE40BF50B661F771F881F991F1A9469F760957095809590959B01AC0104
:200D8000BD01CF010895A29FB001B39FC001A39F700D811D1124911DB29F700D811D112442
:200DA000911D0895991B79E004C0991F961708F0961B881F7A95C9F78095089597FB072E1A
:200DC00016F4009407D077FD09D00E94F90607FC05D03EF4909581959F4F089570956195E5
:200DE0007F4F08950E94C306B7FF0895821B930B0895AA1BBB1B51E107C0AA1FBB1FA617FE
:200E0000B70710F0A61BB70B881F991F5A95A9F780959095BC01CD010895EE0FFF1F059091
:200E2000F491E02D0994F894FFCF0000000027018700B4007401E500C300D7000D0A0000BB
:200E4000FFFFFFFFFFFFFFFFFFFFFFFFFFFFFFFFFFFFFFFFFFFFFFFFFFFFFFFFFFFFFFFFB2
:200E6000FFFFFFFFFFFFFFFFFFFFFFFFFFFFFFFFFFFFFFFFFFFFFFFFFFFFFFFFFFFFFFFF92
:200E8000C300D7000D0A0000FFFFFFFFFFFFFFFFFFFFFFFFFFFFFFFFFFFFFFFFFFFFFFFFB9
:200EA000FFFFFFFFFFFFFFFFFFFFFFFFFFFFFFFFFFFFFFFFFFFFFFFFFFFFFFFFFFFFFFFF52
:200EC000FFFFFFFFFFFFFFFFFFFFFFFFFFFFFFFFFFFFFFFFFFFFFFFFFFFFFFFFFFFFFFFF32
:200EE000FFFFFFFFFFFFFFFFFFFFFFFFFFFFFFFFFFFFFFFFFFFFFFFFFFFFFFFFFFFFFFFF12
:200F000051012F0143010D0A0000FFFFFFFFFFFFFFFFFFFFFFFFFFFFFFFFFFFFFFFFFFFF0A
:200F2000FFFFFFFFFFFFFFFFFFFFFFFFFFFFFFFFFFFFFFFFFFFFFFFFFFFFFFFFFFFFFFFFD1
:200F4000FFFFFFFFFFFFFFFFFFFFFFFFFFFFFFFFFFFFFFFFFFFFFFFFFFFFFFFFFFFFFFFFB1
:200F6000FFFFFFFFFFFFFFFFFFFFFFFFFFFFFFFFFFFFFFFFFFFFFFFFFFFFFFFFFFFFFFFF91
:200F80005CF0902F812F0D811E819D838E839C2D8D2D6B01692F782F0C151D055CF09D815D
:200FA0008E817E836D83692F782F902F812F8601C92ED82E1601201A310A2B012D813E81DA
:200FC000421A530A57FE03C0519441945108710137FE03C03FEFE31AF30AF594E7948D8189
:200FE0009E81861797075CF5A1E0B0E0BA83A983C016D1064CF1D301ED91FC910084F18509
:20100000E02D2B813C81A8016D817E818A149B041CF04D815E81B801C3010995E418F508BA
:20102000F7FE0AC02D813E8189819A81280F391F3E832D83E20CF31C0F5F1F4FD9CF2FEFC0
:201040003FEF3A832983D4CF26960FB6F894DEBF0FBECDBFDF91CF911F910F91FF90EF9025
:20106000DF90CF90BF90AF909F908F907F906F905F904F903F902F900895089561E0FC01E4
:2010800084810E948F048091350281111092350208958EBD00000DB407FEFDCF8EB5089509
:2010A000FC01862F968D28E030E040E891110C944908A1A1B2A196A5582F5423A9F05C9134
:2010C000952B9C93A3A1B4A19C9157A5952B9C93A3A1B4A15C9197A5909595239C934695C7
:2010E0002150310931F708955C9190959523E9CF8FEF0C9449080F931F93CF93DF93EC017A
:201100000E9463058B010E9478088F3F69F00E946305601B710B6C177D07A8F380E0DF917D
:20112000CF911F910F91089581E0F9CF8CBD9DBD08951F93CF93DF93EC01162F8E8D88237B
:2011400021F08F8D98A10E949608EFA1F8A5808199A9892B8083EDA1FEA1908188A980953E
:2011600089238083612FCE010E945008EDA1FEA1808198A9892B8083DF91CF911F91089524
:201180001F93CF93DF93EC01162F8E8D882321F08F8D98A10E949608EFA1F8A5908189A9BB
:2011A000809589238083EDA1FEA1908188A9809589238083612FCE010E945008EDA1FEA1B2
:2011C000808198A9892B8083DF91CF911F910895611103C060E20C94C00861E2FCCFEF928B
:2011E000FF920F931F93CF93DF93EC01E62E142FF22E6AE20E94C00860E0CE010E949908CA
:201200006AA96E0DCE010E94990860E0CE010E9499086AA96F0DCE010E9499086BE2CE011F
:201220000E94C00860E0CE010E9499086BA9610FCE010E94990860E0CE010E9499086BA9F6
:20124000600FCE010E9499086CE2CE01DF91CF911F910F91FF90EF900C94C008AF92BF92C8
:20126000CF92DF92EF92FF920F931F93CF93DF93EC015901680128853985621773070CF058
:2012800066C08A859B85481759070CF060C0FB01EA0DFB1D2E173F071CF45901A61AB70A9D
:2012A0009A012C0D3D1D821793071CF46C01C41AD50A8D8D823091F4C701982F8827990F5C
:2012C000990F990F9701207E3770822B932BEF2CFF24E694E694E694E82AF92A0FEF040F84
:2012E0000C0D2FEF260F2A0DCE010E94EF088E8D882321F08F8D98A10E949608EFA1F8A54A
:20130000808199A9892B8083EDA1FEA1908188A98095892380831C141D049CF48501101613
:2013200011065CF46F2DCE010E9450086E2DCE010E94500801501109F2CF81E0C81AD10835
:20134000EACFEDA1FEA1808198A9892B8083DF91CF911F910F91FF90EF90DF90CF90BF9063
:20136000AF900895CF92DF92EF92FF920F931F93CF93DF93EC01690178018885998568170B
:2013800079070CF052C02A853B85421753070CF04CC09B012C0D3D1D821793071CF46C01B6
:2013A000C61AD70A2FEF260F2C0D042FCE010E94EF088D8D823091F4C701982F8827990F0E
:2013C000990F990F9701207E3770822B932BEF2CFF24E694E694E694E82AF92A8E8D8823CE
:2013E00021F08F8D98A10E949608EFA1F8A5808199A9892B8083EDA1FEA1908188A980959C
:201400008923808381E0C81AD10848F06F2DCE010E9450086E2DCE010E945008F3CFEDA1B0
:20142000FEA1808198A9892B8083DF91CF911F910F91FF90EF90DF90CF900895CF92DF92A9
:20144000EF92FF920F931F93CF93DF93EC016901780188859985681779070CF053C08A853A
:201460009B85481759070CF04DC09A012C0D3D1D821793071CF46C01C41AD50A0FEF040FD8
:201480000C0D262FCE010E94EF088D8D823091F4C701982F8827990F990F990F9701207EB9
:2014A0003770822B932BEF2CFF24E694E694E694E82AF92A0F2D8E8D882321F08F8D98A1D1
:2014C0000E949608EFA1F8A5808199A9892B8083EDA1FEA1908188A980958923808381E011
:2014E000C81AD10848F0602FCE010E9450086E2DCE010E945008F3CFEDA1FEA1808198A90C
:20150000892B8083DF91CF911F910F91FF90EF90DF90CF900895EF92FF920F93CF93DF93F3
:20152000EC01790177FD4BC088859985681779070CF045C057FD43C08A859B854817590755
:20154000F4F501E0040F21E0260FCE010E94EF088E8D882321F08F8D98A10E949608EFA114
:20156000F8A5808199A9892B8083EDA1FEA1908188A98095892380838D8D823091F4C70188
:20158000982F8827990F990F990F9701207E3770822B932BEF2CFF24E694E694E694E82AD7
:2015A000F92A6F2DCE010E9450086E2DCE010E945008EDA1FEA1808198A9892B8083DF91A9
:2015C000CF910F91FF90EF900895CF93DF93EC0180913502811109C081E080933502809140
:2015E000EB049091EC040E94960860E08C81DF91CF910C948F048F929F92AF92BF92FF92E6
:201600000F931F93CF93DF93EC01F62E49015A018E81882389F08F8198859C012F5F3F4FD3
:2016200038872F838230924018F40E947808F3CFCE010E943E081E82CE010E94E50A8CE2A0
:2016400091E00E947B088F2D80640E94490808E110E0D501C401002E04C0B695A795979548
:2016600087950A94D2F70E94490808501109083F8FEF180771F785E9FF2021F028E087E821
:20168000F2128FEF0E94490810E00E9478088A8787FF04C01F3F11F01F5FF7CFDF91CF91F5
:2016A0001F910F91FF90BF90AF909F908F900895AF92BF92CF92DF92EF92FF920F931F9308
:2016C000CF93DF93EC016901C801820F931F8130924050F58E81882379F088819981AA819A
:2016E000BB8184179507A607B70731F48F819885C816D90608F042C0488359836A837B8371
:201700008B85833039F089E0440F551F661F771F8A95D1F79A01AB0161E1CE010E94FB0AAC
:20172000882389F083E08D83CE010E943E0880E0DF91CF911F910F91FF90EF90DF90CF90FF
:20174000BF90AF9008950E9463055B010E9478088A878F3F69F40E9463056A197B096D32EA
:201760007140A0F38FE08D83CE010E943E08DCCF8E3F89F418861F8281E08E838F8198851C
:201780008C159D0550F40E9478088F819885019698878F83F3CF8DE0E6CF6701E00EF11E62
:2017A0000E947808F60181936F01EE15FF05C1F78F819885080F191F18870F838985882367
:2017C00019F001151240A0F08E81882389F08F8198859C012F5F3F4F38872F8382309240FA
:2017E00018F40E947808F3CFCE010E943E081E8281E09ECFCF92DF92EF92FF920F93CF93EC
:20180000DF93EC01690182E1411551056105710599F08B85833039F089E0440F551F661FEA
:20182000771F8A95D1F79A01AB0168E1CE010E94FB0A882319F084E08D832DC08EEF0E94F1
:20184000490876018EEFD81AF70181917F010E944908EC14FD04C1F78FEF0E9449088FEF2C
:201860000E9449080E9478088A878F71853071F4011116C0CE010E943E0881E0DF91CF9158
:201880000F91FF90EF90DF90CF90089581E18D83CE010E943E08CE010E943E0880E0EECF32
:2018A00088E592E00E947B08811102C085E1C4CF20E030E0A9016DE0CE010E94FB0A8823AF
:2018C00011F084E1B9CF0E9478088111FACFD2CF0F9340913602509137026091380270910B
:2018E0003902411551056105710599F0082F2EE432E080914B0290914C020E94FA0B882322
:2019000049F01092360210923702109238021092390281E00F9108950F93CF93C82F809176
:201920004D02811105C0C1E08C2FCF910F9108954091020150910301609104017091050152
:201940000C2F2EE432E080914B0290914C020E94FA0B811102C0C0E0E7CFCC2321F381E0A6
:201960000E94680C8823B9F310924D02DDCF8F929F92AF92BF92EF92FF920F931F93CF93B1
:201980004B015C01C42F8091020190910301A0910401B091050188159905AA05BB0551F109
:2019A00081E00E948C0C81110BC080E0CF911F910F91FF90EF90BF90AF909F908F90089598
:2019C0008EE4E82E82E0F82E00E012E030E020E0B501A40180914B0290914C020E94580BE8
:2019E000882319F38092020190920301A0920401B092050140914D024C2B40934D0281E05C
:201A0000D5CF8F929F92AF92BF92CF92DF92EF92FF92CF932DEE34E030934C0220934B02B8
:201A2000882309F46DC040E060E070E0CB010E94B70C81110BC080E0CF91FF90EF90DF9056
:201A4000CF90BF90AF909F908F90089580910C048F7789F78091180490911904A0911A044D
:201A6000B0911B0484369105A105B10520F3C0901404D0901504E0901604F0901704C1146C
:201A8000D104E104F104B9F240E0C701B6010E94B70C882381F28091590290915A0281154B
:201AA000924049F6A0915E02AA2329F260915C0270915D026115710509F4BDCF20915B026A
:201AC000222309F4B8CFA0930B052093FD0490E080E030E0E1E0F0E0C82FAF01082E02C036
:201AE000440F551F0A94E2F72417350769F041E0480F01968930910579F7409306059BCFC2
:201B0000C12CD12C7601C0CF80930605209164023091650250E040E02115310541F42091D6
:201B200072023091730240917402509175022093FE043093FF0440930005509301054601D9
:201B40005701860E971EA11CB11C80920C0590920D05A0920E05B0920F05E0915F02F09115
:201B60006002F0931205E0931105B0E00E941420DC01CB01880D991DAA1DBB1D80931305BC
:201B800090931405A0931505B093160525E0EE0FFF1F2A95E1F7E150FE4FEF2FFF27E6956A
:201BA0008E0F9F1FA11DB11D8093070590930805A0930905B0930A05809061029090620265
:201BC000B12CA12C8114910441F480906E0290906F02A0907002B0907102C81AD90AEA0ADD
:201BE000FB0AC80CD91CEA1CFB1C04C0F694E794D794C794CA95D2F7C0920205D092030580
:201C0000E0920405F092050585EFC8168FE0D806E104F10428F48CE08093100581E00CCF58
:201C200080E125EFC2162FEFD206E104F104A0F380917A0290917B02A0917C02B0917D025A
:201C40008093130590931405A0931505B093160580E2E2CF4F925F926F927F928F929F9229
:201C6000AF92BF92CF92DF92EF92FF920F931F93CF93DF93EC01423051056105710590F4B1
:201C800080E0DF91CF911F910F91FF90EF90DF90CF90BF90AF909F908F907F906F905F900F
:201CA0004F90089589859A85AB85BC850196A11DB11D84179507A607B70710F3CB88DC888B
:201CC000ED88FE888F89803109F042C0BB27A72F962F852F480159012A013B01C80ED91E3D
:201CE000EA1EFB1E8091020190910301A0910401B0910501C816D906EA06FB0699F58F89B9
:201D00008031C1F5B301A201552766277727440F551F425B5D4FFA019182808280914D02DE
:201D2000816080934D028A89823080F08D819E81AF81B8858C0D9D1DAE1DBF1D809336024C
:201D400090933702A0933802B093390281E099CFDB01CA01E7E0B695A79597958795EA95B7
:201D6000D1F7B8CF40E0C701B6010E94B70C8111C6CF86CFB301A2014F77552766277727D0
:201D8000440F551F440F551F425B5D4FFA0180829182A282B382C2CF8F929F92AF92BF928E
:201DA000CF92DF92EF92FF920F931F93CF93DF93FC0181859285A385B4850196A11DB11D79
:201DC00084179507A607B70770F480E0DF91CF911F910F91FF90EF90DF90CF90BF90AF9013
:201DE0009F908F90089583889488A588B6888789803189F5BB27A72F962F852FE9016A01A1
:201E00007B018F01BC01CD01680D791D8A1D9B1D8090020190900301A0900401B09005010F
:201E200086169706A806B90601F5F8018789803111F5DD24EE24FF24F601EE0FFF1FE25BC1
:201E4000FD4F80819181B0E0A0E088839983AA83BB8381E0BBCFDB01CA01C7E0B695A795C1
:201E600097958795CA95D1F7C9CF40E00E94B70C8111DBCFAACFE894C7F8DD24EE24FF24B0
:201E8000F601EE0FFF1FEE0FFF1FE25BFD4F80819181A281B381BF70D8CF4F925F926F9279
:201EA0007F92AF92BF92CF92DF92EF92FF920F931F93CF93DF9300D000D0CDB7DEB78C012D
:201EC00049835A836B837C835901C12CD12C7601412C82E0582E612C712C49815A816B81A1
:201EE0007C819E012F5F3F4FC8010E94CC0E882339F1F8018585A301920104C0220F331F8F
:201F0000441F551F8A95D2F7DA01C901C80ED91EEA1EFB1E49815A816B817C818789803120
:201F200011F188EF9FEFAFEFBFE0481759076A077B0798F2F501C082D182E282F38281E05C
:201F40000F900F900F900F90DF91CF911F910F91FF90EF90DF90CF90BF90AF907F906F906D
:201F60005F904F90089588EF9FEFA0E0B0E0DDCFCF93DF93FC012581222321F080E0DF9198
:201F8000CF910895EC0180911005803159F582E08583178A108E118E128E80911105909102
:201FA0001205B0E0A0E025E0880F991FAA1FBB1F2A95D1F7838B948BA58BB68B89EF94E0F2
:201FC0009C8F8B8F81E08C831E821F82188619861A861B861C861D861E861F86188A198ABA
:201FE0001A8ACDCF803251F683E0858340911305509114056091150570911605478B508F82
:20200000618F728F9F012D5E3F4F89EF94E00E944D0F8111D3CFB2CF8F929F92AF92BF9293
:20202000CF92DF92EF92FF920F931F93CF93DF93EC018D8181110EC080E0DF91CF911F9159
:202040000F91FF90EF90DF90CF90BF90AF909F908F9008950B891C892D893E89041715079E
:202060002607370748F34A015B01823031F48A869B86AC86BD8681E0E0CF81149104A104B7
:20208000B10449F41E821F82188619861A861B861C861D86F0CF0A851B852C853D85EB8D71
:2020A000FC8D858590E00996B901A8014150510961097109082E04C0769567955795479583
:2020C0000A94D2F775016401E1E0CE1AD108E108F10804C0F694E794D794C7948A95D2F7E3
:2020E000C416D506E606F70620F0012B022B032B11F58F89988DA98DBA8D8E839F83A88789
:20210000B9878E010A5F1F4FC114D104E104F10409F4ADCF4E815F816885798598018B8DD1
:202120009C8D0E94CC0E91E0C91AD108E108F1088111EACF81CFC41AD50AE60AF70AE1CFF2
:202140003F924F925F926F927F928F929F92AF92BF92CF92DF92EF92FF920F931F93CF934C
:20216000DF93CDB7DEB72C970FB6F894DEBF0FBECDBF5C01DC015B968D909C905C971696B7
:202180004D905D906D907C901997411451046104710409F468C0BFEF4B1A5B0A6B0A7B0AA1
:2021A000312CF40181859285A385B4859C01AD012F5F3F4F4F4F5F4F29873A874B875C8776
:2021C000730162011D821E821F821886F40181859285A385B4852D813E814F8158852817DE
:2021E00039074A075B0708F056C089859A85AB85BC858C159D05AE05BF0550F482E0C82EEA
:20220000D12CE12CF12C92E0492E512C612C712C9E012F5F3F4FB701A601C4010E94CC0EAC
:202220008823C9F189819A81AB81BC81892B8A2B8B2B09F1260137019FEF491A590A690A6C
:20224000790A2D813E814F8158852F5F3F4F4F4F5F4F2D833E834F8358873FEFC31AD30A6F
:20226000E30AF30AB3CFF40140805180628073803324339496CFC414D504E604F70409F77E
:202280000FEF1FEF2FEF3FE0B701A601C4010E942A0E811119C080E02C960FB6F894DEBF7C
:2022A0000FBECDBFDF91CF911F910F91FF90EF90DF90CF90BF90AF909F908F907F906F90DF
:2022C0005F904F903F900895D50116964D915D916D917C911997411551056105710539F00A
:2022E00097018601C4010E942A0E8823A1F2D5011696CD92DD92ED92FC921997332051F041
:20230000D701C6010196A11DB11DF40180839183A283B383F5018789908DA18DB28D892B50
:202320008A2B8B2B39F48481C78AD08EE18EF28E80688483F50184818062848381E0ACCFB3
:202340002F923F924F925F926F927F928F929F92AF92BF92CF92DF92EF92FF920F931F93EB
:20236000CF93DF93EC015B012A018D81811115C08FEF9FEFDF91CF911F910F91FF90EF9066
:20238000DF90CF90BF90AF909F908F907F906F905F904F903F902F9008958C8180FFE8CF49
:2023A0000B891C892D893E894A855B856C857D85C201B0E0A0E068017901C41AD50AE60A62
:2023C000F70AC816D906EA06FB0618F42801441A550A42011E0126E0220E311C811491044D
:2023E00009F4B3C04A855B856C857D856A0181E0D8228B8D9C8D8A019B01E9E0369527954D
:2024000017950795EA95D1F7ED81E230E1F5FC01628D738D848D958D600F711F821F931F66
:20242000612C22E0722E6C187D088614970408F434012C8126FD04C06114F2E07F0671F439
:2024400000910201109103012091040130910501061717072807390709F053C040E00E944E
:20246000B70C882309F484CFC601825B9D4FD5019C01260D371DFC012E173F0709F460C06F
:2024800041914D93F9CFFC0174807A947022C114D10471F471100CC0452B462B472B39F554
:2024A0008F89988DA98DBA8D8E839F83A887B987EB8DFC8D6E817F81888599856250710979
:2024C00081099109258504C0660F771F881F991F2A95D2F70685178520893189600F711FEF
:2024E000821F931F670D711D811D911D99CF4E815F816885798591010E94CC0E8111D8CFF2
:2025000037CF750183019601AB01BC0180914B0290914C020E94580B882309F429CFA60C97
:20252000B71C8A859B85AC85BD85860D971DA11DB11D8A879B87AC87BD87861897084ECF4F
:20254000281B390BA20EB31EECCFC20113CF1F93CF93DF93FC0125812223D1F1162FEC01B1
:20256000848187FF2AC0668577858089918941E00E94B70C882361F1EA8980E2E89FF0010C
:202580001124E25BFD4F309719F18D81823040F48B899C89AD89BE89848F958FA68FB78F50
:2025A0008F89988D938F828F8F89988DA98DBA8DB58BA48B8C818F778C83111103C08C816E
:2025C0008F7E8C83812FDF91CF911F910C948C0C80E0DF91CF911F910895FF920F931F9315
:2025E000CF93DF93EC018D81813041F090E080E0DF91CF911F910F91FF9008958C8181FF81
:20260000F5CF82FD1BC000914B0210914C02C8010E94E50A0E947808F82EC8010E943E087C
:202620008FEFF812E3CF8C8185FF1BC060E0CE010E94A7128C818F7D8C83D8CF4B895C8902
:202640006D897E898A859B85AC85BD8584179507A607B707C1F2CE010E940C108111D3CFC5
:20266000C5CF40913602509137026091380270913902452B462B472B21F080E00E94680C62
:20268000B5CF80618C832A853B85317080E092E0821B930BADCFCF93DF93EC0161E00E9489
:2026A000A712882311F01D8281E0DF91CF9108952F923F924F925F926F927F928F929F9280
:2026C000AF92BF92CF92DF92EF92FF920F931F93CF93DF9300D000D01F92CDB7DEB77C0175
:2026E0005B01342E5D83DC0115968C911597813009F0CEC014962C9021FECAC022FCB4C012
:20270000C32CDD8022947FE027222094B22DB1702B2ED7011A964D915D916D917C911D97EF
:20272000C114D10409F428C15B968D919C915C97FC0174807A948A019B0169E036952795E4
:20274000179507956A95D1F770228A011170711020C001151105E9F416964D915D916D91EC
:202760007C911997411551056105710509F099C057968D919D910D90BC91A02D0097A10595
:20278000B10509F0B0C0C7010E94A010882309F47FC080E092E0801B910B46018C159D0586
:2027A00008F44C01D7015B964D915C915C9716968D919D910D90BC91A02D0297A109B1099D
:2027C000FA01258504C0880F991FAA1FBB1F2A95D2F74685578560897189840F951FA61F80
:2027E000B71F9C01AD01270D311D411D511D29013A01811432E0930609F07BC0809102017D
:2028000090910301A0910401B091050184159505A605B70559F48FEF9FEFDC018093020130
:2028200090930301A0930401B0930501022D9501B301A20180914B0290914C020E94FA0B60
:20284000882331F19EEFB91AC818D908F70182859385A485B585880D991DA11DB11D828730
:202860009387A487B58755CFF701438954896589768982859385A485B585481759076A0773
:202880007B0709F43DCFC7010E940C10811138CF81E090E0D70113969C938E93129780E0E3
:2028A00007C09E012F5F3F4F0E94CC0E811102C090E079C089819A81AB81BC81F701238DE7
:2028C000348DF901278948EF5FEF60E070E0203121F048EF5FEF6FEF7FE084179507A607F0
:2028E000B70708F050CFF70186839783A087B18750CF0115110599F5D7011A964D915D915C
:202900006D917C911D9753968D919D910D90BC91A02D481759076A077B0708F181E00E945E
:202920008C0C882309F4B4CF4092020150920301609204017092050180914D0281608093C6
:202940004D02C801825B9D4FD5019C01280D391DFC012E173F0759F04D914193FACF41E02B
:20296000C301B2010E94B70C8111EBCF91CF281B390BA20EB31E68CFF70183899489A58941
:20298000B68984179507A607B70738F48481438B548B658B768B80688483F701848183FD1B
:2029A0001AC0832D9D810F900F900F900F900F90DF91CF911F910F91FF90EF90DF90CF9058
:2029C000BF90AF909F908F907F906F905F904F903F902F90089561E0C7010E94A712882305
:2029E00009F456CFDECFCF93DF931F92CDB7DEB7698341E050E0BE016F5F7F4F0E945813C5
:202A00000F90DF91CF910895FC01DB0112968D919C9113979383828382E291E0918380832D
:202A200014968C911497848315968C911597858316964D915D916D917C91199746835783CB
:202A4000608771871A964D915D916D917C911D9742875387648775871E964D915D916D9154
:202A60007C91519746875787608B718B52968C915297828B53964D915D916D917C91569727
:202A8000438B548B658B768B57964D915D916D917C915A97478B508F618F728F5B968D9132
:202AA0009C91948F838F0895FC01818D928D009719F061E00C94A7120895DC015996ED91CC
:202AC000FC913097B9F083899489A589B6894285538564857585841B950BA60BB70B811599
:202AE00020E89207A105B10538F08FEF9FE7A0E0B0E0089590E080E00895DC0159968D91A9
:202B00009C91009739F0DC01ED91FC910480F581E02D099490E080E00895CF93DF93EC010E
:202B2000E98DFA8D309749F481E090E09B838A8390E080E0DF91CF91089513821282898D1C
:202B40009A8D0E945813E98DFA8D22813381232B59F7F0CFCF93DF931F92CDB7DEB7698306
:202B6000DC01ED91FC910280F381E02D41E050E0BE016F5F7F4F09950F90DF91CF91089514
:202B8000CF93DF931F92CDB7DEB741E050E0BE016F5F7F4F0E94A011019731F4898190E061
:202BA0000F90DF91CF9108958FEF9FEFF9CFFC01818D928D009711F00C94C0158FEF9FEFF2
:202BC00008950F931F93CF93DF93EC01898D9A8D10E000E0009799F00E94C0158C010F3FC4
:202BE000100769F0898D9A8DFC01428553856485758541505109610971090E940C10C80153
:202C0000DF91CF911F910F910895CF93CFB7F89480913402811127C0EDEEF5E08491E1E03D
:202C2000F6E09491E82FF0E0EE0FFF1FED59FA4FA591B491EC91E92321F461E08AE00E94A2
:202C40008F0461E08AE00E94BD048CB580618CBD8CB580648CBD61E08DE00E94BD0461E0A8
:202C60008BE00E94BD04809134028F5F80933402CFBFCF910895089590E080E008950F93D1
:202C80001F93CF93DF93EC0180E2689FF0011124E25BFD4F6A8B8091020190910301A0914A
:202CA0000401B09105018E879F87A88BB98B0489158930E020E09801112700270F8B188FA2
:202CC000298F3A8F828D938DB0E0A0E0AC01BD01402B512B622B732B4F8B588F698F7A8FF5
:202CE00083858871A9F4848D958DA68DB78D8B8B9C8BAD8BBE8B81E08D8381E08C831E824D
:202D00001F82188619861A861B861C861D8603C0803131F080E0DF91CF911F910F9108959D
:202D20009E012D5E3F4F8B8D9C8D0E944D0F882389F384E0E1CFAF92BF92CF92DF92EF927C
:202D4000FF920F931F93CF93DF93CDB7DEB72B970FB6F894DEBF0FBECDBF6C01FE01319665
:202D6000CE010C967F0120E22193E817F907E1F7DA0120E037E09D91B92E9923A9F19E32A8
:202D8000B9F43A3091F480E02B960FB6F894DEBF0FBECDBFDF91CF911F910F91FF90EF9001
:202DA000DF90CF90BF90AF90089528E03AE0E3CFEFE1F6E08491882321F031969813FACF94
:202DC000E2CF321700F38FED890F8E35E0F68FE9890F8A3118F440EEB42EB90EF701E20FC2
:202DE000F11DB0822F5FC7CF8981803261F28B01FB01838D948DF601948F838FFB011682E7
:202E00001782108611861286138614861586F80182859385A485B585438954896589768975
:202E200084179507A607B70708F0ADCF25E0B695A795979587952A95D1F7F82FFF70AF2EAE
:202E4000F8018581823008F49ECFC8010E94C01597FD99CFF80182859385A485B5854F96BC
:202E6000A11DB11D82879387A487B587F0E2AF9EB0011124625B7D4F6115710509F483CF73
:202E8000FB018081882309F1853E19F4B11032C01EC04BE050E0C7010E945E21892B09F03E
:202EA000B6CF6A2DC6012B960FB6F894DEBF0FBECDBFDF91CF911F910F91FF90EF90DF908A
:202EC000CF90BF90AF900C943F16B1105CCFF601A28A8091020190910301A0910401B09151
:202EE000050186879787A08BB18BFB018081882309F449CFBB24B3948ACF0E945921FB01E6
:202F000001900020E9F73197AF01461B570BDC01ED91FC910280F381E02D0994CF93DF9389
:202F2000D0E0C0E0009731F0BC018EE494E00E947F17EC016AE571E08EE494E00E947F1703
:202F40008C0F9D1FDF91CF9108958F929F92AF92BF92CF92DF92EF92FF920F931F93CF932F
:202F6000DF93CDB7DEB7A1970FB6F894DEBF0FBECDBF6C01990FEE08FF08F7FE43C06DE2EE
:202F80008EE494E00E94F9038C0122273327A9012C193D094E095F0919A2CE0181967C016B
:202FA0009AE0892E912CA12CB12CCA01B901A50194010E94F21F605DF70162937F012115A6
:202FC00031054105510589F790E080E0309729F0BF018EE494E00E947F17800F911FA1969B
:202FE0000FB6F894DEBF0FBECDBFDF91CF911F910F91FF90EF90DF90CF90BF90AF909F90D1
:203000008F900895A701960119A28E010F5D1F4F8AE0C82ED12CE12CF12CCA01B901A701DD
:2030200096010E94F21F605DF80162938F01211531054105510589F790E080E0309779F281
:20304000BF018EE494E00E947F17C9CFEF92FF920F931F93CF93DF93EC017B018A011B822F
:203060001A8288EE93E0A0E0B0E08C839D83AE83BF838CE491E0998388838DE190E00E9491
:2030800034209A8F898F009779F02DE1F701DC0101900D922A95E1F74CE050E0B801CE010D
:2030A0000C960E947621188EDF91CF911F910F91FF90EF900895EF92FF920F931F93CF93FC
:2030C000DF93CDB7DEB7C258D1090FB6F894DEBF0FBECDBF7C01DC0159960D911C91F8019D
:2030E0008581823008F4A6C082859385A485B5858F719927AA27BB27892B8A2B8B2B09F0A9
:2031000099C040E250E0BE016F5F7F4FC8010E94A011803209F08EC08981882309F48AC098
:20312000853E79F38E3269F38C8583FDEACF22961FAE1EAE229782E291E09FAF8EAF2496D6
:203140001FAE2497BE016F5F7F4FE0E080E02EE2DB019D91BD019032A1F0883049F446E71F
:2031600050E04C0F5D1F4E0F511DDA012C93EF5F46E750E04C0F5D1F4E0F511DDA019C938C
:20318000EF5F8F5F8B3021F786E790E08C0F9D1F8E0F911DFC011082D70159966D917C9140
:2031A000AE014A585F4FCE01CE960E949B16882309F440C0BE01625C7F4FCE0181960E940F
:2031C0000415AE014A585F4FBE016F5D7F4FCE01855A9F4F0E942618E696EEADFFADE697C2
:2031E000309709F443C08581882309F43FC06DE571E08EE494E00E947F170BE510E00C0F9F
:203200001D1F045F1F4FC8010E948E17E6968EAD9FADE697009779F5CE57DF4F0FB6F89468
:20322000DEBF0FBECDBFDF91CF911F910F91FF90EF9008956F961FAE1EAE6F9788EE93E040
:20324000A0E0B0E0A3968CAF9DAFAEAFBFAFA3978CE491E06D969FAF8EAF6D97E6961FAEDD
:203260001EAEE697A8961FAEA897B6CF8FE591E00E948E17D1CFFC012581223068F26F9616
:203280002EAD3FAD6F973C832B83A3964CAD5DAD6EAD7FADA3974D835E836F837887A79658
:2032A0004CAD5DAD6EAD7FADA79749875A876B877C872CE431E03A8329832DE0F801DE0171
:2032C0001D9601900D922A95E1F79B8F8A8FCE0101960E945B18A0CF1F920F920FB60F928F
:2032E00011242F933F934F935F936F937F938F939F93AF93BF93EF93FF938EE494E00E9499
:20330000D703FF91EF91BF91AF919F918F917F916F915F914F913F912F910F900FBE0F9068
:203320001F9018951F920F920FB60F9211242F938F939F93EF93FF93E0915E04F0915F0463
:203340008081E0916404F091650482FD1BC09081809167048F5F8F7320916804821741F0EB
:20336000E0916704F0E0E25BFB4F958F80936704FF91EF919F918F912F910F900FBE0F904D
:203380001F9018958081F4CF1F920F920FB60F9211242F933F938F939F93AF93BF93809193
:2033A0003B0290913C02A0913D02B0913E0230913A0223E0230F2D3758F50196A11DB11D7A
:2033C00020933A0280933B0290933C02A0933D02B0933E0280913F0290914002A09141022F
:2033E000B09142020196A11DB11D80933F0290934002A0934102B0934202BF91AF919F91AF
:203400008F913F912F910F900FBE0F901F90189526E8230F0296A11DB11DD2CF0F931F933C
:20342000EEE4F4E01382128248EE53E060E070E0448355836683778380E191E09183808359
:2034400085EC90E09587848784EC90E09787868780EC90E0918B808B81EC90E0938B828B4E
:2034600082EC90E0958B848B86EC90E0978B868B118E128E138E148EEBEEF4E090E5908373
:203480001182EDEEF4E0158216821186138602E010E020E030E0048715872687378713A262
:2034A00015A614A622E231E033A722A717A6EAE6F5E01382128244835583668377832CE4C2
:2034C00031E031832083128E118E1486E6E3F5E01382128220E830E03583248340EA50E013
:2034E00057834683158A158614861786168681E0848B6FEF7FEF738B628B718B608B868BFD
:20350000978F10A29AE091A799E092A798E093A7868F15A614A68EE291E091838083518763
:203520004087338722871F910F910895CF93DF93CDB7DEB7C257D1090FB6F894DEBF0FBED9
:20354000CDBF789484B5826084BD84B5816084BD85B5826085BD85B5816085BD80916E00E2
:20356000816080936E001092810080918100826080938100809181008160809381008091A6
:2035800080008160809380008091B10084608093B1008091B00081608093B00080917A00DD
:2035A000846080937A0080917A00826080937A0080917A00816080937A0080917A00806834
:2035C00080937A001092C100E0915E04F0915F0482E08083E0915A04F0915B041082E0912D
:2035E0005C04F0915D048FEC808310926604E0916204F091630486E08083E0916004F09181
:203600006104808180618083E0916004F0916104808188608083E0916004F09161048081FD
:2036200080688083E0916004F091610480818F7D8083109269051092680561E080916005FE
:203640000E94BD0461E080915F050E94BD0480915F0590E0FC01ED51FA4FE491F0E0EE0F43
:20366000FF1FE359FA4F2591349130935C0520935B05FC01E950FA4FE491E0936605809112
:20368000600590E0FC01ED51FA4FE491F0E0EE0FFF1FE359FA4F2591349130935E05209398
:2036A0005D05FC01E950FA4FE491E093670580915405882309F466C00E94051680E5809368
:2036C000550510925605E0915B05F0915C059081809166058095892380838091610588236D
:2036E00021F161E00E94BD0461E0809161050E948F0464EF71E080E090E00E94300560E09C
:20370000809161050E948F0464EF71E080E090E00E94300561E0809161050E948F0464EF72
:2037200071E080E090E00E943005E7E7F5E0B49078E7C72E75E0D72EBA94FFEFBF1609F4EE
:2037400081C0F601649186E395E00E94C0084601F2E08F0E911CF6013196F490CF2CE894D8
:20376000C7F83401EC2CEA944FEFE41609F453C0F301649186E395E00E949908FFEF6F1AF6
:203780007F0AF1CF61E0809163050E94BD0461E0809162050E94BD048091630590E0FC01C1
:2037A000ED51FA4FE491F0E0EE0FFF1FE359FA4FA591B491B0935A05A093590589509A4F2D
:2037C000FC018491809365052091620530E0F901ED51FA4FE491F0E0EE0FFF1FE359FA4FCC
:2037E000459154915093580540935705F901E950FA4FE491E0936405EC9180958E238C9370
:20380000E0915705F091580590818091640580958923808358CFC80CD92CD11CF7FE8CCF71
:2038200076014FEFE41AF40AF601649170E06F3F710511F464EF71E090E080E00E94300527
:2038400067017ACF66E386E395E00E94C008FF24F394F0924B0568EA86E395E00E94990837
:2038600080EA90E090933F0580933E0580E890E090934105809340056FEF7FEF86E395E06E
:203880000E946F05F09252051092510510925005F0924F0510924E0510924D05109247059D
:2038A0001092460510924905109248058AE080934A0560E08EE00E94BD0460E08FE00E940E
:2038C000BD0462E082E00E94BD0480911C05882321F087E195E00E944B131092F804109215
:2038E000F6041092F3041092F20484E08093F1040E9463057B0161E08091F1040E94BD0401
:2039000061E08091F1040E948F040E94051682E58093EB041092EC048091EB049091EC0462
:203920000E9496086AE0D62E8FEF0E944908DA94D110FACF8DEE94E00E94E50A20E030E0E0
:20394000A90160E08DEE94E00E94FB0AD82E8093F704F1E08F1789F00E9463056E197F09CA
:20396000613D774058F381E08093F2048DEE94E00E943E0889E891E07CC02AEA31E040E003
:2039800050E068E08DEE94E00E94FB0A82FF2AC0D092F8048091F804812C912CA12C40E4E8
:2039A000B42E823019F0812C912C540120E030E0A90167E38DEE94E00E94FB0AA5019401D6
:2039C00069E28DEE94E00E94FB0A8093F7048823D1F00E9463056E197F09613D774030F3FB
:2039E00088E0C2CF54E0D52E0E9478088093F704DA94D110F9CF8A3A11F082E0B5CF82E043
:203A00008093F804C7CF8091F8048230D1F420E030E0A9016AE38DEE94E00E94FB0A882335
:203A200011F086E0A1CF0E947808807C803C19F483E08093F8040E9478080E9478080E9470
:203A400078088DEE94E00E943E0880E58093EB041092EC0481E00E94010D882309F441C05C
:203A600087E195E00E94B80F882309F483CF8BE691E00E948E1719A218A282E291E09F8F65
:203A80008E8F1BA21C821B829A8389831E824E019EE1890E911CC4010E94B80FFE01319642
:203AA0007F01340139E6A32E31E0B32E2F016FE270E0C5010E946B21009709F461C0F501FF
:203AC00020812F32A9F4FFEFAF1ABF0A9E2D8F2D7301692E782E962D872D3701E92EF82EA3
:203AE000E6CF80E00E94010D882309F443CFB8CF8A198D3008F08CE0C82ED12CA601B501AC
:203B0000CE01885A9F4F0E947621E8E5F0E0EC0FFD1FEC0DFD1D1082C7010E944B13F701B4
:203B200085818823F1F01EAE1DAE82E291E09CAF8BAF21961FAE219707591E4FF8018081FF
:203B4000811127C0BE01655C7F4FC2010E94041549E651E0B201CE01885A9F4F0E9426188E
:203B60003FC0AE01485A5F4FB301C7010E949B168823C9F2AC0CBD1CC3010E944B13ABCF43
:203B8000850109561140B301CE01CB960E940415D3CF19A218A282E291E09F8F8E8F1BA25C
:203BA00021968FAD219781111AC16C961FAE1EAE6C9788EE93E0A0E0B0E0A0968CAF9DAF99
:203BC000AEAFBFAFA0978CE491E06A969FAF8EAF6A97E3961FAE1EAEE397A5961FAEA597A6
:203BE0006C968EAD9FAD6C9790936D0580936C05A0968CAD9DADAEADBFADA09780936E05E3
:203C000090936F05A0937005B0937105A4968CAD9DADAEADBFADA4978093720590937305C8
:203C2000A0937405B0937505A8E5B0E0AC0FBD1F1C96E6E7F5E08D91819345E0E338F407A6
:203C4000D1F7E3962EAD3FADE397309384052093830580916C0590916D059C838B83809108
:203C60006E0590916F05A0917005B09171058D839E83AF83B8878091720590917305A091EB
:203C80007405B091750589879A87AB87BC878CE491E09A8389838DE0E6E7F5E0DE011D969F
:203CA00001900D928A95E1F73B8F2A8FC2010E945B188091830590918405009761F00E94B5
:203CC0004B1380918305909184050E94D020109284051092830580EB91E00E948E17BDE09C
:203CE0004B2EB6E05B2E19EF612E15E0712E05EEE02E05E0F02E80E0C82E80E0D82EAA2473
:203D0000A394B12C22E0822E912C8EE00E94F90490934A02809349028FE00E94F904909315
:203D2000480280934702F2018491F3011491F7010491002309F467C081110E946604E02FBB
:203D4000F0E0EE0FFF1FE752FA4FA591B4918C91182391E080E009F490E090934502809368
:203D6000460261EE71E08EE494E00E947F178091490290914A020E94A51765EF71E08EE4FF
:203D800094E00E947F1780914702909148020E94A5176DE072E08EE494E00E947F17809186
:203DA000450290914602892B89F18FE192E00E948E172091470230914802809100019091C4
:203DC00001012635F1E03F070CF048C0019718161906FCF490930101809300011EC0A801D6
:203DE000BE01655C7F4FC4010E949B16882309F4DCCECE01CB960E944B13B401C2010E94C1
:203E00000415A801A7CE90E080E0A7CF88E292E0CECF909201018092000180910001909142
:203E2000010120914302309144028217930751F0909344028093430281309105E1F002979D
:203E400009F496C0C114D10409F45FCF0E94C303882309F45ACF0E94000057CF2B3A324062
:203E6000E4F20196833091050CF4B4CFB0920101A0920001D2CF00913E0510913F0517FF22
:203E800002C00F5F1F4F159507956FEF7FEF86E395E01016110694F10E946F0580914F0557
:203EA000882349F1309140052091410510924C0580914D0590914E05909347058093460589
:203EC0009093490580934805C80149979093430580934205832F922F97FD019695958795BF
:203EE0004997909345058093440560E372E086E395E00E947F1701501109C7CF0E946F0557
:203F000080914F05882309F49DCF309140052091410550913E0540913F0510924C058091EE
:203F20004D0590914E0590934705809346059093490580934805852F942F97FD0196959551
:203F4000879549979093430580934205832F922F97FD01969595879549979093450580935C
:203F6000440562E372E086E395E00E947F176ACF6FEF7FEF86E395E00E946F0580914F05ED
:203F8000882309F45FCF309140052091410550913E0540913F0510924C0580914D0590919E
:203FA0004E0590934705809346059093490580934805852F942F97FD019695958795499748
:203FC0009093430580934205832F922F97FD0196959587954997909345058093440560E34C
:203FE00072E0C1CFA1E21A2EAA1BBB1BFD010DC0AA1FBB1FEE1FFF1FA217B307E407F50786
:2040000020F0A21BB30BE40BF50B661F771F881F991F1A9469F760957095809590959B01CE
:20402000AC01BD01CF0108950E942520A59F900DB49F900DA49F800D911D11240895EE0FA3
:20404000FF1F0590F491E02D0994A29FB001B39FC001A39F700D811D1124911DB29F700D6B
:20406000811D1124911D08950F931F93CF93DF938230910510F482E090E0E0918705F0915E
:20408000880530E020E0B0E0A0E0309799F42115310509F44AC0281B390B24303105D8F5CE
:2040A0008A819B816115710589F1FB0193838283FE0111C040815181028113814817590723
:2040C000E0F04817590799F4109761F012960C93129713961C933296CF01DF91CF911F916C
:2040E0000F9108950093870510938805F4CF2115310551F04217530738F0A901DB019A01C8
:20410000BD01DF01F801C1CFEF01F9CF9093880580938705CDCFFE01E20FF31F819391939B
:204120002250310939832883D7CF2091850530918605232B41F42091080130910901309374
:2041400086052093850520910601309107012115310541F42DB73EB740910A0150910B01D3
:20416000241B350BE0918505F0918605E217F307A0F42E1B3F0B2817390778F0AC014E5F5E
:204180005F4F2417350748F04E0F5F1F5093860540938505819391939FCFF0E0E0E09CCF7B
:2041A000CF93DF930097E9F0FC01329713821282A0918705B0918805ED0130E020E010979C
:2041C000A1F420813181820F931F20918505309186052817390709F061C0F0938605E09313
:2041E0008505DF91CF910895EA01CE17DF07E8F54A815B819E0141155105B1F7E901FB8333
:20420000EA8349915991C40FD51FEC17FD0761F4808191810296840F951FE9019983888347
:20422000828193819B838A83F0E0E0E012968D919C9113970097B9F52D913C911197CD01C9
:204240000296820F931F20918505309186052817390739F6309751F51092880510928705E4
:20426000B0938605A0938505BCCFD383C28340815181840F951FC817D90761F44E5F5F4F44
:2042800088819981480F591F518340838A819B81938382832115310509F0B0CFF09388055F
:2042A000E09387059ECFFD01DC01C0CF13821282D7CF81E090E0F8940C948521FB01DC01DD
:2042C00004C08D910190801921F441505040C8F7881B990B0895FC018191861721F0882391
:2042E000D9F7992708953197CF010895FB01DC014150504048F001900D920020C9F701C059
:204300001D9241505040E0F70895F894FFCF0100FFFFFFFF00008905800000000000F903F8
:20432000590386034604B7039503A90300000000F3145903ED123B16000000008D055903AF
:204340003C163B168B0A90071E0AB20941072E096F05E808430300000000AA158D157D158F
:2043600054155D15D715E1150D0A00090046696E206361727465002F00496E697469616C1B
:2043800069736174696F6E206465206C61206361727465205344006572726575722064272A
:2043A000696E697469616C69736174696F6E206465206C61206361727465205344002A2A0C
:2043C0002A46696E206465206C6563747572652064657320666963686965727320646520C7
:2043E0006C612063617274652053442A2A2A0056616C65757220766572746963616C65201E
:204400003A20002076616C65757220686F72697A696F6E74616C65203A20002076616C6519
:20442000757220626F75746F6E203A200072656C616368C3A9006170707579C3A9004200AC
:204440004100FFFFFFFFFFFFFFFFFFFFFFFFFFFFFFFFFFFFFFFFFFFFFFFFFFFFFFFFFFFF39
:20446000FFFFFFFFFFFFFFFFFFFFFFFFFFFFFFFFFFFFFFFFFFFFFFFFFFFFFFFFFFFFFFFF5C
:20448000129713961C933296CF01DF91CF911F910F9108950093C4041093C504F4CF211506
:2044A000310551F04217530738F0A901DB019A01BD01DF01F801C1CFEF01F9CF9093C504BE
:2044C0008093C404CDCFFE01E20FF31F819391932250310939832883D7CF2091C20430913A
:2044E000C304232B41F420910A0130910B013093C3042093C204209108013091090121152B
:20450000310541F42DB73EB740910C0150910D01241B350BE091C204F091C304E217F30799
:20452000A0F42E1B3F0B2817390778F0AC014E5F5F4F2417350748F04E0F5F1F5093C30431
:204540004093C204819391939FCFF0E0E0E09CCFCF93DF930097E9F0FC01329713821282EE
:20456000A091C404B091C504ED0130E020E01097A1F420813181820F931F2091C204309130
:20458000C3042817390709F061C0F093C304E093C204DF91CF910895EA01CE17DF07E8F538
:2045A0004A815B819E0141155105B1F7E901FB83EA8349915991C40FD51FEC17FD0761F4A5
:2045C000808191810296840F951FE90199838883828193819B838A83F0E0E0E012968D9140
:2045E0009C9113970097B9F52D913C911197CD010296820F931F2091C2043091C304281785
:20460000390739F6309751F51092C5041092C404B093C304A093C204BCCFD383C28340815F
:204620005181840F951FC817D90761F44E5F5F4F88819981480F591F518340838A819B8142
:20464000938382832115310509F0B0CFF093C504E093C4049ECFFD01DC01C0CF13821282D4
:20466000D7CF81E090E0F8940C945223FB01DC0104C08D910190801921F441505040C8F748
:20468000881B990B0895FB01DC014150504048F001900D920020C9F701C01D924150504063
:2046A000E0F70895F894FFCFFFFFFFFF010000000000C604800000000000551638162816EE
:2046C000FF15081682168C1600000000E304430470043005A1047F049304000000009E1525
:2046E00043049813A318000000001E064304A418A318360B2108C90A5D0AD207D9090006C6
:20470000930909040D0A004D6F6A69746F2E626D7000FFFFFFFFFFFFFFFFFFFFFFFFFFFF08
:20472000FFFFFFFFFFFFFFFFFFFFFFFFFFFFFFFFFFFFFFFFFFFFFFFFFFFFFFFFFFFFFFFF99
:20474000FFFFFFFFFFFFFFFFFFFFFFFFFFFFFFFFFFFFFFFFFFFFFFFFFFFFFFFFFFFFFFFF79
:20476000FFFFFFFFFFFFFFFFFFFFFFFFFFFFFFFFFFFFFFFFFFFFFFFFFFFFFFFFFFFFFFFF59
:20478000911D0895DB018F939F930E947123BF91AF91A29F800D911DA39F900DB29F900D8F
:2047A00011240895A1E21A2EAA1BBB1BFD010DC0AA1FBB1FEE1FFF1FA217B307E407F507CE
:2047C00020F0A21BB30BE40BF50B661F771F881F991F1A9469F760957095809590959B0107
:2047E000AC01BD01CF010895B7FF0C9471230E947123821B930B0895EE0FFF1F0590F491B4
:20480000E02D0994CF93DF938230910510F482E090E0E0912305F091240520E030E0C0E009
:20482000D0E0309711F14081518148175907C0F04817590761F482819381209719F09B83F4
:204840008A832BC0909324058093230526C02115310519F04217530718F49A01BE01DF0185
:20486000EF010280F381E02DDCCF2115310509F1281B390B2430310590F412968D919C91AC
:2048800013976115710521F0FB019383828304C09093240580932305FD01329644C0FD0147
:2048A000E20FF31F81939193225031092D933C933AC02091210530912205232B41F4209195
:2048C000060130910701309322052093210520910401309105012115310541F42DB73EB74E
:2048E0004091080150910901241B350BE0912105F0912205E217F307A0F42E1B3F0B2817DC
:20490000390778F0AC014E5F5F4F2417350748F04E0F5F1F50932205409321058193919322
:2049200002C0E0E0F0E0CF01DF91CF9108950F931F93CF93DF93009709F48CC0FC0132971A
:204940001382128200912305109124050115110581F420813181820F931F209121053091DC
:2049600022052817390779F5F0932205E093210571C0D80140E050E0AE17BF0750F412960F
:204980002D913C911397AD012115310509F1D901F3CF9D01DA013383228360817181860FF6
:2049A000971F8217930769F4EC0128813981260F371F2E5F3F4F318320838A819B81938327
:2049C0008283452B29F4F0932405E093230542C01396FC93EE931297ED01499159919E0149
:2049E000240F351FE217F30771F480819181840F951F029611969C938E938281938113962F
:204A00009C938E931297E0E0F0E0D80112968D919C911397009719F0F8018C01F6CF8D918E
:204A20009C9198012E5F3F4F820F931F20912105309122052817390769F4309729F4109231
:204A400024051092230502C0138212821093220500932105DF91CF911F910F910895A0E0B8
:204A6000B0E0E5E3F5E20C948023EC01009721F4CB010E940224B8C0FC01E60FF71F9C017A
:204A800022503109E217F30708F4ACC0D9010D911C91119706171707B0F00530110508F420
:204AA0009FC0C80104978617970708F499C002501109061B170B019311936D937C93CF01DD
:204AC0000E9497248DC05B01A01AB10A4C01800E911EA0912305B091240540E050E0E12CB1
:204AE000F12C109709F44AC0A815B905D1F56D907C901197630182E0C80ED11CCA14DB04B3
:204B000080F1A3014A195B096A0182E0C80ED11C1296BC9012971396AC91B5E0CB16D1045B
:204B200040F0B282A38351834083D9016D937C930AC00E5F1F4FC301800F911FF9019183B5
:204B40008083EB2DFA2FE114F10431F0D7011396FC93EE93129744C0F0932405E093230581
:204B60003FC08D919C9111974817590708F4AC017D0112960D90BC91A02DB3CF8091210545
:204B80009091220588159905E1F446175707C8F48091040190910501009741F48DB79EB7A4
:204BA0004091080150910901841B950BE817F907C8F4F0932205E0932105F9017183608322
:204BC0000FC0CB010E9402247C01009759F0A801BE010E940B26CE010E949724C70104C022
:204BE000CE0102C080E090E0CDB7DEB7EEE00C949C2381E090E0F8940C943526FB01DC01DD
:204C000004C08D910190801921F441505040C8F7881B990B0895FB01DC0102C001900D92E4
:204C200041505040D8F70895FC018191861721F08823D9F7992708953197CF010895FB0121
:204C4000DC0101900D920020E1F70895FB01DC014150504048F001900D920020C9F701C0AF
:204C60001D9241505040E0F7089513E0C9EAD3E004C0FE010E94FC232196CA3AD107C9F7C0
:204C8000F894FFCFFFFFFFFF0000250580000000000092140F1D0104661B7114DB1DE51D3D
:204CA0000000000000006F0CDC0B070CB60C380C160C2A0C00000000651EDC0B01040004AE
:204CC000651E651E651E00000000FE1CDC0B0104000400000000651EDC0B010400040000CE
:204CE0000000360DDC0B010400040C142E0F90131513DF0E8212070D2D12250D2F00466975
:204D00006E002F6C6F676F2E626D7000457272657572206465206C6F676F000D0A00FFFF94
:204D2000FFFFFFFFFFFFFFFFFFFFFFFFFFFFFFFFFFFFFFFFFFFFFFFFFFFFFFFFFFFFFFFF93
:204D4000FFFFFFFFFFFFFFFFFFFFFFFFFFFFFFFFFFFFFFFFFFFFFFFFFFFFFFFFFFFFFFFF73
:204D6000FFFFFFFFFFFFFFFFFFFFFFFFFFFFFFFFFFFFFFFFFFFFFFFFFFFFFFFFFFFFFFFF53
:204D8000FFFFFFFFFFFFFFFFFFFFFFFFFFFFFFFFFFFFFFFFFFFFFFFFFFFFFFFFFFFFFFFF33
:207E0000112484B714BE81FFF0D085E08093810082E08093C00088E18093C10086E08093FC
:207E2000C20080E18093C4008EE0C9D0259A86E020E33CEF91E0309385002093840096BBAD
:207E4000B09BFECF1D9AA8958150A9F7CC24DD2488248394B5E0AB2EA1E19A2EF3E0BF2E79
:207E6000A2D0813461F49FD0082FAFD0023811F0013811F484E001C083E08DD089C0823404
:207E800011F484E103C0853419F485E0A6D080C0853579F488D0E82EFF2485D0082F10E0A0
:207EA000102F00270E291F29000F111F8ED068016FC0863521F484E090D080E0DECF84364D
:207EC00009F040C070D06FD0082F6DD080E0C81680E7D80618F4F601B7BEE895C0E0D1E0ED
:207EE00062D089930C17E1F7F0E0CF16F0E7DF0618F0F601B7BEE89568D007B600FCFDCF1A
:207F0000A601A0E0B1E02C9130E011968C91119790E0982F8827822B932B1296FA010C016F
:207F200087BEE89511244E5F5F4FF1E0A038BF0751F7F601A7BEE89507B600FCFDCF97BE85
:207F4000E89526C08437B1F42ED02DD0F82E2BD03CD0F601EF2C8F010F5F1F4F84911BD0B8
:207F6000EA94F801C1F70894C11CD11CFA94CF0CD11C0EC0853739F428D08EE10CD085E9AE
:207F80000AD08FE07ACF813511F488E018D01DD080E101D065CF982F8091C00085FFFCCF0A
:207FA0009093C60008958091C00087FFFCCF8091C00084FD01C0A8958091C6000895E0E68F
:207FC000F0E098E1908380830895EDDF803219F088E0F5DFFFCF84E1DECF1F93182FE3DF47
:207FE0001150E9F7F2DF1F91089580E0E8DFEE27FF270994FFFFFFFFFFFFFFFFFFFF040425
:00000001FF
